{
  "transactions": [
    {
      "hash": "0xbe3348b1d958818869cbba9fa780f1a50d11f11d6e27d7bbaf17d55d91814212",
      "transactionType": "CREATE",
      "contractName": null,
      "contractAddress": "0x64c594139e2E6B22D148255dE5293e81C294A033",
      "function": null,
      "arguments": null,
      "transaction": {
        "from": "0xF9d85965c6A40D0C029471d758850e4b4C0d5b17",
        "gas": "0x6c0e6d",
        "value": "0x0",
        "input": "0x6101206040523480156200001257600080fd5b5060405162002ef038038062002ef08339810160408190526200003591620000ff565b33806200005c57604051631e4fbdf760e01b81526000600482015260240160405180910390fd5b620000678162000092565b506001600160a01b0394851660805292841660a05290831660c052821660e05216610100526200016f565b600080546001600160a01b038381166001600160a01b0319831681178455604051919092169283917f8be0079c531659141344cd1fd0a4f28419497f9722a3daafe3b4186f6b6457e09190a35050565b80516001600160a01b0381168114620000fa57600080fd5b919050565b600080600080600060a086880312156200011857600080fd5b6200012386620000e2565b94506200013360208701620000e2565b93506200014360408701620000e2565b92506200015360608701620000e2565b91506200016360808701620000e2565b90509295509295909350565b60805160a05160c05160e05161010051612c906200026060003960008181610e0501528181610e4701528181610efb01528181611026015281816119eb01528181611a1201528181611b1f01528181611c6d01528181611caf01528181611d83015281816120e801528181612166015281816121a001526121db0152600081816104070152818161063f0152818161087f015281816108ab01528181610b9501528181610bc70152610c7a01526000818161112c015281816115dd01526117f001526000818161085e01528181610c9b01528181611c1801528181611c4b0152611d61015260005050612c906000f3fe608060405234801561001057600080fd5b50600436106100935760003560e01c80638da5cb5b116100665780638da5cb5b14610100578063978bbdb91461011b578063cc29a7a514610132578063f2fde38b14610145578063f940e3851461015857600080fd5b8063162dd47a1461009857806347e7ef24146100ad578063715018a6146100e557806384a812e4146100ed575b600080fd5b6100ab6100a63660046124d3565b61016b565b005b6100c06100bb3660046124f0565b6101ba565b604080516001600160a01b039384168152929091166020830152015b60405180910390f35b6100ab610491565b6100ab6100fb36600461251c565b6104a5565b6000546040516001600160a01b0390911681526020016100dc565b61012460025481565b6040519081526020016100dc565b6100ab6101403660046125ef565b6104d4565b6100ab6101533660046124d3565b610578565b6100ab610166366004612693565b6105bb565b6101736107b4565b6001600160a01b038116600090815260036020526040812080546001600160b81b0319168155906101a76001830182612470565b6101b5600283016000612470565b505050565b6000806127108310156101e05760405163e420a20d60e01b815260040160405180910390fd5b6040516370a0823160e01b81523360048201526000906001600160a01b038616906370a0823190602401602060405180830381865afa158015610227573d6000803e3d6000fd5b505050506040513d601f19601f8201168201806040525081019061024b91906126c1565b90506102626001600160a01b0386163330846107e1565b6001600160a01b038581166000908152600360209081526040808320815160808101835281549586168152600160a01b90950462ffffff1692850192909252600182018054939493918401916102b7906126da565b80601f01602080910402602001604051908101604052809291908181526020018280546102e3906126da565b80156103305780601f1061030557610100808354040283529160200191610330565b820191906000526020600020905b81548152906001019060200180831161031357829003601f168201915b50505050508152602001600282018054610349906126da565b80601f0160208091040260200160405190810160405280929190818152602001828054610375906126da565b80156103c25780601f10610397576101008083540402835291602001916103c2565b820191906000526020600020905b8154815290600101906020018083116103a557829003601f168201915b5050509190925250508151919250506001600160a01b03166103f657604051626fc74f60e31b815260040160405180910390fd5b6104058686836040015161084e565b7f00000000000000000000000000000000000000000000000000000000000000009350620186a08510156104425761043d86826108cf565b805192505b60408051838152602081018790526001600160a01b0388169133917fdcbc1c05240f31ff3ad067ef1ee35ce4997762752e3a095284754544f4c709d7910160405180910390a350509250929050565b6104996107b4565b6104a360006108f1565b565b6104ad6107b4565b600291909155600180546001600160a01b0319166001600160a01b03909216919091179055565b6104dc6107b4565b604080516080810182526001600160a01b03808716825262ffffff8087166020808501918252848601888152606086018890528b851660009081526003909252959020845181549251909316600160a01b026001600160b81b0319909216929093169190911717815591519091906001820190610559908261275a565b506060820151600282019061056e908261275a565b5050505050505050565b6105806107b4565b6001600160a01b0381166105af57604051631e4fbdf760e01b8152600060048201526024015b60405180910390fd5b6105b8816108f1565b50565b6040516370a0823160e01b8152336004820181905261063d9130906001600160a01b038616906370a0823190602401602060405180830381865afa158015610607573d6000803e3d6000fd5b505050506040513d601f19601f8201168201806040525081019061062b91906126c1565b6001600160a01b0386169291906107e1565b7f00000000000000000000000000000000000000000000000000000000000000006001600160a01b0316826001600160a01b031614610685576106808282610941565b61068e565b61068e81610b93565b600061069982610ccb565b90506000620186a0600254836106af9190612830565b6106b99190612847565b90506106c58183612869565b9150610752600160009054906101000a90046001600160a01b03166001600160a01b0316638ce744266040518163ffffffff1660e01b8152600401602060405180830381865afa15801561071d573d6000803e3d6000fd5b505050506040513d601f19601f82011682018060405250810190610741919061287c565b6001600160a01b0385169083610d3c565b6107666001600160a01b0384163384610d3c565b604080516001600160a01b0386811682526020820185905285169133917f3115d1449a7b732c986cba18244e897a450f61e1bb8d589cd2e69e6c8924f9f7910160405180910390a350505050565b6000546001600160a01b031633146104a35760405163118cdaa760e01b81523360048201526024016105a6565b6040516001600160a01b0384811660248301528381166044830152606482018390526108489186918216906323b872dd906084015b604051602081830303815290604052915060e01b6020820180516001600160e01b038381831617835250505050610d6d565b50505050565b610859838383610dd0565b6108a67f00000000000000000000000000000000000000000000000000000000000000007f0000000000000000000000000000000000000000000000000000000000000000610bb8610f21565b6101b57f00000000000000000000000000000000000000000000000000000000000000006116e6565b6108e28282600001518360200151610f21565b80516108ed906116e6565b5050565b600080546001600160a01b038381166001600160a01b0319831681178455604051919092169283917f8be0079c531659141344cd1fd0a4f28419497f9722a3daafe3b4186f6b6457e09190a35050565b6001600160a01b038181166000908152600360209081526040808320815160808101835281549586168152600160a01b90950462ffffff169285019290925260018201805493949391840191610996906126da565b80601f01602080910402602001604051908101604052809291908181526020018280546109c2906126da565b8015610a0f5780601f106109e457610100808354040283529160200191610a0f565b820191906000526020600020905b8154815290600101906020018083116109f257829003601f168201915b50505050508152602001600282018054610a28906126da565b80601f0160208091040260200160405190810160405280929190818152602001828054610a54906126da565b8015610aa15780601f10610a7657610100808354040283529160200191610aa1565b820191906000526020600020905b815481529060010190602001808311610a8457829003601f168201915b5050505050815250509050826001600160a01b031681600001516001600160a01b031614610ae25760405163f864263360e01b815260040160405180910390fd5b826001600160a01b031663a8559872610afa85610ccb565b3030604051806080016040528060008152602001600081526020016000815260200160008152506040518563ffffffff1660e01b8152600401610b4094939291906128bc565b60408051808303816000875af1158015610b5e573d6000803e3d6000fd5b505050506040513d601f19601f82011682018060405250810190610b8291906128e7565b50506101b5838383602001516118e4565b7f00000000000000000000000000000000000000000000000000000000000000006001600160a01b031663a8559872610beb7f0000000000000000000000000000000000000000000000000000000000000000610ccb565b3030604051806080016040528060008152602001600081526020016000815260200160008152506040518563ffffffff1660e01b8152600401610c3194939291906128bc565b60408051808303816000875af1158015610c4f573d6000803e3d6000fd5b505050506040513d601f19601f82011682018060405250810190610c7391906128e7565b5050610cc27f00000000000000000000000000000000000000000000000000000000000000007f0000000000000000000000000000000000000000000000000000000000000000610bb86118e4565b6105b881611b6b565b6040516370a0823160e01b81523060048201526000906001600160a01b038316906370a0823190602401602060405180830381865afa158015610d12573d6000803e3d6000fd5b505050506040513d601f19601f82011682018060405250810190610d3691906126c1565b92915050565b6040516001600160a01b038381166024830152604482018390526101b591859182169063a9059cbb90606401610816565b6000610d826001600160a01b03841683611da9565b90508051600014158015610da7575080806020019051810190610da59190612920565b155b156101b557604051635274afe760e01b81526001600160a01b03841660048201526024016105a6565b6000620186a083610de086610ccb565b610dea9190612830565b610df49190612847565b9050610e2a6001600160a01b0385167f000000000000000000000000000000000000000000000000000000000000000083611dbe565b6040805160a0810182528381523060208201526001600160a01b037f0000000000000000000000000000000000000000000000000000000000000000169163c04b8d5991908101610e7c42603c61293b565b815260200184815260200160018152506040518263ffffffff1660e01b8152600401610ea89190612972565b6020604051808303816000875af1158015610ec7573d6000803e3d6000fd5b505050506040513d601f19601f82011682018060405250810190610eeb91906126c1565b506108486001600160a01b0385167f00000000000000000000000000000000000000000000000000000000000000006000611e43565b6000826001600160a01b0316630dfe16816040518163ffffffff1660e01b8152600401602060405180830381865afa158015610f61573d6000803e3d6000fd5b505050506040513d601f19601f82011682018060405250810190610f85919061287c565b90506000836001600160a01b031663d21220a76040518163ffffffff1660e01b8152600401602060405180830381865afa158015610fc7573d6000803e3d6000fd5b505050506040513d601f19601f82011682018060405250810190610feb919061287c565b90506000826001600160a01b0316866001600160a01b03161461100e5782611010565b815b9050600080611020858588611ed3565b905060007f00000000000000000000000000000000000000000000000000000000000000006001600160a01b031663c45a01556040518163ffffffff1660e01b8152600401602060405180830381865afa158015611082573d6000803e3d6000fd5b505050506040513d601f19601f820116820180604052508101906110a6919061287c565b90506110b28183611f3e565b6001600160a01b0316633850c7bd6040518163ffffffff1660e01b815260040160e060405180830381865afa1580156110ef573d6000803e3d6000fd5b505050506040513d601f19601f820116820180604052508101906111139190612a04565b5094975060009650869550859450506001600160a01b037f0000000000000000000000000000000000000000000000000000000000000000169250635ccfb71d91508b90508c61116281610ccb565b6040516001600160e01b031960e086901b1681526001600160a01b03938416600482015292909116602483015260448201526064016040805180830381865afa1580156111b3573d6000803e3d6000fd5b505050506040513d601f19601f820116820180604052508101906111d791906128e7565b909250905060026111e8828461293b565b6111f29190612847565b92505050600061120184610ccb565b9050600061120e8a610ccb565b9050600080898b8d5b6000816001600160a01b031663313ce5676040518163ffffffff1660e01b8152600401602060405180830381865afa158015611257573d6000803e3d6000fd5b505050506040513d601f19601f8201168201806040525081019061127b9190612a96565b60ff16905060008b6001600160a01b031663313ce5676040518163ffffffff1660e01b8152600401602060405180830381865afa1580156112c0573d6000803e3d6000fd5b505050506040513d601f19601f820116820180604052508101906112e49190612a96565b60ff1690506000806112ff6001600160a01b038e1680612830565b90508f6001600160a01b0316856001600160a01b03161461135857611353611328856024612869565b61133390600a612b95565b61133e85600a612b95565b6113489190612830565b82600160c01b612027565b611391565b611391611366846024612869565b61137190600a612b95565b61137c86600a612b95565b6113869190612830565b600160c01b83612027565b9150600090506113ef6113a5856024612869565b6113b090600a612b95565b6113ba908c612830565b6a0c097ce7bc90715b34b9f160241b6113d4866024612869565b6113df90600a612b95565b8f6113ea9190612830565b612027565b9050600061142b611401856024612869565b61140c90600a612b95565b611416908e612830565b836a0c097ce7bc90715b34b9f160241b612027565b905080611439866024612869565b61144490600a612b95565b61144e908d612830565b111561151157600061148b61146c848b62ffffff16620f4240612027565b6114769085612869565b6a0c097ce7bc90715b34b9f160241b86612027565b6114a3906a0c097ce7bc90715b34b9f160241b61293b565b90506114b0866024612869565b6114bb90600a612b95565b6114ff836114ca896024612869565b6114d590600a612b95565b8f6114e09190612830565b6114ea9190612869565b6a0c097ce7bc90715b34b9f160241b84612027565b6115099190612847565b9a50506115ae565b6000611543836a0c097ce7bc90715b34b9f160241b611539878d62ffffff16620f4240612027565b6113ea908861293b565b61155b906a0c097ce7bc90715b34b9f160241b61293b565b9050611568866024612869565b61157390600a612b95565b6115a0611581886024612869565b61158c90600a612b95565b611596908f612830565b6114ea9085612869565b6115aa9190612847565b9950505b5050505050878710156115cc576115c7818b85886120d9565b6115d8565b6115d88a82858761219b565b6000807f00000000000000000000000000000000000000000000000000000000000000006001600160a01b0316635ccfb71d858561161587610ccb565b6040516001600160e01b031960e086901b1681526001600160a01b03938416600482015292909116602483015260448201526064016040805180830381865afa158015611666573d6000803e3d6000fd5b505050506040513d601f19601f8201168201806040525081019061168a91906128e7565b9150915061169783610ccb565b97506116a28c610ccb565b98506116af89838361228c565b156116c7575050505050505050505050505050505050565b60026116d3828461293b565b6116dd9190612847565b99505050611217565b6000816001600160a01b0316630dfe16816040518163ffffffff1660e01b8152600401602060405180830381865afa158015611726573d6000803e3d6000fd5b505050506040513d601f19601f8201168201806040525081019061174a919061287c565b90506000826001600160a01b031663d21220a76040518163ffffffff1660e01b8152600401602060405180830381865afa15801561178c573d6000803e3d6000fd5b505050506040513d601f19601f820116820180604052508101906117b0919061287c565b90506117d0836117bf84610ccb565b6001600160a01b0385169190611dbe565b6117ee836117dd83610ccb565b6001600160a01b0384169190611dbe565b7f00000000000000000000000000000000000000000000000000000000000000006001600160a01b0316638e3c92e461182684610ccb565b61182f84610ccb565b3387604051806080016040528060008152602001600081526020016000815260200160008152506040518663ffffffff1660e01b8152600401611876959493929190612ba1565b6020604051808303816000875af1158015611895573d6000803e3d6000fd5b505050506040513d601f19601f820116820180604052508101906118b991906126c1565b506118cf6001600160a01b038316846000611e43565b6101b56001600160a01b038216846000611e43565b6000836001600160a01b0316630dfe16816040518163ffffffff1660e01b8152600401602060405180830381865afa158015611924573d6000803e3d6000fd5b505050506040513d601f19601f82011682018060405250810190611948919061287c565b90506000836001600160a01b0316826001600160a01b03161461196b57816119cd565b846001600160a01b031663d21220a76040518163ffffffff1660e01b8152600401602060405180830381865afa1580156119a9573d6000803e3d6000fd5b505050506040513d601f19601f820116820180604052508101906119cd919061287c565b905060006119da82610ccb565b9050611a106001600160a01b0383167f000000000000000000000000000000000000000000000000000000000000000083611dbe565b7f00000000000000000000000000000000000000000000000000000000000000006001600160a01b031663414bf389604051806101000160405280856001600160a01b03168152602001886001600160a01b031681526020018762ffffff168152602001306001600160a01b0316815260200142603c611a90919061293b565b81526020018481526020016000815260200160006001600160a01b03168152506040518263ffffffff1660e01b8152600401611acc9190612bd4565b6020604051808303816000875af1158015611aeb573d6000803e3d6000fd5b505050506040513d601f19601f82011682018060405250810190611b0f91906126c1565b50611b456001600160a01b0383167f00000000000000000000000000000000000000000000000000000000000000006000611e43565b611b6333611b5284610ccb565b6001600160a01b0385169190610d3c565b505050505050565b6001600160a01b03811660009081526003602052604081206002018054611b91906126da565b80601f0160208091040260200160405190810160405280929190818152602001828054611bbd906126da565b8015611c0a5780601f10611bdf57610100808354040283529160200191611c0a565b820191906000526020600020905b815481529060010190602001808311611bed57829003601f168201915b505050505090506000611c3c7f0000000000000000000000000000000000000000000000000000000000000000610ccb565b9050611c926001600160a01b037f0000000000000000000000000000000000000000000000000000000000000000167f000000000000000000000000000000000000000000000000000000000000000083611dbe565b6040805160a0810182528381523060208201526001600160a01b037f0000000000000000000000000000000000000000000000000000000000000000169163c04b8d5991908101611ce442603c61293b565b815260200184815260200160008152506040518263ffffffff1660e01b8152600401611d109190612972565b6020604051808303816000875af1158015611d2f573d6000803e3d6000fd5b505050506040513d601f19601f82011682018060405250810190611d5391906126c1565b506101b56001600160a01b037f0000000000000000000000000000000000000000000000000000000000000000167f00000000000000000000000000000000000000000000000000000000000000006000611e43565b6060611db7838360006122a6565b9392505050565b604051636eb1769f60e11b81523060048201526001600160a01b0383811660248301526000919085169063dd62ed3e90604401602060405180830381865afa158015611e0e573d6000803e3d6000fd5b505050506040513d601f19601f82011682018060405250810190611e3291906126c1565b90506108488484611e43858561293b565b604080516001600160a01b038416602482015260448082018490528251808303909101815260649091019091526020810180516001600160e01b031663095ea7b360e01b179052611e948482612343565b610848576040516001600160a01b03848116602483015260006044830152611ec991869182169063095ea7b390606401610816565b6108488482610d6d565b6040805160608101825260008082526020820181905291810191909152826001600160a01b0316846001600160a01b03161115611f0e579192915b50604080516060810182526001600160a01b03948516815292909316602083015262ffffff169181019190915290565b600081602001516001600160a01b031682600001516001600160a01b031610611f6657600080fd5b815160208084015160408086015181516001600160a01b0395861681860152949092168482015262ffffff90911660608085019190915281518085038201815260808501909252815191909201206001600160f81b031960a08401529085901b6bffffffffffffffffffffffff191660a183015260b58201527fe34f199b19b2b4f47f68442619d555527d244f78a3297ea89325f843f87b8b5460d582015260f50160408051601f1981840301815291905280516020909101209392505050565b6000808060001985870985870292508281108382030391505080600003612060576000841161205557600080fd5b508290049050611db7565b80841161206c57600080fd5b6000848688096000868103871696879004966002600389028118808a02820302808a02820302808a02820302808a02820302808a02820302808a02909103029181900381900460010186841190950394909402919094039290920491909117919091029150509392505050565b61210d6001600160a01b0385167f000000000000000000000000000000000000000000000000000000000000000083611dbe565b60408051610100810182526001600160a01b038681168252858116602083015262ffffff85168284015230606083015242608083015260a08201849052600060c0830181905260e0830152915163414bf38960e01b81527f00000000000000000000000000000000000000000000000000000000000000009092169163414bf38991610ea891600401612bd4565b6121d97f00000000000000000000000000000000000000000000000000000000000000006121c886610ccb565b6001600160a01b0387169190611dbe565b7f00000000000000000000000000000000000000000000000000000000000000006001600160a01b031663db3e2198604051806101000160405280876001600160a01b03168152602001866001600160a01b031681526020018562ffffff168152602001306001600160a01b0316815260200142815260200184815260200161226188610ccb565b815260006020909101526040516001600160e01b031960e084901b168152610ea89190600401612bd4565b600082841015801561229e5750818411155b949350505050565b6060814710156122cb5760405163cd78605960e01b81523060048201526024016105a6565b600080856001600160a01b031684866040516122e79190612c3e565b60006040518083038185875af1925050503d8060008114612324576040519150601f19603f3d011682016040523d82523d6000602084013e612329565b606091505b50915091506123398683836123eb565b9695505050505050565b6000806000846001600160a01b0316846040516123609190612c3e565b6000604051808303816000865af19150503d806000811461239d576040519150601f19603f3d011682016040523d82523d6000602084013e6123a2565b606091505b50915091508180156123cc5750805115806123cc5750808060200190518101906123cc9190612920565b80156123e257506000856001600160a01b03163b115b95945050505050565b606082612400576123fb82612447565b611db7565b815115801561241757506001600160a01b0384163b155b1561244057604051639996b31560e01b81526001600160a01b03851660048201526024016105a6565b5080611db7565b8051156124575780518082602001fd5b604051630a12f52160e11b815260040160405180910390fd5b50805461247c906126da565b6000825580601f1061248c575050565b601f0160209004906000526020600020908101906105b891905b808211156124ba57600081556001016124a6565b5090565b6001600160a01b03811681146105b857600080fd5b6000602082840312156124e557600080fd5b8135611db7816124be565b6000806040838503121561250357600080fd5b823561250e816124be565b946020939093013593505050565b6000806040838503121561252f57600080fd5b823591506020830135612541816124be565b809150509250929050565b634e487b7160e01b600052604160045260246000fd5b600082601f83011261257357600080fd5b813567ffffffffffffffff8082111561258e5761258e61254c565b604051601f8301601f19908116603f011681019082821181831017156125b6576125b661254c565b816040528381528660208588010111156125cf57600080fd5b836020870160208301376000602085830101528094505050505092915050565b600080600080600060a0868803121561260757600080fd5b8535612612816124be565b94506020860135612622816124be565b9350604086013562ffffff8116811461263a57600080fd5b9250606086013567ffffffffffffffff8082111561265757600080fd5b61266389838a01612562565b9350608088013591508082111561267957600080fd5b5061268688828901612562565b9150509295509295909350565b600080604083850312156126a657600080fd5b82356126b1816124be565b91506020830135612541816124be565b6000602082840312156126d357600080fd5b5051919050565b600181811c908216806126ee57607f821691505b60208210810361270e57634e487b7160e01b600052602260045260246000fd5b50919050565b601f8211156101b557600081815260208120601f850160051c8101602086101561273b5750805b601f850160051c820191505b81811015611b6357828155600101612747565b815167ffffffffffffffff8111156127745761277461254c565b6127888161278284546126da565b84612714565b602080601f8311600181146127bd57600084156127a55750858301515b600019600386901b1c1916600185901b178555611b63565b600085815260208120601f198616915b828110156127ec578886015182559484019460019091019084016127cd565b508582101561280a5787850151600019600388901b60f8161c191681555b5050505050600190811b01905550565b634e487b7160e01b600052601160045260246000fd5b8082028115828204841417610d3657610d3661281a565b60008261286457634e487b7160e01b600052601260045260246000fd5b500490565b81810381811115610d3657610d3661281a565b60006020828403121561288e57600080fd5b8151611db7816124be565b8060005b600481101561084857815184526020938401939091019060010161289d565b8481526001600160a01b0384811660208301528316604082015260e081016123e26060830184612899565b600080604083850312156128fa57600080fd5b505080516020909101519092909150565b8051801515811461291b57600080fd5b919050565b60006020828403121561293257600080fd5b611db78261290b565b80820180821115610d3657610d3661281a565b60005b83811015612969578181015183820152602001612951565b50506000910152565b602081526000825160a0602084015280518060c085015261299a8160e086016020850161294e565b60018060a01b0360208601511660408501526040850151606085015260608501516080850152608085015160a085015260e0601f19601f8301168501019250505092915050565b805161ffff8116811461291b57600080fd5b805160ff8116811461291b57600080fd5b600080600080600080600060e0888a031215612a1f57600080fd5b8751612a2a816124be565b8097505060208801518060020b8114612a4257600080fd5b9550612a50604089016129e1565b9450612a5e606089016129e1565b9350612a6c608089016129e1565b9250612a7a60a089016129f3565b9150612a8860c0890161290b565b905092959891949750929550565b600060208284031215612aa857600080fd5b611db7826129f3565b600181815b80851115612aec578160001904821115612ad257612ad261281a565b80851615612adf57918102915b93841c9390800290612ab6565b509250929050565b600082612b0357506001610d36565b81612b1057506000610d36565b8160018114612b265760028114612b3057612b4c565b6001915050610d36565b60ff841115612b4157612b4161281a565b50506001821b610d36565b5060208310610133831016604e8410600b8410161715612b6f575081810a610d36565b612b798383612ab1565b8060001904821115612b8d57612b8d61281a565b029392505050565b6000611db78383612af4565b858152602081018590526001600160a01b0384811660408301528316606082015261010081016123396080830184612899565b6101008101610d36828480516001600160a01b03908116835260208083015182169084015260408083015162ffffff16908401526060808301518216908401526080808301519084015260a0828101519084015260c0808301519084015260e09182015116910152565b60008251612c5081846020870161294e565b919091019291505056fea2646970667358221220a1dd11dbcd7c9bb666e6f97abc5cf57b37115b0c149c5d33f136a00cdb73ee5364736f6c634300081500330000000000000000000000002ea0be86990e8dac0d09e4316bb92086f304622d000000000000000000000000af88d065e77c8cc2239327c5edb3a432268e583100000000000000000000000082fceb07a4d01051519663f6c1c919af21c27845000000000000000000000000547a116a2622876ce1c8d19d41c683c8f7bec5c0000000000000000000000000e592427a0aece92de3edee1f18e0157c05861564",
        "nonce": "0x185",
        "chainId": "0xa4b1"
      },
      "additionalContracts": [],
      "isFixedGasLimit": false
    },
    {
      "hash": "0xe456e14531c86a8d20f6397c246c950e952b48589384a03b984541940a0ae819",
      "transactionType": "CALL",
      "contractName": null,
      "contractAddress": "0x496aB4A155C8fE359Cd28d43650fAFA0A35322Fb",
      "function": "setYieldManager(address)",
      "arguments": [
        "0x64c594139e2E6B22D148255dE5293e81C294A033"
      ],
      "transaction": {
        "from": "0xF9d85965c6A40D0C029471d758850e4b4C0d5b17",
        "to": "0x496aB4A155C8fE359Cd28d43650fAFA0A35322Fb",
        "gas": "0x27259",
        "value": "0x0",
        "input": "0x74ce962c00000000000000000000000064c594139e2e6b22d148255de5293e81c294a033",
        "nonce": "0x186",
        "chainId": "0xa4b1"
      },
      "additionalContracts": [],
      "isFixedGasLimit": false
    },
    {
      "hash": "0xc1358779a9116a49f64e1a515818a993faa10ca856f39fca043f3266bc625ef1",
      "transactionType": "CALL",
      "contractName": null,
      "contractAddress": "0x64c594139e2E6B22D148255dE5293e81C294A033",
      "function": "addHypervisorData(address,address,uint24,bytes,bytes)",
      "arguments": [
        "0x82aF49447D8a07e3bd95BD0d56f35241523fBab1",
        "0x52ee1FFBA696c5E9b0Bc177A9f8a3098420EA691",
        "3000",
        "0x82af49447d8a07e3bd95bd0d56f35241523fbab10001f4af88d065e77c8cc2239327c5edb3a432268e5831",
        "0xaf88d065e77c8cc2239327c5edb3a432268e58310001f482af49447d8a07e3bd95bd0d56f35241523fbab1"
      ],
      "transaction": {
        "from": "0xF9d85965c6A40D0C029471d758850e4b4C0d5b17",
        "to": "0x64c594139e2E6B22D148255dE5293e81C294A033",
        "gas": "0x41c06",
        "value": "0x0",
        "input": "0xcc29a7a500000000000000000000000082af49447d8a07e3bd95bd0d56f35241523fbab100000000000000000000000052ee1ffba696c5e9b0bc177a9f8a3098420ea6910000000000000000000000000000000000000000000000000000000000000bb800000000000000000000000000000000000000000000000000000000000000a00000000000000000000000000000000000000000000000000000000000000100000000000000000000000000000000000000000000000000000000000000002b82af49447d8a07e3bd95bd0d56f35241523fbab10001f4af88d065e77c8cc2239327c5edb3a432268e5831000000000000000000000000000000000000000000000000000000000000000000000000000000000000000000000000000000002baf88d065e77c8cc2239327c5edb3a432268e58310001f482af49447d8a07e3bd95bd0d56f35241523fbab1000000000000000000000000000000000000000000",
        "nonce": "0x187",
        "chainId": "0xa4b1"
      },
      "additionalContracts": [],
      "isFixedGasLimit": false
    },
    {
      "hash": "0x3b1d2910592a3b0fda333799539cca05c9259c9a861130daf096e7ad93cfe231",
      "transactionType": "CALL",
      "contractName": null,
      "contractAddress": "0x64c594139e2E6B22D148255dE5293e81C294A033",
      "function": "addHypervisorData(address,address,uint24,bytes,bytes)",
      "arguments": [
        "0x2f2a2543B76A4166549F7aaB2e75Bef0aefC5B0f",
        "0x52ee1FFBA696c5E9b0Bc177A9f8a3098420EA691",
        "3000",
        "0x2f2a2543b76a4166549f7aab2e75bef0aefc5b0f0001f4af88d065e77c8cc2239327c5edb3a432268e5831",
        "0xaf88d065e77c8cc2239327c5edb3a432268e58310001f42f2a2543b76a4166549f7aab2e75bef0aefc5b0f"
      ],
      "transaction": {
        "from": "0xF9d85965c6A40D0C029471d758850e4b4C0d5b17",
        "to": "0x64c594139e2E6B22D148255dE5293e81C294A033",
        "gas": "0x41e88",
        "value": "0x0",
        "input": "0xcc29a7a50000000000000000000000002f2a2543b76a4166549f7aab2e75bef0aefc5b0f00000000000000000000000052ee1ffba696c5e9b0bc177a9f8a3098420ea6910000000000000000000000000000000000000000000000000000000000000bb800000000000000000000000000000000000000000000000000000000000000a00000000000000000000000000000000000000000000000000000000000000100000000000000000000000000000000000000000000000000000000000000002b2f2a2543b76a4166549f7aab2e75bef0aefc5b0f0001f4af88d065e77c8cc2239327c5edb3a432268e5831000000000000000000000000000000000000000000000000000000000000000000000000000000000000000000000000000000002baf88d065e77c8cc2239327c5edb3a432268e58310001f42f2a2543b76a4166549f7aab2e75bef0aefc5b0f000000000000000000000000000000000000000000",
        "nonce": "0x188",
        "chainId": "0xa4b1"
      },
      "additionalContracts": [],
      "isFixedGasLimit": false
    },
    {
      "hash": "0xc1a6f5e5971551754759953979f5069926441f2331ae84619ae9466d79eb7ec5",
      "transactionType": "CALL",
      "contractName": null,
      "contractAddress": "0x64c594139e2E6B22D148255dE5293e81C294A033",
      "function": "addHypervisorData(address,address,uint24,bytes,bytes)",
      "arguments": [
        "0x912CE59144191C1204E64559FE8253a0e49E6548",
        "0x6B7635b7d2E85188dB41C3c05B1efa87B143fcE8",
        "10000",
        "0x912ce59144191c1204e64559fe8253a0e49e65480001f482af49447d8a07e3bd95bd0d56f35241523fbab10001f4af88d065e77c8cc2239327c5edb3a432268e5831",
        "0xaf88d065e77c8cc2239327c5edb3a432268e58310001f482af49447d8a07e3bd95bd0d56f35241523fbab10001f4912ce59144191c1204e64559fe8253a0e49e6548"
      ],
      "transaction": {
        "from": "0xF9d85965c6A40D0C029471d758850e4b4C0d5b17",
        "to": "0x64c594139e2E6B22D148255dE5293e81C294A033",
        "gas": "0x452c9",
        "value": "0x0",
        "input": "0xcc29a7a5000000000000000000000000912ce59144191c1204e64559fe8253a0e49e65480000000000000000000000006b7635b7d2e85188db41c3c05b1efa87b143fce8000000000000000000000000000000000000000000000000000000000000271000000000000000000000000000000000000000000000000000000000000000a000000000000000000000000000000000000000000000000000000000000001200000000000000000000000000000000000000000000000000000000000000042912ce59144191c1204e64559fe8253a0e49e65480001f482af49447d8a07e3bd95bd0d56f35241523fbab10001f4af88d065e77c8cc2239327c5edb3a432268e58310000000000000000000000000000000000000000000000000000000000000000000000000000000000000000000000000000000000000000000000000042af88d065e77c8cc2239327c5edb3a432268e58310001f482af49447d8a07e3bd95bd0d56f35241523fbab10001f4912ce59144191c1204e64559fe8253a0e49e6548000000000000000000000000000000000000000000000000000000000000",
        "nonce": "0x189",
        "chainId": "0xa4b1"
      },
      "additionalContracts": [],
      "isFixedGasLimit": false
    },
    {
      "hash": "0xfb6c843604fd357f44b5bf378a25885cd25fca6a4f634082420ac6280729bc2b",
      "transactionType": "CALL",
      "contractName": null,
      "contractAddress": "0x64c594139e2E6B22D148255dE5293e81C294A033",
      "function": "addHypervisorData(address,address,uint24,bytes,bytes)",
      "arguments": [
        "0xf97f4df75117a78c1A5a0DBb814Af92458539FB4",
        "0xfA392dbefd2d5ec891eF5aEB87397A89843a8260",
        "3000",
        "0xf97f4df75117a78c1a5a0dbb814af92458539fb4000bb882af49447d8a07e3bd95bd0d56f35241523fbab10001f4af88d065e77c8cc2239327c5edb3a432268e5831",
        "0xaf88d065e77c8cc2239327c5edb3a432268e58310001f482af49447d8a07e3bd95bd0d56f35241523fbab1000bb8f97f4df75117a78c1a5a0dbb814af92458539fb4"
      ],
      "transaction": {
        "from": "0xF9d85965c6A40D0C029471d758850e4b4C0d5b17",
        "to": "0x64c594139e2E6B22D148255dE5293e81C294A033",
        "gas": "0x46eba",
        "value": "0x0",
        "input": "0xcc29a7a5000000000000000000000000f97f4df75117a78c1a5a0dbb814af92458539fb4000000000000000000000000fa392dbefd2d5ec891ef5aeb87397a89843a82600000000000000000000000000000000000000000000000000000000000000bb800000000000000000000000000000000000000000000000000000000000000a000000000000000000000000000000000000000000000000000000000000001200000000000000000000000000000000000000000000000000000000000000042f97f4df75117a78c1a5a0dbb814af92458539fb4000bb882af49447d8a07e3bd95bd0d56f35241523fbab10001f4af88d065e77c8cc2239327c5edb3a432268e58310000000000000000000000000000000000000000000000000000000000000000000000000000000000000000000000000000000000000000000000000042af88d065e77c8cc2239327c5edb3a432268e58310001f482af49447d8a07e3bd95bd0d56f35241523fbab1000bb8f97f4df75117a78c1a5a0dbb814af92458539fb4000000000000000000000000000000000000000000000000000000000000",
        "nonce": "0x18a",
        "chainId": "0xa4b1"
      },
      "additionalContracts": [],
      "isFixedGasLimit": false
    },
    {
      "hash": "0xa123f14d13c84dfb8a4dedbe92805f3fa8fa18f2c5132219f52dad01327b3c6b",
      "transactionType": "CALL",
      "contractName": null,
      "contractAddress": "0x64c594139e2E6B22D148255dE5293e81C294A033",
      "function": "addHypervisorData(address,address,uint24,bytes,bytes)",
      "arguments": [
        "0xfc5A1A6EB076a2C7aD06eD22C90d7E710E35ad0a",
        "0xF08BDBC590C59cb7B27A8D224E419ef058952b5f",
        "3000",
        "0xfc5a1a6eb076a2c7ad06ed22c90d7e710e35ad0a00271082af49447d8a07e3bd95bd0d56f35241523fbab10001f4af88d065e77c8cc2239327c5edb3a432268e5831",
        "0xaf88d065e77c8cc2239327c5edb3a432268e58310001f482af49447d8a07e3bd95bd0d56f35241523fbab1002710fc5a1a6eb076a2c7ad06ed22c90d7e710e35ad0a"
      ],
      "transaction": {
        "from": "0xF9d85965c6A40D0C029471d758850e4b4C0d5b17",
        "to": "0x64c594139e2E6B22D148255dE5293e81C294A033",
        "gas": "0x473be",
        "value": "0x0",
        "input": "0xcc29a7a5000000000000000000000000fc5a1a6eb076a2c7ad06ed22c90d7e710e35ad0a000000000000000000000000f08bdbc590c59cb7b27a8d224e419ef058952b5f0000000000000000000000000000000000000000000000000000000000000bb800000000000000000000000000000000000000000000000000000000000000a000000000000000000000000000000000000000000000000000000000000001200000000000000000000000000000000000000000000000000000000000000042fc5a1a6eb076a2c7ad06ed22c90d7e710e35ad0a00271082af49447d8a07e3bd95bd0d56f35241523fbab10001f4af88d065e77c8cc2239327c5edb3a432268e58310000000000000000000000000000000000000000000000000000000000000000000000000000000000000000000000000000000000000000000000000042af88d065e77c8cc2239327c5edb3a432268e58310001f482af49447d8a07e3bd95bd0d56f35241523fbab1002710fc5a1a6eb076a2c7ad06ed22c90d7e710e35ad0a000000000000000000000000000000000000000000000000000000000000",
        "nonce": "0x18b",
        "chainId": "0xa4b1"
      },
      "additionalContracts": [],
      "isFixedGasLimit": false
    },
    {
      "hash": "0x3991fc3d757cdf7902db3c5346608aad41084c1b81aa74fd5d7e89868c537141",
      "transactionType": "CALL",
      "contractName": null,
      "contractAddress": "0x64c594139e2E6B22D148255dE5293e81C294A033",
      "function": "addHypervisorData(address,address,uint24,bytes,bytes)",
      "arguments": [
        "0x3082CC23568eA640225c2467653dB90e9250AaA0",
        "0x2BCBDD577616357464CFe307Bc67F9e820A66e80",
        "3000",
        "0x3082cc23568ea640225c2467653db90e9250aaa0000bb882af49447d8a07e3bd95bd0d56f35241523fbab10001f4af88d065e77c8cc2239327c5edb3a432268e5831",
        "0xaf88d065e77c8cc2239327c5edb3a432268e58310001f482af49447d8a07e3bd95bd0d56f35241523fbab1000bb83082cc23568ea640225c2467653db90e9250aaa0"
      ],
      "transaction": {
        "from": "0xF9d85965c6A40D0C029471d758850e4b4C0d5b17",
        "to": "0x64c594139e2E6B22D148255dE5293e81C294A033",
        "gas": "0x45f80",
        "value": "0x0",
        "input": "0xcc29a7a50000000000000000000000003082cc23568ea640225c2467653db90e9250aaa00000000000000000000000002bcbdd577616357464cfe307bc67f9e820a66e800000000000000000000000000000000000000000000000000000000000000bb800000000000000000000000000000000000000000000000000000000000000a0000000000000000000000000000000000000000000000000000000000000012000000000000000000000000000000000000000000000000000000000000000423082cc23568ea640225c2467653db90e9250aaa0000bb882af49447d8a07e3bd95bd0d56f35241523fbab10001f4af88d065e77c8cc2239327c5edb3a432268e58310000000000000000000000000000000000000000000000000000000000000000000000000000000000000000000000000000000000000000000000000042af88d065e77c8cc2239327c5edb3a432268e58310001f482af49447d8a07e3bd95bd0d56f35241523fbab1000bb83082cc23568ea640225c2467653db90e9250aaa0000000000000000000000000000000000000000000000000000000000000",
        "nonce": "0x18c",
        "chainId": "0xa4b1"
      },
      "additionalContracts": [],
      "isFixedGasLimit": false
    },
    {
      "hash": "0x0ce2f517bf40fdbd12c955caafefe6d1e51cb1b03d3b547b9afd7f14b25ee449",
      "transactionType": "CALL",
      "contractName": null,
      "contractAddress": "0xE7b538f6deB6314c55118e46b4014Ca496292709",
      "function": "depositYield(bytes32,uint256,uint256,uint256)",
      "arguments": [
        "0x4554480000000000000000000000000000000000000000000000000000000000",
        "75000",
        "30000",
        "1728993487"
      ],
      "transaction": {
        "from": "0xF9d85965c6A40D0C029471d758850e4b4C0d5b17",
        "to": "0xE7b538f6deB6314c55118e46b4014Ca496292709",
        "gas": "0x3d3df6",
        "value": "0x0",
        "input": "0x54947912455448000000000000000000000000000000000000000000000000000000000000000000000000000000000000000000000000000000000000000000000124f8000000000000000000000000000000000000000000000000000000000000753000000000000000000000000000000000000000000000000000000000670e58cf",
        "nonce": "0x18d",
        "chainId": "0xa4b1"
      },
      "additionalContracts": [],
      "isFixedGasLimit": false
    }
  ],
  "receipts": [
    {
      "status": "0x1",
      "cumulativeGasUsed": "0x5e6484",
      "logs": [
        {
          "address": "0x64c594139e2E6B22D148255dE5293e81C294A033",
          "topics": [
            "0x8be0079c531659141344cd1fd0a4f28419497f9722a3daafe3b4186f6b6457e0",
            "0x0000000000000000000000000000000000000000000000000000000000000000",
            "0x000000000000000000000000f9d85965c6a40d0c029471d758850e4b4c0d5b17"
          ],
          "data": "0x",
          "blockHash": "0x87fa8837e8b6d6e532f0240ba8fac9f32f5051ef04f8efdba1d4cc319576e976",
          "blockNumber": "0xfbd04ec",
          "transactionHash": "0xbe3348b1d958818869cbba9fa780f1a50d11f11d6e27d7bbaf17d55d91814212",
          "transactionIndex": "0x5",
          "logIndex": "0xd",
          "removed": false
        }
      ],
      "logsBloom": "0x00000000000000000000000000000000000000008000000000800000000000000000000000000000000000000000000000000000000000000000000000000000000000000000000000000000000000000001000000000000000000000000000000000000020000000000000000000800000000000000100000000000000040400000000000000000000000000000000000000000000000000000000000000000000000800000000000000000000000000000000000000000000000000000000000000000000000000000000000000000000000000000000440000000000020000000000000000000000000000000000000000000000000000000000000000000",
      "type": "0x2",
      "transactionHash": "0xbe3348b1d958818869cbba9fa780f1a50d11f11d6e27d7bbaf17d55d91814212",
      "transactionIndex": "0x5",
      "blockHash": "0x87fa8837e8b6d6e532f0240ba8fac9f32f5051ef04f8efdba1d4cc319576e976",
      "blockNumber": "0xfbd04ec",
      "gasUsed": "0x4de378",
      "effectiveGasPrice": "0x989680",
      "from": "0xF9d85965c6A40D0C029471d758850e4b4C0d5b17",
      "to": null,
      "contractAddress": "0x64c594139e2E6B22D148255dE5293e81C294A033",
      "gasUsedForL1": "0x271a13",
      "l1BlockNumber": "0x13ffc22"
    },
    {
      "status": "0x1",
      "cumulativeGasUsed": "0x39c9f",
      "logs": [],
      "logsBloom": "0x00000000000000000000000000000000000000000000000000000000000000000000000000000000000000000000000000000000000000000000000000000000000000000000000000000000000000000000000000000000000000000000000000000000000000000000000000000000000000000000000000000000000000000000000000000000000000000000000000000000000000000000000000000000000000000000000000000000000000000000000000000000000000000000000000000000000000000000000000000000000000000000000000000000000000000000000000000000000000000000000000000000000000000000000000000000",
      "type": "0x2",
      "transactionHash": "0xe456e14531c86a8d20f6397c246c950e952b48589384a03b984541940a0ae819",
      "transactionIndex": "0x2",
      "blockHash": "0x1a03a2ce62ca55cdf2db97e907a3c0ba3428a9c22bc47f9745620cf41303b8bd",
      "blockNumber": "0xfbd04f2",
      "gasUsed": "0x18a7f",
      "effectiveGasPrice": "0x989680",
      "from": "0xF9d85965c6A40D0C029471d758850e4b4C0d5b17",
      "to": "0x496aB4A155C8fE359Cd28d43650fAFA0A35322Fb",
      "contractAddress": null,
      "gasUsedForL1": "0x10550",
      "l1BlockNumber": "0x13ffc22"
    },
    {
      "status": "0x1",
      "cumulativeGasUsed": "0x156690",
      "logs": [],
      "logsBloom": "0x00000000000000000000000000000000000000000000000000000000000000000000000000000000000000000000000000000000000000000000000000000000000000000000000000000000000000000000000000000000000000000000000000000000000000000000000000000000000000000000000000000000000000000000000000000000000000000000000000000000000000000000000000000000000000000000000000000000000000000000000000000000000000000000000000000000000000000000000000000000000000000000000000000000000000000000000000000000000000000000000000000000000000000000000000000000",
      "type": "0x2",
      "transactionHash": "0xc1358779a9116a49f64e1a515818a993faa10ca856f39fca043f3266bc625ef1",
      "transactionIndex": "0x5",
      "blockHash": "0xe58561f8eeb1a38ecc69e929d160da2e7133f49c233df5b3d472472dc0dbbb40",
      "blockNumber": "0xfbd04f6",
      "gasUsed": "0x4faf1",
      "effectiveGasPrice": "0x989680",
      "from": "0xF9d85965c6A40D0C029471d758850e4b4C0d5b17",
      "to": "0x64c594139e2E6B22D148255dE5293e81C294A033",
      "contractAddress": null,
      "gasUsedForL1": "0x22d78",
      "l1BlockNumber": "0x13ffc22"
    },
    {
      "status": "0x1",
      "cumulativeGasUsed": "0x2266e9",
      "logs": [],
      "logsBloom": "0x00000000000000000000000000000000000000000000000000000000000000000000000000000000000000000000000000000000000000000000000000000000000000000000000000000000000000000000000000000000000000000000000000000000000000000000000000000000000000000000000000000000000000000000000000000000000000000000000000000000000000000000000000000000000000000000000000000000000000000000000000000000000000000000000000000000000000000000000000000000000000000000000000000000000000000000000000000000000000000000000000000000000000000000000000000000",
      "type": "0x2",
      "transactionHash": "0x3b1d2910592a3b0fda333799539cca05c9259c9a861130daf096e7ad93cfe231",
      "transactionIndex": "0x8",
      "blockHash": "0x9e775485f42c96106aa3d3e06002caa5bbb964f373425aeb37d9dec90675d344",
      "blockNumber": "0xfbd04fb",
      "gasUsed": "0x501e9",
      "effectiveGasPrice": "0x989680",
      "from": "0xF9d85965c6A40D0C029471d758850e4b4C0d5b17",
      "to": "0x64c594139e2E6B22D148255dE5293e81C294A033",
      "contractAddress": null,
      "gasUsedForL1": "0x23470",
      "l1BlockNumber": "0x13ffc22"
    },
    {
      "status": "0x1",
      "cumulativeGasUsed": "0x3a9b4c",
      "logs": [],
      "logsBloom": "0x00000000000000000000000000000000000000000000000000000000000000000000000000000000000000000000000000000000000000000000000000000000000000000000000000000000000000000000000000000000000000000000000000000000000000000000000000000000000000000000000000000000000000000000000000000000000000000000000000000000000000000000000000000000000000000000000000000000000000000000000000000000000000000000000000000000000000000000000000000000000000000000000000000000000000000000000000000000000000000000000000000000000000000000000000000000",
      "type": "0x2",
      "transactionHash": "0xc1a6f5e5971551754759953979f5069926441f2331ae84619ae9466d79eb7ec5",
      "transactionIndex": "0x9",
      "blockHash": "0xacb950f12b0b98ac9658aba4ff241effe6ce5b50c7344179fb5e2450e7463625",
      "blockNumber": "0xfbd0505",
      "gasUsed": "0x5598d",
      "effectiveGasPrice": "0x989680",
      "from": "0xF9d85965c6A40D0C029471d758850e4b4C0d5b17",
      "to": "0x64c594139e2E6B22D148255dE5293e81C294A033",
      "contractAddress": null,
      "gasUsedForL1": "0x1db9a",
      "l1BlockNumber": "0x13ffc23"
    },
    {
      "status": "0x1",
      "cumulativeGasUsed": "0x56875",
      "logs": [],
      "logsBloom": "0x00000000000000000000000000000000000000000000000000000000000000000000000000000000000000000000000000000000000000000000000000000000000000000000000000000000000000000000000000000000000000000000000000000000000000000000000000000000000000000000000000000000000000000000000000000000000000000000000000000000000000000000000000000000000000000000000000000000000000000000000000000000000000000000000000000000000000000000000000000000000000000000000000000000000000000000000000000000000000000000000000000000000000000000000000000000",
      "type": "0x2",
      "transactionHash": "0xfb6c843604fd357f44b5bf378a25885cd25fca6a4f634082420ac6280729bc2b",
      "transactionIndex": "0x1",
      "blockHash": "0x6d89d68c4f58372affcb450eaac862d6e471f2170625dee8715deb88a2b35796",
      "blockNumber": "0xfbd050b",
      "gasUsed": "0x56875",
      "effectiveGasPrice": "0x989680",
      "from": "0xF9d85965c6A40D0C029471d758850e4b4C0d5b17",
      "to": "0x64c594139e2E6B22D148255dE5293e81C294A033",
      "contractAddress": null,
      "gasUsedForL1": "0x1ea82",
      "l1BlockNumber": "0x13ffc23"
    },
    {
      "status": "0x1",
      "cumulativeGasUsed": "0x2491ab",
      "logs": [],
      "logsBloom": "0x00000000000000000000000000000000000000000000000000000000000000000000000000000000000000000000000000000000000000000000000000000000000000000000000000000000000000000000000000000000000000000000000000000000000000000000000000000000000000000000000000000000000000000000000000000000000000000000000000000000000000000000000000000000000000000000000000000000000000000000000000000000000000000000000000000000000000000000000000000000000000000000000000000000000000000000000000000000000000000000000000000000000000000000000000000000",
      "type": "0x2",
      "transactionHash": "0xa123f14d13c84dfb8a4dedbe92805f3fa8fa18f2c5132219f52dad01327b3c6b",
      "transactionIndex": "0x3",
      "blockHash": "0x04f6e09eaeb8fe1965c9a56699bb18a038eaec34b577bd418b09f28f41f94011",
      "blockNumber": "0xfbd0511",
      "gasUsed": "0x5734c",
      "effectiveGasPrice": "0x989680",
      "from": "0xF9d85965c6A40D0C029471d758850e4b4C0d5b17",
      "to": "0x64c594139e2E6B22D148255dE5293e81C294A033",
      "contractAddress": null,
      "gasUsedForL1": "0x1f559",
      "l1BlockNumber": "0x13ffc23"
    },
    {
      "status": "0x1",
      "cumulativeGasUsed": "0x9a8b0",
      "logs": [],
      "logsBloom": "0x00000000000000000000000000000000000000000000000000000000000000000000000000000000000000000000000000000000000000000000000000000000000000000000000000000000000000000000000000000000000000000000000000000000000000000000000000000000000000000000000000000000000000000000000000000000000000000000000000000000000000000000000000000000000000000000000000000000000000000000000000000000000000000000000000000000000000000000000000000000000000000000000000000000000000000000000000000000000000000000000000000000000000000000000000000000",
      "type": "0x2",
      "transactionHash": "0x3991fc3d757cdf7902db3c5346608aad41084c1b81aa74fd5d7e89868c537141",
      "transactionIndex": "0x3",
      "blockHash": "0x7de750a27a97ec938466a6547044b9fc9b2838c27bff3f88789532b0a5d2972b",
      "blockNumber": "0xfbd0518",
      "gasUsed": "0x561ae",
      "effectiveGasPrice": "0x989680",
      "from": "0xF9d85965c6A40D0C029471d758850e4b4C0d5b17",
      "to": "0x64c594139e2E6B22D148255dE5293e81C294A033",
      "contractAddress": null,
      "gasUsedForL1": "0x1e3bb",
      "l1BlockNumber": "0x13ffc23"
    },
    {
      "status": "0x1",
      "cumulativeGasUsed": "0x5ccfa0",
      "logs": [
        {
          "address": "0x82aF49447D8a07e3bd95BD0d56f35241523fBab1",
          "topics": [
            "0xddf252ad1be2c89b69c2b068fc378daa952ba7f163c4a11628f55a4df523b3ef",
            "0x0000000000000000000000000000000000000000000000000000000000000000",
            "0x000000000000000000000000e7b538f6deb6314c55118e46b4014ca496292709"
          ],
          "data": "0x000000000000000000000000000000000000000000000000017508f1956a8000",
          "blockHash": "0xd9e63de28661f0233582293a94d19036d7e1ef1865ff85075f9a1eeb7cff1304",
          "blockNumber": "0xfbd051d",
          "transactionHash": "0x0ce2f517bf40fdbd12c955caafefe6d1e51cb1b03d3b547b9afd7f14b25ee449",
          "transactionIndex": "0x3",
          "logIndex": "0x1a",
          "removed": false
        },
        {
          "address": "0x82aF49447D8a07e3bd95BD0d56f35241523fBab1",
          "topics": [
            "0x8c5be1e5ebec7d5bd14f71427d1e84f3dd0314c0f7b2291e5b200ac8c7c3b925",
            "0x000000000000000000000000e7b538f6deb6314c55118e46b4014ca496292709",
            "0x00000000000000000000000064c594139e2e6b22d148255de5293e81c294a033"
          ],
          "data": "0x000000000000000000000000000000000000000000000000017508f1956a8000",
          "blockHash": "0xd9e63de28661f0233582293a94d19036d7e1ef1865ff85075f9a1eeb7cff1304",
          "blockNumber": "0xfbd051d",
          "transactionHash": "0x0ce2f517bf40fdbd12c955caafefe6d1e51cb1b03d3b547b9afd7f14b25ee449",
          "transactionIndex": "0x3",
          "logIndex": "0x1b",
          "removed": false
        },
        {
          "address": "0x82aF49447D8a07e3bd95BD0d56f35241523fBab1",
          "topics": [
            "0xddf252ad1be2c89b69c2b068fc378daa952ba7f163c4a11628f55a4df523b3ef",
            "0x000000000000000000000000e7b538f6deb6314c55118e46b4014ca496292709",
            "0x00000000000000000000000064c594139e2e6b22d148255de5293e81c294a033"
          ],
          "data": "0x000000000000000000000000000000000000000000000000017508f1956a8000",
          "blockHash": "0xd9e63de28661f0233582293a94d19036d7e1ef1865ff85075f9a1eeb7cff1304",
          "blockNumber": "0xfbd051d",
          "transactionHash": "0x0ce2f517bf40fdbd12c955caafefe6d1e51cb1b03d3b547b9afd7f14b25ee449",
          "transactionIndex": "0x3",
          "logIndex": "0x1c",
          "removed": false
        },
        {
          "address": "0x82aF49447D8a07e3bd95BD0d56f35241523fBab1",
          "topics": [
            "0x8c5be1e5ebec7d5bd14f71427d1e84f3dd0314c0f7b2291e5b200ac8c7c3b925",
            "0x000000000000000000000000e7b538f6deb6314c55118e46b4014ca496292709",
            "0x00000000000000000000000064c594139e2e6b22d148255de5293e81c294a033"
          ],
          "data": "0x0000000000000000000000000000000000000000000000000000000000000000",
          "blockHash": "0xd9e63de28661f0233582293a94d19036d7e1ef1865ff85075f9a1eeb7cff1304",
          "blockNumber": "0xfbd051d",
          "transactionHash": "0x0ce2f517bf40fdbd12c955caafefe6d1e51cb1b03d3b547b9afd7f14b25ee449",
          "transactionIndex": "0x3",
          "logIndex": "0x1d",
          "removed": false
        },
        {
          "address": "0x82aF49447D8a07e3bd95BD0d56f35241523fBab1",
          "topics": [
            "0x8c5be1e5ebec7d5bd14f71427d1e84f3dd0314c0f7b2291e5b200ac8c7c3b925",
            "0x00000000000000000000000064c594139e2e6b22d148255de5293e81c294a033",
            "0x000000000000000000000000e592427a0aece92de3edee1f18e0157c05861564"
          ],
          "data": "0x0000000000000000000000000000000000000000000000000117c6b5300fe000",
          "blockHash": "0xd9e63de28661f0233582293a94d19036d7e1ef1865ff85075f9a1eeb7cff1304",
          "blockNumber": "0xfbd051d",
          "transactionHash": "0x0ce2f517bf40fdbd12c955caafefe6d1e51cb1b03d3b547b9afd7f14b25ee449",
          "transactionIndex": "0x3",
          "logIndex": "0x1e",
          "removed": false
        },
        {
          "address": "0xaf88d065e77c8cC2239327C5EDb3A432268e5831",
          "topics": [
            "0xddf252ad1be2c89b69c2b068fc378daa952ba7f163c4a11628f55a4df523b3ef",
            "0x000000000000000000000000c6962004f452be9203591991d15f6b388e09e8d0",
            "0x00000000000000000000000064c594139e2e6b22d148255de5293e81c294a033"
          ],
          "data": "0x000000000000000000000000000000000000000000000000000000000c41c3d2",
          "blockHash": "0xd9e63de28661f0233582293a94d19036d7e1ef1865ff85075f9a1eeb7cff1304",
          "blockNumber": "0xfbd051d",
          "transactionHash": "0x0ce2f517bf40fdbd12c955caafefe6d1e51cb1b03d3b547b9afd7f14b25ee449",
          "transactionIndex": "0x3",
          "logIndex": "0x1f",
          "removed": false
        },
        {
          "address": "0x82aF49447D8a07e3bd95BD0d56f35241523fBab1",
          "topics": [
            "0xddf252ad1be2c89b69c2b068fc378daa952ba7f163c4a11628f55a4df523b3ef",
            "0x00000000000000000000000064c594139e2e6b22d148255de5293e81c294a033",
            "0x000000000000000000000000c6962004f452be9203591991d15f6b388e09e8d0"
          ],
          "data": "0x0000000000000000000000000000000000000000000000000117c6b5300fe000",
          "blockHash": "0xd9e63de28661f0233582293a94d19036d7e1ef1865ff85075f9a1eeb7cff1304",
          "blockNumber": "0xfbd051d",
          "transactionHash": "0x0ce2f517bf40fdbd12c955caafefe6d1e51cb1b03d3b547b9afd7f14b25ee449",
          "transactionIndex": "0x3",
          "logIndex": "0x20",
          "removed": false
        },
        {
          "address": "0x82aF49447D8a07e3bd95BD0d56f35241523fBab1",
          "topics": [
            "0x8c5be1e5ebec7d5bd14f71427d1e84f3dd0314c0f7b2291e5b200ac8c7c3b925",
            "0x00000000000000000000000064c594139e2e6b22d148255de5293e81c294a033",
            "0x000000000000000000000000e592427a0aece92de3edee1f18e0157c05861564"
          ],
          "data": "0x0000000000000000000000000000000000000000000000000000000000000000",
          "blockHash": "0xd9e63de28661f0233582293a94d19036d7e1ef1865ff85075f9a1eeb7cff1304",
          "blockNumber": "0xfbd051d",
          "transactionHash": "0x0ce2f517bf40fdbd12c955caafefe6d1e51cb1b03d3b547b9afd7f14b25ee449",
          "transactionIndex": "0x3",
          "logIndex": "0x21",
          "removed": false
        },
        {
          "address": "0xC6962004f452bE9203591991D15f6b388e09E8D0",
          "topics": [
            "0xc42079f94a6350d7e6235f29174924f928cc2ac818eb64fed8004e115fbcca67",
            "0x000000000000000000000000e592427a0aece92de3edee1f18e0157c05861564",
            "0x00000000000000000000000064c594139e2e6b22d148255de5293e81c294a033"
          ],
          "data": "0x0000000000000000000000000000000000000000000000000117c6b5300fe000fffffffffffffffffffffffffffffffffffffffffffffffffffffffff3be3c2e000000000000000000000000000000000000000000035989acc798fa843585ad0000000000000000000000000000000000000000000000006a60ac2b1b05bc9efffffffffffffffffffffffffffffffffffffffffffffffffffffffffffcfbf8",
          "blockHash": "0xd9e63de28661f0233582293a94d19036d7e1ef1865ff85075f9a1eeb7cff1304",
          "blockNumber": "0xfbd051d",
          "transactionHash": "0x0ce2f517bf40fdbd12c955caafefe6d1e51cb1b03d3b547b9afd7f14b25ee449",
          "transactionIndex": "0x3",
          "logIndex": "0x22",
          "removed": false
        },
        {
          "address": "0x82aF49447D8a07e3bd95BD0d56f35241523fBab1",
          "topics": [
            "0x8c5be1e5ebec7d5bd14f71427d1e84f3dd0314c0f7b2291e5b200ac8c7c3b925",
            "0x00000000000000000000000064c594139e2e6b22d148255de5293e81c294a033",
            "0x000000000000000000000000e592427a0aece92de3edee1f18e0157c05861564"
          ],
          "data": "0x0000000000000000000000000000000000000000000000000000000000000000",
          "blockHash": "0xd9e63de28661f0233582293a94d19036d7e1ef1865ff85075f9a1eeb7cff1304",
          "blockNumber": "0xfbd051d",
          "transactionHash": "0x0ce2f517bf40fdbd12c955caafefe6d1e51cb1b03d3b547b9afd7f14b25ee449",
          "transactionIndex": "0x3",
          "logIndex": "0x23",
          "removed": false
        },
        {
          "address": "0xaf88d065e77c8cC2239327C5EDb3A432268e5831",
          "topics": [
            "0x8c5be1e5ebec7d5bd14f71427d1e84f3dd0314c0f7b2291e5b200ac8c7c3b925",
            "0x00000000000000000000000064c594139e2e6b22d148255de5293e81c294a033",
            "0x000000000000000000000000e592427a0aece92de3edee1f18e0157c05861564"
          ],
          "data": "0x0000000000000000000000000000000000000000000000000000000006233387",
          "blockHash": "0xd9e63de28661f0233582293a94d19036d7e1ef1865ff85075f9a1eeb7cff1304",
          "blockNumber": "0xfbd051d",
          "transactionHash": "0x0ce2f517bf40fdbd12c955caafefe6d1e51cb1b03d3b547b9afd7f14b25ee449",
          "transactionIndex": "0x3",
          "logIndex": "0x24",
          "removed": false
        },
        {
          "address": "0x2Ea0bE86990E8Dac0D09e4316Bb92086F304622d",
          "topics": [
            "0xddf252ad1be2c89b69c2b068fc378daa952ba7f163c4a11628f55a4df523b3ef",
            "0x0000000000000000000000008def4db6697f4885ba4a3f75e9adb3cefcca6d6e",
            "0x00000000000000000000000064c594139e2e6b22d148255de5293e81c294a033"
          ],
          "data": "0x0000000000000000000000000000000000000000000000058fcae8dac4d5046a",
          "blockHash": "0xd9e63de28661f0233582293a94d19036d7e1ef1865ff85075f9a1eeb7cff1304",
          "blockNumber": "0xfbd051d",
          "transactionHash": "0x0ce2f517bf40fdbd12c955caafefe6d1e51cb1b03d3b547b9afd7f14b25ee449",
          "transactionIndex": "0x3",
          "logIndex": "0x25",
          "removed": false
        },
        {
          "address": "0xaf88d065e77c8cC2239327C5EDb3A432268e5831",
          "topics": [
            "0xddf252ad1be2c89b69c2b068fc378daa952ba7f163c4a11628f55a4df523b3ef",
            "0x00000000000000000000000064c594139e2e6b22d148255de5293e81c294a033",
            "0x0000000000000000000000008def4db6697f4885ba4a3f75e9adb3cefcca6d6e"
          ],
          "data": "0x0000000000000000000000000000000000000000000000000000000006233387",
          "blockHash": "0xd9e63de28661f0233582293a94d19036d7e1ef1865ff85075f9a1eeb7cff1304",
          "blockNumber": "0xfbd051d",
          "transactionHash": "0x0ce2f517bf40fdbd12c955caafefe6d1e51cb1b03d3b547b9afd7f14b25ee449",
          "transactionIndex": "0x3",
          "logIndex": "0x26",
          "removed": false
        },
        {
          "address": "0x8DEF4Db6697F4885bA4a3f75e9AdB3cEFCca6D6E",
          "topics": [
            "0xc42079f94a6350d7e6235f29174924f928cc2ac818eb64fed8004e115fbcca67",
            "0x000000000000000000000000e592427a0aece92de3edee1f18e0157c05861564",
            "0x00000000000000000000000064c594139e2e6b22d148255de5293e81c294a033"
          ],
          "data": "0xfffffffffffffffffffffffffffffffffffffffffffffffa703517253b2afb9600000000000000000000000000000000000000000000000000000000062333870000000000000000000000000000000000000000000010c9f17b24a30f414e5700000000000000000000000000000000000000000000000001ecf4f3f878071afffffffffffffffffffffffffffffffffffffffffffffffffffffffffffbc8a9",
          "blockHash": "0xd9e63de28661f0233582293a94d19036d7e1ef1865ff85075f9a1eeb7cff1304",
          "blockNumber": "0xfbd051d",
          "transactionHash": "0x0ce2f517bf40fdbd12c955caafefe6d1e51cb1b03d3b547b9afd7f14b25ee449",
          "transactionIndex": "0x3",
          "logIndex": "0x27",
          "removed": false
        },
        {
          "address": "0xaf88d065e77c8cC2239327C5EDb3A432268e5831",
          "topics": [
            "0x8c5be1e5ebec7d5bd14f71427d1e84f3dd0314c0f7b2291e5b200ac8c7c3b925",
            "0x00000000000000000000000064c594139e2e6b22d148255de5293e81c294a033",
            "0x000000000000000000000000e592427a0aece92de3edee1f18e0157c05861564"
          ],
          "data": "0x0000000000000000000000000000000000000000000000000000000000000000",
          "blockHash": "0xd9e63de28661f0233582293a94d19036d7e1ef1865ff85075f9a1eeb7cff1304",
          "blockNumber": "0xfbd051d",
          "transactionHash": "0x0ce2f517bf40fdbd12c955caafefe6d1e51cb1b03d3b547b9afd7f14b25ee449",
          "transactionIndex": "0x3",
          "logIndex": "0x28",
          "removed": false
        },
        {
          "address": "0x2Ea0bE86990E8Dac0D09e4316Bb92086F304622d",
          "topics": [
            "0x8c5be1e5ebec7d5bd14f71427d1e84f3dd0314c0f7b2291e5b200ac8c7c3b925",
            "0x00000000000000000000000064c594139e2e6b22d148255de5293e81c294a033",
            "0x000000000000000000000000e592427a0aece92de3edee1f18e0157c05861564"
          ],
          "data": "0x0000000000000000000000000000000000000000000000058fcae8dac4d5046a",
          "blockHash": "0xd9e63de28661f0233582293a94d19036d7e1ef1865ff85075f9a1eeb7cff1304",
          "blockNumber": "0xfbd051d",
          "transactionHash": "0x0ce2f517bf40fdbd12c955caafefe6d1e51cb1b03d3b547b9afd7f14b25ee449",
          "transactionIndex": "0x3",
          "logIndex": "0x29",
          "removed": false
        },
        {
          "address": "0xaf88d065e77c8cC2239327C5EDb3A432268e5831",
          "topics": [
            "0xddf252ad1be2c89b69c2b068fc378daa952ba7f163c4a11628f55a4df523b3ef",
            "0x0000000000000000000000008def4db6697f4885ba4a3f75e9adb3cefcca6d6e",
            "0x00000000000000000000000064c594139e2e6b22d148255de5293e81c294a033"
          ],
          "data": "0x0000000000000000000000000000000000000000000000000000000000f42e9e",
          "blockHash": "0xd9e63de28661f0233582293a94d19036d7e1ef1865ff85075f9a1eeb7cff1304",
          "blockNumber": "0xfbd051d",
          "transactionHash": "0x0ce2f517bf40fdbd12c955caafefe6d1e51cb1b03d3b547b9afd7f14b25ee449",
          "transactionIndex": "0x3",
          "logIndex": "0x2a",
          "removed": false
        },
        {
          "address": "0x2Ea0bE86990E8Dac0D09e4316Bb92086F304622d",
          "topics": [
            "0x8c5be1e5ebec7d5bd14f71427d1e84f3dd0314c0f7b2291e5b200ac8c7c3b925",
            "0x00000000000000000000000064c594139e2e6b22d148255de5293e81c294a033",
            "0x000000000000000000000000e592427a0aece92de3edee1f18e0157c05861564"
          ],
          "data": "0x000000000000000000000000000000000000000000000004b15323f41d44c668",
          "blockHash": "0xd9e63de28661f0233582293a94d19036d7e1ef1865ff85075f9a1eeb7cff1304",
          "blockNumber": "0xfbd051d",
          "transactionHash": "0x0ce2f517bf40fdbd12c955caafefe6d1e51cb1b03d3b547b9afd7f14b25ee449",
          "transactionIndex": "0x3",
          "logIndex": "0x2b",
          "removed": false
        },
        {
          "address": "0x2Ea0bE86990E8Dac0D09e4316Bb92086F304622d",
          "topics": [
            "0xddf252ad1be2c89b69c2b068fc378daa952ba7f163c4a11628f55a4df523b3ef",
            "0x00000000000000000000000064c594139e2e6b22d148255de5293e81c294a033",
            "0x0000000000000000000000008def4db6697f4885ba4a3f75e9adb3cefcca6d6e"
          ],
          "data": "0x000000000000000000000000000000000000000000000000de77c4e6a7903e02",
          "blockHash": "0xd9e63de28661f0233582293a94d19036d7e1ef1865ff85075f9a1eeb7cff1304",
          "blockNumber": "0xfbd051d",
          "transactionHash": "0x0ce2f517bf40fdbd12c955caafefe6d1e51cb1b03d3b547b9afd7f14b25ee449",
          "transactionIndex": "0x3",
          "logIndex": "0x2c",
          "removed": false
        },
        {
          "address": "0x8DEF4Db6697F4885bA4a3f75e9AdB3cEFCca6D6E",
          "topics": [
            "0xc42079f94a6350d7e6235f29174924f928cc2ac818eb64fed8004e115fbcca67",
            "0x000000000000000000000000e592427a0aece92de3edee1f18e0157c05861564",
            "0x00000000000000000000000064c594139e2e6b22d148255de5293e81c294a033"
          ],
          "data": "0x000000000000000000000000000000000000000000000000de77c4e6a7903e02ffffffffffffffffffffffffffffffffffffffffffffffffffffffffff0bd1620000000000000000000000000000000000000000000010c972ac6d6ad388b30a00000000000000000000000000000000000000000000000001ecf4f3f878071afffffffffffffffffffffffffffffffffffffffffffffffffffffffffffbc8a7",
          "blockHash": "0xd9e63de28661f0233582293a94d19036d7e1ef1865ff85075f9a1eeb7cff1304",
          "blockNumber": "0xfbd051d",
          "transactionHash": "0x0ce2f517bf40fdbd12c955caafefe6d1e51cb1b03d3b547b9afd7f14b25ee449",
          "transactionIndex": "0x3",
          "logIndex": "0x2d",
          "removed": false
        },
        {
          "address": "0x2Ea0bE86990E8Dac0D09e4316Bb92086F304622d",
          "topics": [
            "0x8c5be1e5ebec7d5bd14f71427d1e84f3dd0314c0f7b2291e5b200ac8c7c3b925",
            "0x00000000000000000000000064c594139e2e6b22d148255de5293e81c294a033",
            "0x000000000000000000000000e592427a0aece92de3edee1f18e0157c05861564"
          ],
          "data": "0x0000000000000000000000000000000000000000000000000000000000000000",
          "blockHash": "0xd9e63de28661f0233582293a94d19036d7e1ef1865ff85075f9a1eeb7cff1304",
          "blockNumber": "0xfbd051d",
          "transactionHash": "0x0ce2f517bf40fdbd12c955caafefe6d1e51cb1b03d3b547b9afd7f14b25ee449",
          "transactionIndex": "0x3",
          "logIndex": "0x2e",
          "removed": false
        },
        {
          "address": "0xaf88d065e77c8cC2239327C5EDb3A432268e5831",
          "topics": [
            "0x8c5be1e5ebec7d5bd14f71427d1e84f3dd0314c0f7b2291e5b200ac8c7c3b925",
            "0x00000000000000000000000064c594139e2e6b22d148255de5293e81c294a033",
            "0x000000000000000000000000e592427a0aece92de3edee1f18e0157c05861564"
          ],
          "data": "0x000000000000000000000000000000000000000000000000000000000026c8b7",
          "blockHash": "0xd9e63de28661f0233582293a94d19036d7e1ef1865ff85075f9a1eeb7cff1304",
          "blockNumber": "0xfbd051d",
          "transactionHash": "0x0ce2f517bf40fdbd12c955caafefe6d1e51cb1b03d3b547b9afd7f14b25ee449",
          "transactionIndex": "0x3",
          "logIndex": "0x2f",
          "removed": false
        },
        {
          "address": "0x2Ea0bE86990E8Dac0D09e4316Bb92086F304622d",
          "topics": [
            "0xddf252ad1be2c89b69c2b068fc378daa952ba7f163c4a11628f55a4df523b3ef",
            "0x0000000000000000000000008def4db6697f4885ba4a3f75e9adb3cefcca6d6e",
            "0x00000000000000000000000064c594139e2e6b22d148255de5293e81c294a033"
          ],
          "data": "0x000000000000000000000000000000000000000000000000232077351a8a6efb",
          "blockHash": "0xd9e63de28661f0233582293a94d19036d7e1ef1865ff85075f9a1eeb7cff1304",
          "blockNumber": "0xfbd051d",
          "transactionHash": "0x0ce2f517bf40fdbd12c955caafefe6d1e51cb1b03d3b547b9afd7f14b25ee449",
          "transactionIndex": "0x3",
          "logIndex": "0x30",
          "removed": false
        },
        {
          "address": "0xaf88d065e77c8cC2239327C5EDb3A432268e5831",
          "topics": [
            "0xddf252ad1be2c89b69c2b068fc378daa952ba7f163c4a11628f55a4df523b3ef",
            "0x00000000000000000000000064c594139e2e6b22d148255de5293e81c294a033",
            "0x0000000000000000000000008def4db6697f4885ba4a3f75e9adb3cefcca6d6e"
          ],
          "data": "0x000000000000000000000000000000000000000000000000000000000026c8b7",
          "blockHash": "0xd9e63de28661f0233582293a94d19036d7e1ef1865ff85075f9a1eeb7cff1304",
          "blockNumber": "0xfbd051d",
          "transactionHash": "0x0ce2f517bf40fdbd12c955caafefe6d1e51cb1b03d3b547b9afd7f14b25ee449",
          "transactionIndex": "0x3",
          "logIndex": "0x31",
          "removed": false
        },
        {
          "address": "0x8DEF4Db6697F4885bA4a3f75e9AdB3cEFCca6D6E",
          "topics": [
            "0xc42079f94a6350d7e6235f29174924f928cc2ac818eb64fed8004e115fbcca67",
            "0x000000000000000000000000e592427a0aece92de3edee1f18e0157c05861564",
            "0x00000000000000000000000064c594139e2e6b22d148255de5293e81c294a033"
          ],
          "data": "0xffffffffffffffffffffffffffffffffffffffffffffffffdcdf88cae5759105000000000000000000000000000000000000000000000000000000000026c8b70000000000000000000000000000000000000000000010c986c117218842481100000000000000000000000000000000000000000000000001ecf4f3f878071afffffffffffffffffffffffffffffffffffffffffffffffffffffffffffbc8a7",
          "blockHash": "0xd9e63de28661f0233582293a94d19036d7e1ef1865ff85075f9a1eeb7cff1304",
          "blockNumber": "0xfbd051d",
          "transactionHash": "0x0ce2f517bf40fdbd12c955caafefe6d1e51cb1b03d3b547b9afd7f14b25ee449",
          "transactionIndex": "0x3",
          "logIndex": "0x32",
          "removed": false
        },
        {
          "address": "0xaf88d065e77c8cC2239327C5EDb3A432268e5831",
          "topics": [
            "0x8c5be1e5ebec7d5bd14f71427d1e84f3dd0314c0f7b2291e5b200ac8c7c3b925",
            "0x00000000000000000000000064c594139e2e6b22d148255de5293e81c294a033",
            "0x000000000000000000000000e592427a0aece92de3edee1f18e0157c05861564"
          ],
          "data": "0x0000000000000000000000000000000000000000000000000000000000000000",
          "blockHash": "0xd9e63de28661f0233582293a94d19036d7e1ef1865ff85075f9a1eeb7cff1304",
          "blockNumber": "0xfbd051d",
          "transactionHash": "0x0ce2f517bf40fdbd12c955caafefe6d1e51cb1b03d3b547b9afd7f14b25ee449",
          "transactionIndex": "0x3",
          "logIndex": "0x33",
          "removed": false
        },
        {
          "address": "0x2Ea0bE86990E8Dac0D09e4316Bb92086F304622d",
          "topics": [
            "0x8c5be1e5ebec7d5bd14f71427d1e84f3dd0314c0f7b2291e5b200ac8c7c3b925",
            "0x00000000000000000000000064c594139e2e6b22d148255de5293e81c294a033",
            "0x000000000000000000000000e592427a0aece92de3edee1f18e0157c05861564"
          ],
          "data": "0x000000000000000000000000000000000000000000000004d4739b2937cf3563",
          "blockHash": "0xd9e63de28661f0233582293a94d19036d7e1ef1865ff85075f9a1eeb7cff1304",
          "blockNumber": "0xfbd051d",
          "transactionHash": "0x0ce2f517bf40fdbd12c955caafefe6d1e51cb1b03d3b547b9afd7f14b25ee449",
          "transactionIndex": "0x3",
          "logIndex": "0x34",
          "removed": false
        },
        {
          "address": "0xaf88d065e77c8cC2239327C5EDb3A432268e5831",
          "topics": [
            "0xddf252ad1be2c89b69c2b068fc378daa952ba7f163c4a11628f55a4df523b3ef",
            "0x0000000000000000000000008def4db6697f4885ba4a3f75e9adb3cefcca6d6e",
            "0x00000000000000000000000064c594139e2e6b22d148255de5293e81c294a033"
          ],
          "data": "0x0000000000000000000000000000000000000000000000000000000000060302",
          "blockHash": "0xd9e63de28661f0233582293a94d19036d7e1ef1865ff85075f9a1eeb7cff1304",
          "blockNumber": "0xfbd051d",
          "transactionHash": "0x0ce2f517bf40fdbd12c955caafefe6d1e51cb1b03d3b547b9afd7f14b25ee449",
          "transactionIndex": "0x3",
          "logIndex": "0x35",
          "removed": false
        },
        {
          "address": "0x2Ea0bE86990E8Dac0D09e4316Bb92086F304622d",
          "topics": [
            "0x8c5be1e5ebec7d5bd14f71427d1e84f3dd0314c0f7b2291e5b200ac8c7c3b925",
            "0x00000000000000000000000064c594139e2e6b22d148255de5293e81c294a033",
            "0x000000000000000000000000e592427a0aece92de3edee1f18e0157c05861564"
          ],
          "data": "0x000000000000000000000000000000000000000000000004cef957a77a9696f6",
          "blockHash": "0xd9e63de28661f0233582293a94d19036d7e1ef1865ff85075f9a1eeb7cff1304",
          "blockNumber": "0xfbd051d",
          "transactionHash": "0x0ce2f517bf40fdbd12c955caafefe6d1e51cb1b03d3b547b9afd7f14b25ee449",
          "transactionIndex": "0x3",
          "logIndex": "0x36",
          "removed": false
        },
        {
          "address": "0x2Ea0bE86990E8Dac0D09e4316Bb92086F304622d",
          "topics": [
            "0xddf252ad1be2c89b69c2b068fc378daa952ba7f163c4a11628f55a4df523b3ef",
            "0x00000000000000000000000064c594139e2e6b22d148255de5293e81c294a033",
            "0x0000000000000000000000008def4db6697f4885ba4a3f75e9adb3cefcca6d6e"
          ],
          "data": "0x000000000000000000000000000000000000000000000000057a4381bd389e6d",
          "blockHash": "0xd9e63de28661f0233582293a94d19036d7e1ef1865ff85075f9a1eeb7cff1304",
          "blockNumber": "0xfbd051d",
          "transactionHash": "0x0ce2f517bf40fdbd12c955caafefe6d1e51cb1b03d3b547b9afd7f14b25ee449",
          "transactionIndex": "0x3",
          "logIndex": "0x37",
          "removed": false
        },
        {
          "address": "0x8DEF4Db6697F4885bA4a3f75e9AdB3cEFCca6D6E",
          "topics": [
            "0xc42079f94a6350d7e6235f29174924f928cc2ac818eb64fed8004e115fbcca67",
            "0x000000000000000000000000e592427a0aece92de3edee1f18e0157c05861564",
            "0x00000000000000000000000064c594139e2e6b22d148255de5293e81c294a033"
          ],
          "data": "0x000000000000000000000000000000000000000000000000057a4381bd389e6dfffffffffffffffffffffffffffffffffffffffffffffffffffffffffff9fcfe0000000000000000000000000000000000000000000010c983a1dc33244a491b00000000000000000000000000000000000000000000000001ecf4f3f878071afffffffffffffffffffffffffffffffffffffffffffffffffffffffffffbc8a7",
          "blockHash": "0xd9e63de28661f0233582293a94d19036d7e1ef1865ff85075f9a1eeb7cff1304",
          "blockNumber": "0xfbd051d",
          "transactionHash": "0x0ce2f517bf40fdbd12c955caafefe6d1e51cb1b03d3b547b9afd7f14b25ee449",
          "transactionIndex": "0x3",
          "logIndex": "0x38",
          "removed": false
        },
        {
          "address": "0x2Ea0bE86990E8Dac0D09e4316Bb92086F304622d",
          "topics": [
            "0x8c5be1e5ebec7d5bd14f71427d1e84f3dd0314c0f7b2291e5b200ac8c7c3b925",
            "0x00000000000000000000000064c594139e2e6b22d148255de5293e81c294a033",
            "0x000000000000000000000000e592427a0aece92de3edee1f18e0157c05861564"
          ],
          "data": "0x0000000000000000000000000000000000000000000000000000000000000000",
          "blockHash": "0xd9e63de28661f0233582293a94d19036d7e1ef1865ff85075f9a1eeb7cff1304",
          "blockNumber": "0xfbd051d",
          "transactionHash": "0x0ce2f517bf40fdbd12c955caafefe6d1e51cb1b03d3b547b9afd7f14b25ee449",
          "transactionIndex": "0x3",
          "logIndex": "0x39",
          "removed": false
        },
        {
          "address": "0xaf88d065e77c8cC2239327C5EDb3A432268e5831",
          "topics": [
            "0x8c5be1e5ebec7d5bd14f71427d1e84f3dd0314c0f7b2291e5b200ac8c7c3b925",
            "0x00000000000000000000000064c594139e2e6b22d148255de5293e81c294a033",
            "0x000000000000000000000000e592427a0aece92de3edee1f18e0157c05861564"
          ],
          "data": "0x000000000000000000000000000000000000000000000000000000000000f4a0",
          "blockHash": "0xd9e63de28661f0233582293a94d19036d7e1ef1865ff85075f9a1eeb7cff1304",
          "blockNumber": "0xfbd051d",
          "transactionHash": "0x0ce2f517bf40fdbd12c955caafefe6d1e51cb1b03d3b547b9afd7f14b25ee449",
          "transactionIndex": "0x3",
          "logIndex": "0x3a",
          "removed": false
        },
        {
          "address": "0x2Ea0bE86990E8Dac0D09e4316Bb92086F304622d",
          "topics": [
            "0xddf252ad1be2c89b69c2b068fc378daa952ba7f163c4a11628f55a4df523b3ef",
            "0x0000000000000000000000008def4db6697f4885ba4a3f75e9adb3cefcca6d6e",
            "0x00000000000000000000000064c594139e2e6b22d148255de5293e81c294a033"
          ],
          "data": "0x00000000000000000000000000000000000000000000000000dd8de61e4e5acf",
          "blockHash": "0xd9e63de28661f0233582293a94d19036d7e1ef1865ff85075f9a1eeb7cff1304",
          "blockNumber": "0xfbd051d",
          "transactionHash": "0x0ce2f517bf40fdbd12c955caafefe6d1e51cb1b03d3b547b9afd7f14b25ee449",
          "transactionIndex": "0x3",
          "logIndex": "0x3b",
          "removed": false
        },
        {
          "address": "0xaf88d065e77c8cC2239327C5EDb3A432268e5831",
          "topics": [
            "0xddf252ad1be2c89b69c2b068fc378daa952ba7f163c4a11628f55a4df523b3ef",
            "0x00000000000000000000000064c594139e2e6b22d148255de5293e81c294a033",
            "0x0000000000000000000000008def4db6697f4885ba4a3f75e9adb3cefcca6d6e"
          ],
          "data": "0x000000000000000000000000000000000000000000000000000000000000f4a0",
          "blockHash": "0xd9e63de28661f0233582293a94d19036d7e1ef1865ff85075f9a1eeb7cff1304",
          "blockNumber": "0xfbd051d",
          "transactionHash": "0x0ce2f517bf40fdbd12c955caafefe6d1e51cb1b03d3b547b9afd7f14b25ee449",
          "transactionIndex": "0x3",
          "logIndex": "0x3c",
          "removed": false
        },
        {
          "address": "0x8DEF4Db6697F4885bA4a3f75e9AdB3cEFCca6D6E",
          "topics": [
            "0xc42079f94a6350d7e6235f29174924f928cc2ac818eb64fed8004e115fbcca67",
            "0x000000000000000000000000e592427a0aece92de3edee1f18e0157c05861564",
            "0x00000000000000000000000064c594139e2e6b22d148255de5293e81c294a033"
          ],
          "data": "0xffffffffffffffffffffffffffffffffffffffffffffffffff227219e1b1a531000000000000000000000000000000000000000000000000000000000000f4a00000000000000000000000000000000000000000000010c98420842a66df7af600000000000000000000000000000000000000000000000001ecf4f3f878071afffffffffffffffffffffffffffffffffffffffffffffffffffffffffffbc8a7",
          "blockHash": "0xd9e63de28661f0233582293a94d19036d7e1ef1865ff85075f9a1eeb7cff1304",
          "blockNumber": "0xfbd051d",
          "transactionHash": "0x0ce2f517bf40fdbd12c955caafefe6d1e51cb1b03d3b547b9afd7f14b25ee449",
          "transactionIndex": "0x3",
          "logIndex": "0x3d",
          "removed": false
        },
        {
          "address": "0xaf88d065e77c8cC2239327C5EDb3A432268e5831",
          "topics": [
            "0x8c5be1e5ebec7d5bd14f71427d1e84f3dd0314c0f7b2291e5b200ac8c7c3b925",
            "0x00000000000000000000000064c594139e2e6b22d148255de5293e81c294a033",
            "0x000000000000000000000000e592427a0aece92de3edee1f18e0157c05861564"
          ],
          "data": "0x0000000000000000000000000000000000000000000000000000000000000000",
          "blockHash": "0xd9e63de28661f0233582293a94d19036d7e1ef1865ff85075f9a1eeb7cff1304",
          "blockNumber": "0xfbd051d",
          "transactionHash": "0x0ce2f517bf40fdbd12c955caafefe6d1e51cb1b03d3b547b9afd7f14b25ee449",
          "transactionIndex": "0x3",
          "logIndex": "0x3e",
          "removed": false
        },
        {
          "address": "0x2Ea0bE86990E8Dac0D09e4316Bb92086F304622d",
          "topics": [
            "0x8c5be1e5ebec7d5bd14f71427d1e84f3dd0314c0f7b2291e5b200ac8c7c3b925",
            "0x00000000000000000000000064c594139e2e6b22d148255de5293e81c294a033",
            "0x000000000000000000000000e592427a0aece92de3edee1f18e0157c05861564"
          ],
          "data": "0x000000000000000000000000000000000000000000000004cfd6e58d98e4f1c5",
          "blockHash": "0xd9e63de28661f0233582293a94d19036d7e1ef1865ff85075f9a1eeb7cff1304",
          "blockNumber": "0xfbd051d",
          "transactionHash": "0x0ce2f517bf40fdbd12c955caafefe6d1e51cb1b03d3b547b9afd7f14b25ee449",
          "transactionIndex": "0x3",
          "logIndex": "0x3f",
          "removed": false
        },
        {
          "address": "0xaf88d065e77c8cC2239327C5EDb3A432268e5831",
          "topics": [
            "0xddf252ad1be2c89b69c2b068fc378daa952ba7f163c4a11628f55a4df523b3ef",
            "0x0000000000000000000000008def4db6697f4885ba4a3f75e9adb3cefcca6d6e",
            "0x00000000000000000000000064c594139e2e6b22d148255de5293e81c294a033"
          ],
          "data": "0x0000000000000000000000000000000000000000000000000000000000002535",
          "blockHash": "0xd9e63de28661f0233582293a94d19036d7e1ef1865ff85075f9a1eeb7cff1304",
          "blockNumber": "0xfbd051d",
          "transactionHash": "0x0ce2f517bf40fdbd12c955caafefe6d1e51cb1b03d3b547b9afd7f14b25ee449",
          "transactionIndex": "0x3",
          "logIndex": "0x40",
          "removed": false
        },
        {
          "address": "0x2Ea0bE86990E8Dac0D09e4316Bb92086F304622d",
          "topics": [
            "0x8c5be1e5ebec7d5bd14f71427d1e84f3dd0314c0f7b2291e5b200ac8c7c3b925",
            "0x00000000000000000000000064c594139e2e6b22d148255de5293e81c294a033",
            "0x000000000000000000000000e592427a0aece92de3edee1f18e0157c05861564"
          ],
          "data": "0x000000000000000000000000000000000000000000000004cfb4feda28c2ef06",
          "blockHash": "0xd9e63de28661f0233582293a94d19036d7e1ef1865ff85075f9a1eeb7cff1304",
          "blockNumber": "0xfbd051d",
          "transactionHash": "0x0ce2f517bf40fdbd12c955caafefe6d1e51cb1b03d3b547b9afd7f14b25ee449",
          "transactionIndex": "0x3",
          "logIndex": "0x41",
          "removed": false
        },
        {
          "address": "0x2Ea0bE86990E8Dac0D09e4316Bb92086F304622d",
          "topics": [
            "0xddf252ad1be2c89b69c2b068fc378daa952ba7f163c4a11628f55a4df523b3ef",
            "0x00000000000000000000000064c594139e2e6b22d148255de5293e81c294a033",
            "0x0000000000000000000000008def4db6697f4885ba4a3f75e9adb3cefcca6d6e"
          ],
          "data": "0x0000000000000000000000000000000000000000000000000021e6b3702202bf",
          "blockHash": "0xd9e63de28661f0233582293a94d19036d7e1ef1865ff85075f9a1eeb7cff1304",
          "blockNumber": "0xfbd051d",
          "transactionHash": "0x0ce2f517bf40fdbd12c955caafefe6d1e51cb1b03d3b547b9afd7f14b25ee449",
          "transactionIndex": "0x3",
          "logIndex": "0x42",
          "removed": false
        },
        {
          "address": "0x8DEF4Db6697F4885bA4a3f75e9AdB3cEFCca6D6E",
          "topics": [
            "0xc42079f94a6350d7e6235f29174924f928cc2ac818eb64fed8004e115fbcca67",
            "0x000000000000000000000000e592427a0aece92de3edee1f18e0157c05861564",
            "0x00000000000000000000000064c594139e2e6b22d148255de5293e81c294a033"
          ],
          "data": "0x0000000000000000000000000000000000000000000000000021e6b3702202bfffffffffffffffffffffffffffffffffffffffffffffffffffffffffffffdacb0000000000000000000000000000000000000000000010c9840d31b02387a64a00000000000000000000000000000000000000000000000001ecf4f3f878071afffffffffffffffffffffffffffffffffffffffffffffffffffffffffffbc8a7",
          "blockHash": "0xd9e63de28661f0233582293a94d19036d7e1ef1865ff85075f9a1eeb7cff1304",
          "blockNumber": "0xfbd051d",
          "transactionHash": "0x0ce2f517bf40fdbd12c955caafefe6d1e51cb1b03d3b547b9afd7f14b25ee449",
          "transactionIndex": "0x3",
          "logIndex": "0x43",
          "removed": false
        },
        {
          "address": "0x2Ea0bE86990E8Dac0D09e4316Bb92086F304622d",
          "topics": [
            "0x8c5be1e5ebec7d5bd14f71427d1e84f3dd0314c0f7b2291e5b200ac8c7c3b925",
            "0x00000000000000000000000064c594139e2e6b22d148255de5293e81c294a033",
            "0x000000000000000000000000e592427a0aece92de3edee1f18e0157c05861564"
          ],
          "data": "0x0000000000000000000000000000000000000000000000000000000000000000",
          "blockHash": "0xd9e63de28661f0233582293a94d19036d7e1ef1865ff85075f9a1eeb7cff1304",
          "blockNumber": "0xfbd051d",
          "transactionHash": "0x0ce2f517bf40fdbd12c955caafefe6d1e51cb1b03d3b547b9afd7f14b25ee449",
          "transactionIndex": "0x3",
          "logIndex": "0x44",
          "removed": false
        },
        {
          "address": "0x2Ea0bE86990E8Dac0D09e4316Bb92086F304622d",
          "topics": [
            "0x8c5be1e5ebec7d5bd14f71427d1e84f3dd0314c0f7b2291e5b200ac8c7c3b925",
            "0x00000000000000000000000064c594139e2e6b22d148255de5293e81c294a033",
            "0x000000000000000000000000547a116a2622876ce1c8d19d41c683c8f7bec5c0"
          ],
          "data": "0x000000000000000000000000000000000000000000000004cfb4feda28c2ef06",
          "blockHash": "0xd9e63de28661f0233582293a94d19036d7e1ef1865ff85075f9a1eeb7cff1304",
          "blockNumber": "0xfbd051d",
          "transactionHash": "0x0ce2f517bf40fdbd12c955caafefe6d1e51cb1b03d3b547b9afd7f14b25ee449",
          "transactionIndex": "0x3",
          "logIndex": "0x45",
          "removed": false
        },
        {
          "address": "0xaf88d065e77c8cC2239327C5EDb3A432268e5831",
          "topics": [
            "0x8c5be1e5ebec7d5bd14f71427d1e84f3dd0314c0f7b2291e5b200ac8c7c3b925",
            "0x00000000000000000000000064c594139e2e6b22d148255de5293e81c294a033",
            "0x000000000000000000000000547a116a2622876ce1c8d19d41c683c8f7bec5c0"
          ],
          "data": "0x0000000000000000000000000000000000000000000000000000000006f129c9",
          "blockHash": "0xd9e63de28661f0233582293a94d19036d7e1ef1865ff85075f9a1eeb7cff1304",
          "blockNumber": "0xfbd051d",
          "transactionHash": "0x0ce2f517bf40fdbd12c955caafefe6d1e51cb1b03d3b547b9afd7f14b25ee449",
          "transactionIndex": "0x3",
          "logIndex": "0x46",
          "removed": false
        },
        {
          "address": "0x8DEF4Db6697F4885bA4a3f75e9AdB3cEFCca6D6E",
          "topics": [
            "0x0c396cd989a39f4459b5fa1aed6a9a8dcdbc45908acfd67e028cd568da98982c",
            "0x000000000000000000000000547a116a2622876ce1c8d19d41c683c8f7bec5c0",
            "0xfffffffffffffffffffffffffffffffffffffffffffffffffffffffffffbc83c",
            "0xfffffffffffffffffffffffffffffffffffffffffffffffffffffffffffbc8f0"
          ],
          "data": "0x000000000000000000000000000000000000000000000000000000000000000000000000000000000000000000000000000000000000000000000000000000000000000000000000000000000000000000000000000000000000000000000000",
          "blockHash": "0xd9e63de28661f0233582293a94d19036d7e1ef1865ff85075f9a1eeb7cff1304",
          "blockNumber": "0xfbd051d",
          "transactionHash": "0x0ce2f517bf40fdbd12c955caafefe6d1e51cb1b03d3b547b9afd7f14b25ee449",
          "transactionIndex": "0x3",
          "logIndex": "0x47",
          "removed": false
        },
        {
          "address": "0x2Ea0bE86990E8Dac0D09e4316Bb92086F304622d",
          "topics": [
            "0xddf252ad1be2c89b69c2b068fc378daa952ba7f163c4a11628f55a4df523b3ef",
            "0x0000000000000000000000008def4db6697f4885ba4a3f75e9adb3cefcca6d6e",
            "0x000000000000000000000000547a116a2622876ce1c8d19d41c683c8f7bec5c0"
          ],
          "data": "0x0000000000000000000000000000000000000000000000000000077fe46399da",
          "blockHash": "0xd9e63de28661f0233582293a94d19036d7e1ef1865ff85075f9a1eeb7cff1304",
          "blockNumber": "0xfbd051d",
          "transactionHash": "0x0ce2f517bf40fdbd12c955caafefe6d1e51cb1b03d3b547b9afd7f14b25ee449",
          "transactionIndex": "0x3",
          "logIndex": "0x48",
          "removed": false
        },
        {
          "address": "0xaf88d065e77c8cC2239327C5EDb3A432268e5831",
          "topics": [
            "0xddf252ad1be2c89b69c2b068fc378daa952ba7f163c4a11628f55a4df523b3ef",
            "0x0000000000000000000000008def4db6697f4885ba4a3f75e9adb3cefcca6d6e",
            "0x000000000000000000000000547a116a2622876ce1c8d19d41c683c8f7bec5c0"
          ],
          "data": "0x0000000000000000000000000000000000000000000000000000000000000034",
          "blockHash": "0xd9e63de28661f0233582293a94d19036d7e1ef1865ff85075f9a1eeb7cff1304",
          "blockNumber": "0xfbd051d",
          "transactionHash": "0x0ce2f517bf40fdbd12c955caafefe6d1e51cb1b03d3b547b9afd7f14b25ee449",
          "transactionIndex": "0x3",
          "logIndex": "0x49",
          "removed": false
        },
        {
          "address": "0x8DEF4Db6697F4885bA4a3f75e9AdB3cEFCca6D6E",
          "topics": [
            "0x70935338e69775456a85ddef226c395fb668b63fa0115f5f20610b388e6ca9c0",
            "0x000000000000000000000000547a116a2622876ce1c8d19d41c683c8f7bec5c0",
            "0xfffffffffffffffffffffffffffffffffffffffffffffffffffffffffffbc83c",
            "0xfffffffffffffffffffffffffffffffffffffffffffffffffffffffffffbc8f0"
          ],
          "data": "0x000000000000000000000000547a116a2622876ce1c8d19d41c683c8f7bec5c00000000000000000000000000000000000000000000000000000077fe46399da0000000000000000000000000000000000000000000000000000000000000034",
          "blockHash": "0xd9e63de28661f0233582293a94d19036d7e1ef1865ff85075f9a1eeb7cff1304",
          "blockNumber": "0xfbd051d",
          "transactionHash": "0x0ce2f517bf40fdbd12c955caafefe6d1e51cb1b03d3b547b9afd7f14b25ee449",
          "transactionIndex": "0x3",
          "logIndex": "0x4a",
          "removed": false
        },
        {
          "address": "0x547A116a2622876cE1C8d19d41c683C8f7BeC5c0",
          "topics": [
            "0x4606b8a47eb284e8e80929101ece6ab5fe8d4f8735acc56bd0c92ca872f2cfe7"
          ],
          "data": "0x00000000000000000000000000000000000000000000000000000000000000050000000000000000000000000000000000000000000000000000077fe46399da0000000000000000000000000000000000000000000000000000000000000034",
          "blockHash": "0xd9e63de28661f0233582293a94d19036d7e1ef1865ff85075f9a1eeb7cff1304",
          "blockNumber": "0xfbd051d",
          "transactionHash": "0x0ce2f517bf40fdbd12c955caafefe6d1e51cb1b03d3b547b9afd7f14b25ee449",
          "transactionIndex": "0x3",
          "logIndex": "0x4b",
          "removed": false
        },
        {
          "address": "0x2Ea0bE86990E8Dac0D09e4316Bb92086F304622d",
          "topics": [
            "0xddf252ad1be2c89b69c2b068fc378daa952ba7f163c4a11628f55a4df523b3ef",
            "0x000000000000000000000000547a116a2622876ce1c8d19d41c683c8f7bec5c0",
            "0x00000000000000000000000093b1e9930685e1b4e6b3db54fc061c29b89df061"
          ],
          "data": "0x0000000000000000000000000000000000000000000000000000017ffa7a51f8",
          "blockHash": "0xd9e63de28661f0233582293a94d19036d7e1ef1865ff85075f9a1eeb7cff1304",
          "blockNumber": "0xfbd051d",
          "transactionHash": "0x0ce2f517bf40fdbd12c955caafefe6d1e51cb1b03d3b547b9afd7f14b25ee449",
          "transactionIndex": "0x3",
          "logIndex": "0x4c",
          "removed": false
        },
        {
          "address": "0xaf88d065e77c8cC2239327C5EDb3A432268e5831",
          "topics": [
            "0xddf252ad1be2c89b69c2b068fc378daa952ba7f163c4a11628f55a4df523b3ef",
            "0x000000000000000000000000547a116a2622876ce1c8d19d41c683c8f7bec5c0",
            "0x00000000000000000000000093b1e9930685e1b4e6b3db54fc061c29b89df061"
          ],
          "data": "0x000000000000000000000000000000000000000000000000000000000000000a",
          "blockHash": "0xd9e63de28661f0233582293a94d19036d7e1ef1865ff85075f9a1eeb7cff1304",
          "blockNumber": "0xfbd051d",
          "transactionHash": "0x0ce2f517bf40fdbd12c955caafefe6d1e51cb1b03d3b547b9afd7f14b25ee449",
          "transactionIndex": "0x3",
          "logIndex": "0x4d",
          "removed": false
        },
        {
          "address": "0x8DEF4Db6697F4885bA4a3f75e9AdB3cEFCca6D6E",
          "topics": [
            "0x0c396cd989a39f4459b5fa1aed6a9a8dcdbc45908acfd67e028cd568da98982c",
            "0x000000000000000000000000547a116a2622876ce1c8d19d41c683c8f7bec5c0",
            "0xfffffffffffffffffffffffffffffffffffffffffffffffffffffffffffbc8b4",
            "0xfffffffffffffffffffffffffffffffffffffffffffffffffffffffffffbc8f0"
          ],
          "data": "0x000000000000000000000000000000000000000000000000000000000000000000000000000000000000000000000000000000000000000000000000000000000000000000000000000000000000000000000000000000000000000000000000",
          "blockHash": "0xd9e63de28661f0233582293a94d19036d7e1ef1865ff85075f9a1eeb7cff1304",
          "blockNumber": "0xfbd051d",
          "transactionHash": "0x0ce2f517bf40fdbd12c955caafefe6d1e51cb1b03d3b547b9afd7f14b25ee449",
          "transactionIndex": "0x3",
          "logIndex": "0x4e",
          "removed": false
        },
        {
          "address": "0x8DEF4Db6697F4885bA4a3f75e9AdB3cEFCca6D6E",
          "topics": [
            "0x70935338e69775456a85ddef226c395fb668b63fa0115f5f20610b388e6ca9c0",
            "0x000000000000000000000000547a116a2622876ce1c8d19d41c683c8f7bec5c0",
            "0xfffffffffffffffffffffffffffffffffffffffffffffffffffffffffffbc8b4",
            "0xfffffffffffffffffffffffffffffffffffffffffffffffffffffffffffbc8f0"
          ],
          "data": "0x000000000000000000000000547a116a2622876ce1c8d19d41c683c8f7bec5c000000000000000000000000000000000000000000000000000000000000000000000000000000000000000000000000000000000000000000000000000000000",
          "blockHash": "0xd9e63de28661f0233582293a94d19036d7e1ef1865ff85075f9a1eeb7cff1304",
          "blockNumber": "0xfbd051d",
          "transactionHash": "0x0ce2f517bf40fdbd12c955caafefe6d1e51cb1b03d3b547b9afd7f14b25ee449",
          "transactionIndex": "0x3",
          "logIndex": "0x4f",
          "removed": false
        },
        {
          "address": "0x547A116a2622876cE1C8d19d41c683C8f7BeC5c0",
          "topics": [
            "0x4606b8a47eb284e8e80929101ece6ab5fe8d4f8735acc56bd0c92ca872f2cfe7"
          ],
          "data": "0x000000000000000000000000000000000000000000000000000000000000000500000000000000000000000000000000000000000000000000000000000000000000000000000000000000000000000000000000000000000000000000000000",
          "blockHash": "0xd9e63de28661f0233582293a94d19036d7e1ef1865ff85075f9a1eeb7cff1304",
          "blockNumber": "0xfbd051d",
          "transactionHash": "0x0ce2f517bf40fdbd12c955caafefe6d1e51cb1b03d3b547b9afd7f14b25ee449",
          "transactionIndex": "0x3",
          "logIndex": "0x50",
          "removed": false
        },
        {
          "address": "0x2Ea0bE86990E8Dac0D09e4316Bb92086F304622d",
          "topics": [
            "0x8c5be1e5ebec7d5bd14f71427d1e84f3dd0314c0f7b2291e5b200ac8c7c3b925",
            "0x00000000000000000000000064c594139e2e6b22d148255de5293e81c294a033",
            "0x000000000000000000000000547a116a2622876ce1c8d19d41c683c8f7bec5c0"
          ],
          "data": "0x0000000000000000000000000000000000000000000000000000000000000000",
          "blockHash": "0xd9e63de28661f0233582293a94d19036d7e1ef1865ff85075f9a1eeb7cff1304",
          "blockNumber": "0xfbd051d",
          "transactionHash": "0x0ce2f517bf40fdbd12c955caafefe6d1e51cb1b03d3b547b9afd7f14b25ee449",
          "transactionIndex": "0x3",
          "logIndex": "0x51",
          "removed": false
        },
        {
          "address": "0x2Ea0bE86990E8Dac0D09e4316Bb92086F304622d",
          "topics": [
            "0xddf252ad1be2c89b69c2b068fc378daa952ba7f163c4a11628f55a4df523b3ef",
            "0x00000000000000000000000064c594139e2e6b22d148255de5293e81c294a033",
            "0x000000000000000000000000547a116a2622876ce1c8d19d41c683c8f7bec5c0"
          ],
          "data": "0x000000000000000000000000000000000000000000000004cfb4feda28c2ef06",
          "blockHash": "0xd9e63de28661f0233582293a94d19036d7e1ef1865ff85075f9a1eeb7cff1304",
          "blockNumber": "0xfbd051d",
          "transactionHash": "0x0ce2f517bf40fdbd12c955caafefe6d1e51cb1b03d3b547b9afd7f14b25ee449",
          "transactionIndex": "0x3",
          "logIndex": "0x52",
          "removed": false
        },
        {
          "address": "0xaf88d065e77c8cC2239327C5EDb3A432268e5831",
          "topics": [
            "0xddf252ad1be2c89b69c2b068fc378daa952ba7f163c4a11628f55a4df523b3ef",
            "0x00000000000000000000000064c594139e2e6b22d148255de5293e81c294a033",
            "0x000000000000000000000000547a116a2622876ce1c8d19d41c683c8f7bec5c0"
          ],
          "data": "0x0000000000000000000000000000000000000000000000000000000006f129c9",
          "blockHash": "0xd9e63de28661f0233582293a94d19036d7e1ef1865ff85075f9a1eeb7cff1304",
          "blockNumber": "0xfbd051d",
          "transactionHash": "0x0ce2f517bf40fdbd12c955caafefe6d1e51cb1b03d3b547b9afd7f14b25ee449",
          "transactionIndex": "0x3",
          "logIndex": "0x53",
          "removed": false
        },
        {
          "address": "0x2Ea0bE86990E8Dac0D09e4316Bb92086F304622d",
          "topics": [
            "0xddf252ad1be2c89b69c2b068fc378daa952ba7f163c4a11628f55a4df523b3ef",
            "0x000000000000000000000000547a116a2622876ce1c8d19d41c683c8f7bec5c0",
            "0x0000000000000000000000008def4db6697f4885ba4a3f75e9adb3cefcca6d6e"
          ],
          "data": "0x00000000000000000000000000000000000000000000000439456df6b1eb1913",
          "blockHash": "0xd9e63de28661f0233582293a94d19036d7e1ef1865ff85075f9a1eeb7cff1304",
          "blockNumber": "0xfbd051d",
          "transactionHash": "0x0ce2f517bf40fdbd12c955caafefe6d1e51cb1b03d3b547b9afd7f14b25ee449",
          "transactionIndex": "0x3",
          "logIndex": "0x54",
          "removed": false
        },
        {
          "address": "0xaf88d065e77c8cC2239327C5EDb3A432268e5831",
          "topics": [
            "0xddf252ad1be2c89b69c2b068fc378daa952ba7f163c4a11628f55a4df523b3ef",
            "0x000000000000000000000000547a116a2622876ce1c8d19d41c683c8f7bec5c0",
            "0x0000000000000000000000008def4db6697f4885ba4a3f75e9adb3cefcca6d6e"
          ],
          "data": "0x0000000000000000000000000000000000000000000000000000000006f129f3",
          "blockHash": "0xd9e63de28661f0233582293a94d19036d7e1ef1865ff85075f9a1eeb7cff1304",
          "blockNumber": "0xfbd051d",
          "transactionHash": "0x0ce2f517bf40fdbd12c955caafefe6d1e51cb1b03d3b547b9afd7f14b25ee449",
          "transactionIndex": "0x3",
          "logIndex": "0x55",
          "removed": false
        },
        {
          "address": "0x8DEF4Db6697F4885bA4a3f75e9AdB3cEFCca6D6E",
          "topics": [
            "0x7a53080ba414158be7ec69b987b5fb7d07dee101fe85488f0853ae16239d0bde",
            "0x000000000000000000000000547a116a2622876ce1c8d19d41c683c8f7bec5c0",
            "0xfffffffffffffffffffffffffffffffffffffffffffffffffffffffffffbc83c",
            "0xfffffffffffffffffffffffffffffffffffffffffffffffffffffffffffbc8f0"
          ],
          "data": "0x000000000000000000000000547a116a2622876ce1c8d19d41c683c8f7bec5c0000000000000000000000000000000000000000000000000004ce7e75715ed5300000000000000000000000000000000000000000000000439456df6b1eb19130000000000000000000000000000000000000000000000000000000006f129f3",
          "blockHash": "0xd9e63de28661f0233582293a94d19036d7e1ef1865ff85075f9a1eeb7cff1304",
          "blockNumber": "0xfbd051d",
          "transactionHash": "0x0ce2f517bf40fdbd12c955caafefe6d1e51cb1b03d3b547b9afd7f14b25ee449",
          "transactionIndex": "0x3",
          "logIndex": "0x56",
          "removed": false
        },
        {
          "address": "0x2Ea0bE86990E8Dac0D09e4316Bb92086F304622d",
          "topics": [
            "0xddf252ad1be2c89b69c2b068fc378daa952ba7f163c4a11628f55a4df523b3ef",
            "0x000000000000000000000000547a116a2622876ce1c8d19d41c683c8f7bec5c0",
            "0x0000000000000000000000008def4db6697f4885ba4a3f75e9adb3cefcca6d6e"
          ],
          "data": "0x000000000000000000000000000000000000000000000000966f96e360c11ec2",
          "blockHash": "0xd9e63de28661f0233582293a94d19036d7e1ef1865ff85075f9a1eeb7cff1304",
          "blockNumber": "0xfbd051d",
          "transactionHash": "0x0ce2f517bf40fdbd12c955caafefe6d1e51cb1b03d3b547b9afd7f14b25ee449",
          "transactionIndex": "0x3",
          "logIndex": "0x57",
          "removed": false
        },
        {
          "address": "0x8DEF4Db6697F4885bA4a3f75e9AdB3cEFCca6D6E",
          "topics": [
            "0x7a53080ba414158be7ec69b987b5fb7d07dee101fe85488f0853ae16239d0bde",
            "0x000000000000000000000000547a116a2622876ce1c8d19d41c683c8f7bec5c0",
            "0xfffffffffffffffffffffffffffffffffffffffffffffffffffffffffffbc8b4",
            "0xfffffffffffffffffffffffffffffffffffffffffffffffffffffffffffbc8f0"
          ],
          "data": "0x000000000000000000000000547a116a2622876ce1c8d19d41c683c8f7bec5c0000000000000000000000000000000000000000000000000000cdf5ff22c88d3000000000000000000000000000000000000000000000000966f96e360c11ec20000000000000000000000000000000000000000000000000000000000000000",
          "blockHash": "0xd9e63de28661f0233582293a94d19036d7e1ef1865ff85075f9a1eeb7cff1304",
          "blockNumber": "0xfbd051d",
          "transactionHash": "0x0ce2f517bf40fdbd12c955caafefe6d1e51cb1b03d3b547b9afd7f14b25ee449",
          "transactionIndex": "0x3",
          "logIndex": "0x58",
          "removed": false
        },
        {
          "address": "0x547A116a2622876cE1C8d19d41c683C8f7BeC5c0",
          "topics": [
            "0xddf252ad1be2c89b69c2b068fc378daa952ba7f163c4a11628f55a4df523b3ef",
            "0x0000000000000000000000000000000000000000000000000000000000000000",
            "0x000000000000000000000000e7b538f6deb6314c55118e46b4014ca496292709"
          ],
          "data": "0x000000000000000000000000000000000000000000000000000000000c3a8ae1",
          "blockHash": "0xd9e63de28661f0233582293a94d19036d7e1ef1865ff85075f9a1eeb7cff1304",
          "blockNumber": "0xfbd051d",
          "transactionHash": "0x0ce2f517bf40fdbd12c955caafefe6d1e51cb1b03d3b547b9afd7f14b25ee449",
          "transactionIndex": "0x3",
          "logIndex": "0x59",
          "removed": false
        },
        {
          "address": "0x547A116a2622876cE1C8d19d41c683C8f7BeC5c0",
          "topics": [
            "0x4e2ca0515ed1aef1395f66b5303bb5d6f1bf9d61a353fa53f73f8ac9973fa9f6",
            "0x00000000000000000000000064c594139e2e6b22d148255de5293e81c294a033",
            "0x000000000000000000000000e7b538f6deb6314c55118e46b4014ca496292709"
          ],
          "data": "0x000000000000000000000000000000000000000000000000000000000c3a8ae1000000000000000000000000000000000000000000000004cfb4feda28c2ef060000000000000000000000000000000000000000000000000000000006f129c9",
          "blockHash": "0xd9e63de28661f0233582293a94d19036d7e1ef1865ff85075f9a1eeb7cff1304",
          "blockNumber": "0xfbd051d",
          "transactionHash": "0x0ce2f517bf40fdbd12c955caafefe6d1e51cb1b03d3b547b9afd7f14b25ee449",
          "transactionIndex": "0x3",
          "logIndex": "0x5a",
          "removed": false
        },
        {
          "address": "0x2Ea0bE86990E8Dac0D09e4316Bb92086F304622d",
          "topics": [
            "0x8c5be1e5ebec7d5bd14f71427d1e84f3dd0314c0f7b2291e5b200ac8c7c3b925",
            "0x00000000000000000000000064c594139e2e6b22d148255de5293e81c294a033",
            "0x000000000000000000000000547a116a2622876ce1c8d19d41c683c8f7bec5c0"
          ],
          "data": "0x0000000000000000000000000000000000000000000000000000000000000000",
          "blockHash": "0xd9e63de28661f0233582293a94d19036d7e1ef1865ff85075f9a1eeb7cff1304",
          "blockNumber": "0xfbd051d",
          "transactionHash": "0x0ce2f517bf40fdbd12c955caafefe6d1e51cb1b03d3b547b9afd7f14b25ee449",
          "transactionIndex": "0x3",
          "logIndex": "0x5b",
          "removed": false
        },
        {
          "address": "0xaf88d065e77c8cC2239327C5EDb3A432268e5831",
          "topics": [
            "0x8c5be1e5ebec7d5bd14f71427d1e84f3dd0314c0f7b2291e5b200ac8c7c3b925",
            "0x00000000000000000000000064c594139e2e6b22d148255de5293e81c294a033",
            "0x000000000000000000000000547a116a2622876ce1c8d19d41c683c8f7bec5c0"
          ],
          "data": "0x0000000000000000000000000000000000000000000000000000000000000000",
          "blockHash": "0xd9e63de28661f0233582293a94d19036d7e1ef1865ff85075f9a1eeb7cff1304",
          "blockNumber": "0xfbd051d",
          "transactionHash": "0x0ce2f517bf40fdbd12c955caafefe6d1e51cb1b03d3b547b9afd7f14b25ee449",
          "transactionIndex": "0x3",
          "logIndex": "0x5c",
          "removed": false
        },
        {
          "address": "0x82aF49447D8a07e3bd95BD0d56f35241523fBab1",
          "topics": [
            "0x8c5be1e5ebec7d5bd14f71427d1e84f3dd0314c0f7b2291e5b200ac8c7c3b925",
            "0x00000000000000000000000064c594139e2e6b22d148255de5293e81c294a033",
            "0x000000000000000000000000e592427a0aece92de3edee1f18e0157c05861564"
          ],
          "data": "0x000000000000000000000000000000000000000000000000000b27b137dabdb4",
          "blockHash": "0xd9e63de28661f0233582293a94d19036d7e1ef1865ff85075f9a1eeb7cff1304",
          "blockNumber": "0xfbd051d",
          "transactionHash": "0x0ce2f517bf40fdbd12c955caafefe6d1e51cb1b03d3b547b9afd7f14b25ee449",
          "transactionIndex": "0x3",
          "logIndex": "0x5d",
          "removed": false
        },
        {
          "address": "0x2f2a2543B76A4166549F7aaB2e75Bef0aefC5B0f",
          "topics": [
            "0xddf252ad1be2c89b69c2b068fc378daa952ba7f163c4a11628f55a4df523b3ef",
            "0x000000000000000000000000149e36e72726e0bcea5c59d40df2c43f60f5a22d",
            "0x00000000000000000000000064c594139e2e6b22d148255de5293e81c294a033"
          ],
          "data": "0x00000000000000000000000000000000000000000000000000000000000030c9",
          "blockHash": "0xd9e63de28661f0233582293a94d19036d7e1ef1865ff85075f9a1eeb7cff1304",
          "blockNumber": "0xfbd051d",
          "transactionHash": "0x0ce2f517bf40fdbd12c955caafefe6d1e51cb1b03d3b547b9afd7f14b25ee449",
          "transactionIndex": "0x3",
          "logIndex": "0x5e",
          "removed": false
        },
        {
          "address": "0x82aF49447D8a07e3bd95BD0d56f35241523fBab1",
          "topics": [
            "0xddf252ad1be2c89b69c2b068fc378daa952ba7f163c4a11628f55a4df523b3ef",
            "0x00000000000000000000000064c594139e2e6b22d148255de5293e81c294a033",
            "0x000000000000000000000000149e36e72726e0bcea5c59d40df2c43f60f5a22d"
          ],
          "data": "0x000000000000000000000000000000000000000000000000000b27b137dabdb4",
          "blockHash": "0xd9e63de28661f0233582293a94d19036d7e1ef1865ff85075f9a1eeb7cff1304",
          "blockNumber": "0xfbd051d",
          "transactionHash": "0x0ce2f517bf40fdbd12c955caafefe6d1e51cb1b03d3b547b9afd7f14b25ee449",
          "transactionIndex": "0x3",
          "logIndex": "0x5f",
          "removed": false
        },
        {
          "address": "0x82aF49447D8a07e3bd95BD0d56f35241523fBab1",
          "topics": [
            "0x8c5be1e5ebec7d5bd14f71427d1e84f3dd0314c0f7b2291e5b200ac8c7c3b925",
            "0x00000000000000000000000064c594139e2e6b22d148255de5293e81c294a033",
            "0x000000000000000000000000e592427a0aece92de3edee1f18e0157c05861564"
          ],
          "data": "0x0000000000000000000000000000000000000000000000000000000000000000",
          "blockHash": "0xd9e63de28661f0233582293a94d19036d7e1ef1865ff85075f9a1eeb7cff1304",
          "blockNumber": "0xfbd051d",
          "transactionHash": "0x0ce2f517bf40fdbd12c955caafefe6d1e51cb1b03d3b547b9afd7f14b25ee449",
          "transactionIndex": "0x3",
          "logIndex": "0x60",
          "removed": false
        },
        {
          "address": "0x149e36E72726e0BceA5c59d40df2c43F60f5A22D",
          "topics": [
            "0xc42079f94a6350d7e6235f29174924f928cc2ac818eb64fed8004e115fbcca67",
            "0x000000000000000000000000e592427a0aece92de3edee1f18e0157c05861564",
            "0x00000000000000000000000064c594139e2e6b22d148255de5293e81c294a033"
          ],
          "data": "0xffffffffffffffffffffffffffffffffffffffffffffffffffffffffffffcf37000000000000000000000000000000000000000000000000000b27b137dabdb4000000000000000000000000000000000007a3ace9be95474b800c21a4a85fa1000000000000000000000000000000000000000000000000005fcab5ad361bc90000000000000000000000000000000000000000000000000000000000040156",
          "blockHash": "0xd9e63de28661f0233582293a94d19036d7e1ef1865ff85075f9a1eeb7cff1304",
          "blockNumber": "0xfbd051d",
          "transactionHash": "0x0ce2f517bf40fdbd12c955caafefe6d1e51cb1b03d3b547b9afd7f14b25ee449",
          "transactionIndex": "0x3",
          "logIndex": "0x61",
          "removed": false
        },
        {
          "address": "0x82aF49447D8a07e3bd95BD0d56f35241523fBab1",
          "topics": [
            "0x8c5be1e5ebec7d5bd14f71427d1e84f3dd0314c0f7b2291e5b200ac8c7c3b925",
            "0x00000000000000000000000064c594139e2e6b22d148255de5293e81c294a033",
            "0x000000000000000000000000e592427a0aece92de3edee1f18e0157c05861564"
          ],
          "data": "0x0000000000000000000000000000000000000000000000000000000000000000",
          "blockHash": "0xd9e63de28661f0233582293a94d19036d7e1ef1865ff85075f9a1eeb7cff1304",
          "blockNumber": "0xfbd051d",
          "transactionHash": "0x0ce2f517bf40fdbd12c955caafefe6d1e51cb1b03d3b547b9afd7f14b25ee449",
          "transactionIndex": "0x3",
          "logIndex": "0x62",
          "removed": false
        },
        {
          "address": "0x2f2a2543B76A4166549F7aaB2e75Bef0aefC5B0f",
          "topics": [
            "0x8c5be1e5ebec7d5bd14f71427d1e84f3dd0314c0f7b2291e5b200ac8c7c3b925",
            "0x00000000000000000000000064c594139e2e6b22d148255de5293e81c294a033",
            "0x00000000000000000000000052ee1ffba696c5e9b0bc177a9f8a3098420ea691"
          ],
          "data": "0x00000000000000000000000000000000000000000000000000000000000030c9",
          "blockHash": "0xd9e63de28661f0233582293a94d19036d7e1ef1865ff85075f9a1eeb7cff1304",
          "blockNumber": "0xfbd051d",
          "transactionHash": "0x0ce2f517bf40fdbd12c955caafefe6d1e51cb1b03d3b547b9afd7f14b25ee449",
          "transactionIndex": "0x3",
          "logIndex": "0x63",
          "removed": false
        },
        {
          "address": "0x82aF49447D8a07e3bd95BD0d56f35241523fBab1",
          "topics": [
            "0x8c5be1e5ebec7d5bd14f71427d1e84f3dd0314c0f7b2291e5b200ac8c7c3b925",
            "0x00000000000000000000000064c594139e2e6b22d148255de5293e81c294a033",
            "0x00000000000000000000000052ee1ffba696c5e9b0bc177a9f8a3098420ea691"
          ],
          "data": "0x00000000000000000000000000000000000000000000000000521a8b2d7fe24c",
          "blockHash": "0xd9e63de28661f0233582293a94d19036d7e1ef1865ff85075f9a1eeb7cff1304",
          "blockNumber": "0xfbd051d",
          "transactionHash": "0x0ce2f517bf40fdbd12c955caafefe6d1e51cb1b03d3b547b9afd7f14b25ee449",
          "transactionIndex": "0x3",
          "logIndex": "0x64",
          "removed": false
        },
        {
          "address": "0x149e36E72726e0BceA5c59d40df2c43F60f5A22D",
          "topics": [
            "0x0c396cd989a39f4459b5fa1aed6a9a8dcdbc45908acfd67e028cd568da98982c",
            "0x00000000000000000000000052ee1ffba696c5e9b0bc177a9f8a3098420ea691",
            "0x000000000000000000000000000000000000000000000000000000000003fffc",
            "0x0000000000000000000000000000000000000000000000000000000000040308"
          ],
          "data": "0x000000000000000000000000000000000000000000000000000000000000000000000000000000000000000000000000000000000000000000000000000000000000000000000000000000000000000000000000000000000000000000000000",
          "blockHash": "0xd9e63de28661f0233582293a94d19036d7e1ef1865ff85075f9a1eeb7cff1304",
          "blockNumber": "0xfbd051d",
          "transactionHash": "0x0ce2f517bf40fdbd12c955caafefe6d1e51cb1b03d3b547b9afd7f14b25ee449",
          "transactionIndex": "0x3",
          "logIndex": "0x65",
          "removed": false
        },
        {
          "address": "0x2f2a2543B76A4166549F7aaB2e75Bef0aefC5B0f",
          "topics": [
            "0xddf252ad1be2c89b69c2b068fc378daa952ba7f163c4a11628f55a4df523b3ef",
            "0x000000000000000000000000149e36e72726e0bcea5c59d40df2c43f60f5a22d",
            "0x00000000000000000000000052ee1ffba696c5e9b0bc177a9f8a3098420ea691"
          ],
          "data": "0x0000000000000000000000000000000000000000000000000000000000000560",
          "blockHash": "0xd9e63de28661f0233582293a94d19036d7e1ef1865ff85075f9a1eeb7cff1304",
          "blockNumber": "0xfbd051d",
          "transactionHash": "0x0ce2f517bf40fdbd12c955caafefe6d1e51cb1b03d3b547b9afd7f14b25ee449",
          "transactionIndex": "0x3",
          "logIndex": "0x66",
          "removed": false
        },
        {
          "address": "0x82aF49447D8a07e3bd95BD0d56f35241523fBab1",
          "topics": [
            "0xddf252ad1be2c89b69c2b068fc378daa952ba7f163c4a11628f55a4df523b3ef",
            "0x000000000000000000000000149e36e72726e0bcea5c59d40df2c43f60f5a22d",
            "0x00000000000000000000000052ee1ffba696c5e9b0bc177a9f8a3098420ea691"
          ],
          "data": "0x0000000000000000000000000000000000000000000000000000f8e57924b1a6",
          "blockHash": "0xd9e63de28661f0233582293a94d19036d7e1ef1865ff85075f9a1eeb7cff1304",
          "blockNumber": "0xfbd051d",
          "transactionHash": "0x0ce2f517bf40fdbd12c955caafefe6d1e51cb1b03d3b547b9afd7f14b25ee449",
          "transactionIndex": "0x3",
          "logIndex": "0x67",
          "removed": false
        },
        {
          "address": "0x149e36E72726e0BceA5c59d40df2c43F60f5A22D",
          "topics": [
            "0x70935338e69775456a85ddef226c395fb668b63fa0115f5f20610b388e6ca9c0",
            "0x00000000000000000000000052ee1ffba696c5e9b0bc177a9f8a3098420ea691",
            "0x000000000000000000000000000000000000000000000000000000000003fffc",
            "0x0000000000000000000000000000000000000000000000000000000000040308"
          ],
          "data": "0x00000000000000000000000052ee1ffba696c5e9b0bc177a9f8a3098420ea69100000000000000000000000000000000000000000000000000000000000005600000000000000000000000000000000000000000000000000000f8e57924b1a6",
          "blockHash": "0xd9e63de28661f0233582293a94d19036d7e1ef1865ff85075f9a1eeb7cff1304",
          "blockNumber": "0xfbd051d",
          "transactionHash": "0x0ce2f517bf40fdbd12c955caafefe6d1e51cb1b03d3b547b9afd7f14b25ee449",
          "transactionIndex": "0x3",
          "logIndex": "0x68",
          "removed": false
        },
        {
          "address": "0x52ee1FFBA696c5E9b0Bc177A9f8a3098420EA691",
          "topics": [
            "0x4606b8a47eb284e8e80929101ece6ab5fe8d4f8735acc56bd0c92ca872f2cfe7"
          ],
          "data": "0x000000000000000000000000000000000000000000000000000000000000000500000000000000000000000000000000000000000000000000000000000005600000000000000000000000000000000000000000000000000000f8e57924b1a6",
          "blockHash": "0xd9e63de28661f0233582293a94d19036d7e1ef1865ff85075f9a1eeb7cff1304",
          "blockNumber": "0xfbd051d",
          "transactionHash": "0x0ce2f517bf40fdbd12c955caafefe6d1e51cb1b03d3b547b9afd7f14b25ee449",
          "transactionIndex": "0x3",
          "logIndex": "0x69",
          "removed": false
        },
        {
          "address": "0x2f2a2543B76A4166549F7aaB2e75Bef0aefC5B0f",
          "topics": [
            "0xddf252ad1be2c89b69c2b068fc378daa952ba7f163c4a11628f55a4df523b3ef",
            "0x00000000000000000000000052ee1ffba696c5e9b0bc177a9f8a3098420ea691",
            "0x00000000000000000000000093b1e9930685e1b4e6b3db54fc061c29b89df061"
          ],
          "data": "0x0000000000000000000000000000000000000000000000000000000000000113",
          "blockHash": "0xd9e63de28661f0233582293a94d19036d7e1ef1865ff85075f9a1eeb7cff1304",
          "blockNumber": "0xfbd051d",
          "transactionHash": "0x0ce2f517bf40fdbd12c955caafefe6d1e51cb1b03d3b547b9afd7f14b25ee449",
          "transactionIndex": "0x3",
          "logIndex": "0x6a",
          "removed": false
        },
        {
          "address": "0x82aF49447D8a07e3bd95BD0d56f35241523fBab1",
          "topics": [
            "0xddf252ad1be2c89b69c2b068fc378daa952ba7f163c4a11628f55a4df523b3ef",
            "0x00000000000000000000000052ee1ffba696c5e9b0bc177a9f8a3098420ea691",
            "0x00000000000000000000000093b1e9930685e1b4e6b3db54fc061c29b89df061"
          ],
          "data": "0x000000000000000000000000000000000000000000000000000031c77ea0f054",
          "blockHash": "0xd9e63de28661f0233582293a94d19036d7e1ef1865ff85075f9a1eeb7cff1304",
          "blockNumber": "0xfbd051d",
          "transactionHash": "0x0ce2f517bf40fdbd12c955caafefe6d1e51cb1b03d3b547b9afd7f14b25ee449",
          "transactionIndex": "0x3",
          "logIndex": "0x6b",
          "removed": false
        },
        {
          "address": "0x149e36E72726e0BceA5c59d40df2c43F60f5A22D",
          "topics": [
            "0x0c396cd989a39f4459b5fa1aed6a9a8dcdbc45908acfd67e028cd568da98982c",
            "0x00000000000000000000000052ee1ffba696c5e9b0bc177a9f8a3098420ea691",
            "0x000000000000000000000000000000000000000000000000000000000003f408",
            "0x0000000000000000000000000000000000000000000000000000000000040290"
          ],
          "data": "0x000000000000000000000000000000000000000000000000000000000000000000000000000000000000000000000000000000000000000000000000000000000000000000000000000000000000000000000000000000000000000000000000",
          "blockHash": "0xd9e63de28661f0233582293a94d19036d7e1ef1865ff85075f9a1eeb7cff1304",
          "blockNumber": "0xfbd051d",
          "transactionHash": "0x0ce2f517bf40fdbd12c955caafefe6d1e51cb1b03d3b547b9afd7f14b25ee449",
          "transactionIndex": "0x3",
          "logIndex": "0x6c",
          "removed": false
        },
        {
          "address": "0x2f2a2543B76A4166549F7aaB2e75Bef0aefC5B0f",
          "topics": [
            "0xddf252ad1be2c89b69c2b068fc378daa952ba7f163c4a11628f55a4df523b3ef",
            "0x000000000000000000000000149e36e72726e0bcea5c59d40df2c43f60f5a22d",
            "0x00000000000000000000000052ee1ffba696c5e9b0bc177a9f8a3098420ea691"
          ],
          "data": "0x0000000000000000000000000000000000000000000000000000000000001224",
          "blockHash": "0xd9e63de28661f0233582293a94d19036d7e1ef1865ff85075f9a1eeb7cff1304",
          "blockNumber": "0xfbd051d",
          "transactionHash": "0x0ce2f517bf40fdbd12c955caafefe6d1e51cb1b03d3b547b9afd7f14b25ee449",
          "transactionIndex": "0x3",
          "logIndex": "0x6d",
          "removed": false
        },
        {
          "address": "0x82aF49447D8a07e3bd95BD0d56f35241523fBab1",
          "topics": [
            "0xddf252ad1be2c89b69c2b068fc378daa952ba7f163c4a11628f55a4df523b3ef",
            "0x000000000000000000000000149e36e72726e0bcea5c59d40df2c43f60f5a22d",
            "0x00000000000000000000000052ee1ffba696c5e9b0bc177a9f8a3098420ea691"
          ],
          "data": "0x000000000000000000000000000000000000000000000000000347c0588478cc",
          "blockHash": "0xd9e63de28661f0233582293a94d19036d7e1ef1865ff85075f9a1eeb7cff1304",
          "blockNumber": "0xfbd051d",
          "transactionHash": "0x0ce2f517bf40fdbd12c955caafefe6d1e51cb1b03d3b547b9afd7f14b25ee449",
          "transactionIndex": "0x3",
          "logIndex": "0x6e",
          "removed": false
        },
        {
          "address": "0x149e36E72726e0BceA5c59d40df2c43F60f5A22D",
          "topics": [
            "0x70935338e69775456a85ddef226c395fb668b63fa0115f5f20610b388e6ca9c0",
            "0x00000000000000000000000052ee1ffba696c5e9b0bc177a9f8a3098420ea691",
            "0x000000000000000000000000000000000000000000000000000000000003f408",
            "0x0000000000000000000000000000000000000000000000000000000000040290"
          ],
          "data": "0x00000000000000000000000052ee1ffba696c5e9b0bc177a9f8a3098420ea6910000000000000000000000000000000000000000000000000000000000001224000000000000000000000000000000000000000000000000000347c0588478cc",
          "blockHash": "0xd9e63de28661f0233582293a94d19036d7e1ef1865ff85075f9a1eeb7cff1304",
          "blockNumber": "0xfbd051d",
          "transactionHash": "0x0ce2f517bf40fdbd12c955caafefe6d1e51cb1b03d3b547b9afd7f14b25ee449",
          "transactionIndex": "0x3",
          "logIndex": "0x6f",
          "removed": false
        },
        {
          "address": "0x52ee1FFBA696c5E9b0Bc177A9f8a3098420EA691",
          "topics": [
            "0x4606b8a47eb284e8e80929101ece6ab5fe8d4f8735acc56bd0c92ca872f2cfe7"
          ],
          "data": "0x00000000000000000000000000000000000000000000000000000000000000050000000000000000000000000000000000000000000000000000000000001224000000000000000000000000000000000000000000000000000347c0588478cc",
          "blockHash": "0xd9e63de28661f0233582293a94d19036d7e1ef1865ff85075f9a1eeb7cff1304",
          "blockNumber": "0xfbd051d",
          "transactionHash": "0x0ce2f517bf40fdbd12c955caafefe6d1e51cb1b03d3b547b9afd7f14b25ee449",
          "transactionIndex": "0x3",
          "logIndex": "0x70",
          "removed": false
        },
        {
          "address": "0x2f2a2543B76A4166549F7aaB2e75Bef0aefC5B0f",
          "topics": [
            "0xddf252ad1be2c89b69c2b068fc378daa952ba7f163c4a11628f55a4df523b3ef",
            "0x00000000000000000000000052ee1ffba696c5e9b0bc177a9f8a3098420ea691",
            "0x00000000000000000000000093b1e9930685e1b4e6b3db54fc061c29b89df061"
          ],
          "data": "0x00000000000000000000000000000000000000000000000000000000000003a0",
          "blockHash": "0xd9e63de28661f0233582293a94d19036d7e1ef1865ff85075f9a1eeb7cff1304",
          "blockNumber": "0xfbd051d",
          "transactionHash": "0x0ce2f517bf40fdbd12c955caafefe6d1e51cb1b03d3b547b9afd7f14b25ee449",
          "transactionIndex": "0x3",
          "logIndex": "0x71",
          "removed": false
        },
        {
          "address": "0x82aF49447D8a07e3bd95BD0d56f35241523fBab1",
          "topics": [
            "0xddf252ad1be2c89b69c2b068fc378daa952ba7f163c4a11628f55a4df523b3ef",
            "0x00000000000000000000000052ee1ffba696c5e9b0bc177a9f8a3098420ea691",
            "0x00000000000000000000000093b1e9930685e1b4e6b3db54fc061c29b89df061"
          ],
          "data": "0x0000000000000000000000000000000000000000000000000000a7f344e74b5c",
          "blockHash": "0xd9e63de28661f0233582293a94d19036d7e1ef1865ff85075f9a1eeb7cff1304",
          "blockNumber": "0xfbd051d",
          "transactionHash": "0x0ce2f517bf40fdbd12c955caafefe6d1e51cb1b03d3b547b9afd7f14b25ee449",
          "transactionIndex": "0x3",
          "logIndex": "0x72",
          "removed": false
        },
        {
          "address": "0x2f2a2543B76A4166549F7aaB2e75Bef0aefC5B0f",
          "topics": [
            "0xddf252ad1be2c89b69c2b068fc378daa952ba7f163c4a11628f55a4df523b3ef",
            "0x00000000000000000000000064c594139e2e6b22d148255de5293e81c294a033",
            "0x00000000000000000000000052ee1ffba696c5e9b0bc177a9f8a3098420ea691"
          ],
          "data": "0x00000000000000000000000000000000000000000000000000000000000030c9",
          "blockHash": "0xd9e63de28661f0233582293a94d19036d7e1ef1865ff85075f9a1eeb7cff1304",
          "blockNumber": "0xfbd051d",
          "transactionHash": "0x0ce2f517bf40fdbd12c955caafefe6d1e51cb1b03d3b547b9afd7f14b25ee449",
          "transactionIndex": "0x3",
          "logIndex": "0x73",
          "removed": false
        },
        {
          "address": "0x2f2a2543B76A4166549F7aaB2e75Bef0aefC5B0f",
          "topics": [
            "0x8c5be1e5ebec7d5bd14f71427d1e84f3dd0314c0f7b2291e5b200ac8c7c3b925",
            "0x00000000000000000000000064c594139e2e6b22d148255de5293e81c294a033",
            "0x00000000000000000000000052ee1ffba696c5e9b0bc177a9f8a3098420ea691"
          ],
          "data": "0x0000000000000000000000000000000000000000000000000000000000000000",
          "blockHash": "0xd9e63de28661f0233582293a94d19036d7e1ef1865ff85075f9a1eeb7cff1304",
          "blockNumber": "0xfbd051d",
          "transactionHash": "0x0ce2f517bf40fdbd12c955caafefe6d1e51cb1b03d3b547b9afd7f14b25ee449",
          "transactionIndex": "0x3",
          "logIndex": "0x74",
          "removed": false
        },
        {
          "address": "0x82aF49447D8a07e3bd95BD0d56f35241523fBab1",
          "topics": [
            "0xddf252ad1be2c89b69c2b068fc378daa952ba7f163c4a11628f55a4df523b3ef",
            "0x00000000000000000000000064c594139e2e6b22d148255de5293e81c294a033",
            "0x00000000000000000000000052ee1ffba696c5e9b0bc177a9f8a3098420ea691"
          ],
          "data": "0x00000000000000000000000000000000000000000000000000521a8b2d7fe24c",
          "blockHash": "0xd9e63de28661f0233582293a94d19036d7e1ef1865ff85075f9a1eeb7cff1304",
          "blockNumber": "0xfbd051d",
          "transactionHash": "0x0ce2f517bf40fdbd12c955caafefe6d1e51cb1b03d3b547b9afd7f14b25ee449",
          "transactionIndex": "0x3",
          "logIndex": "0x75",
          "removed": false
        },
        {
          "address": "0x82aF49447D8a07e3bd95BD0d56f35241523fBab1",
          "topics": [
            "0x8c5be1e5ebec7d5bd14f71427d1e84f3dd0314c0f7b2291e5b200ac8c7c3b925",
            "0x00000000000000000000000064c594139e2e6b22d148255de5293e81c294a033",
            "0x00000000000000000000000052ee1ffba696c5e9b0bc177a9f8a3098420ea691"
          ],
          "data": "0x0000000000000000000000000000000000000000000000000000000000000000",
          "blockHash": "0xd9e63de28661f0233582293a94d19036d7e1ef1865ff85075f9a1eeb7cff1304",
          "blockNumber": "0xfbd051d",
          "transactionHash": "0x0ce2f517bf40fdbd12c955caafefe6d1e51cb1b03d3b547b9afd7f14b25ee449",
          "transactionIndex": "0x3",
          "logIndex": "0x76",
          "removed": false
        },
        {
          "address": "0x2f2a2543B76A4166549F7aaB2e75Bef0aefC5B0f",
          "topics": [
            "0xddf252ad1be2c89b69c2b068fc378daa952ba7f163c4a11628f55a4df523b3ef",
            "0x00000000000000000000000052ee1ffba696c5e9b0bc177a9f8a3098420ea691",
            "0x000000000000000000000000149e36e72726e0bcea5c59d40df2c43f60f5a22d"
          ],
          "data": "0x000000000000000000000000000000000000000000000000000000000000439a",
          "blockHash": "0xd9e63de28661f0233582293a94d19036d7e1ef1865ff85075f9a1eeb7cff1304",
          "blockNumber": "0xfbd051d",
          "transactionHash": "0x0ce2f517bf40fdbd12c955caafefe6d1e51cb1b03d3b547b9afd7f14b25ee449",
          "transactionIndex": "0x3",
          "logIndex": "0x77",
          "removed": false
        },
        {
          "address": "0x82aF49447D8a07e3bd95BD0d56f35241523fBab1",
          "topics": [
            "0xddf252ad1be2c89b69c2b068fc378daa952ba7f163c4a11628f55a4df523b3ef",
            "0x00000000000000000000000052ee1ffba696c5e9b0bc177a9f8a3098420ea691",
            "0x000000000000000000000000149e36e72726e0bcea5c59d40df2c43f60f5a22d"
          ],
          "data": "0x000000000000000000000000000000000000000000000000000c5820dbb1bc0e",
          "blockHash": "0xd9e63de28661f0233582293a94d19036d7e1ef1865ff85075f9a1eeb7cff1304",
          "blockNumber": "0xfbd051d",
          "transactionHash": "0x0ce2f517bf40fdbd12c955caafefe6d1e51cb1b03d3b547b9afd7f14b25ee449",
          "transactionIndex": "0x3",
          "logIndex": "0x78",
          "removed": false
        },
        {
          "address": "0x149e36E72726e0BceA5c59d40df2c43F60f5A22D",
          "topics": [
            "0x7a53080ba414158be7ec69b987b5fb7d07dee101fe85488f0853ae16239d0bde",
            "0x00000000000000000000000052ee1ffba696c5e9b0bc177a9f8a3098420ea691",
            "0x000000000000000000000000000000000000000000000000000000000003fffc",
            "0x0000000000000000000000000000000000000000000000000000000000040308"
          ],
          "data": "0x00000000000000000000000052ee1ffba696c5e9b0bc177a9f8a3098420ea6910000000000000000000000000000000000000000000000000000005e15ffa90a000000000000000000000000000000000000000000000000000000000000439a000000000000000000000000000000000000000000000000000c5820dbb1bc0e",
          "blockHash": "0xd9e63de28661f0233582293a94d19036d7e1ef1865ff85075f9a1eeb7cff1304",
          "blockNumber": "0xfbd051d",
          "transactionHash": "0x0ce2f517bf40fdbd12c955caafefe6d1e51cb1b03d3b547b9afd7f14b25ee449",
          "transactionIndex": "0x3",
          "logIndex": "0x79",
          "removed": false
        },
        {
          "address": "0x52ee1FFBA696c5E9b0Bc177A9f8a3098420EA691",
          "topics": [
            "0xddf252ad1be2c89b69c2b068fc378daa952ba7f163c4a11628f55a4df523b3ef",
            "0x0000000000000000000000000000000000000000000000000000000000000000",
            "0x000000000000000000000000e7b538f6deb6314c55118e46b4014ca496292709"
          ],
          "data": "0x0000000000000000000000000000000000000000000000000028ca287f3a3b11",
          "blockHash": "0xd9e63de28661f0233582293a94d19036d7e1ef1865ff85075f9a1eeb7cff1304",
          "blockNumber": "0xfbd051d",
          "transactionHash": "0x0ce2f517bf40fdbd12c955caafefe6d1e51cb1b03d3b547b9afd7f14b25ee449",
          "transactionIndex": "0x3",
          "logIndex": "0x7a",
          "removed": false
        },
        {
          "address": "0x52ee1FFBA696c5E9b0Bc177A9f8a3098420EA691",
          "topics": [
            "0x4e2ca0515ed1aef1395f66b5303bb5d6f1bf9d61a353fa53f73f8ac9973fa9f6",
            "0x00000000000000000000000064c594139e2e6b22d148255de5293e81c294a033",
            "0x000000000000000000000000e7b538f6deb6314c55118e46b4014ca496292709"
          ],
          "data": "0x0000000000000000000000000000000000000000000000000028ca287f3a3b1100000000000000000000000000000000000000000000000000000000000030c900000000000000000000000000000000000000000000000000521a8b2d7fe24c",
          "blockHash": "0xd9e63de28661f0233582293a94d19036d7e1ef1865ff85075f9a1eeb7cff1304",
          "blockNumber": "0xfbd051d",
          "transactionHash": "0x0ce2f517bf40fdbd12c955caafefe6d1e51cb1b03d3b547b9afd7f14b25ee449",
          "transactionIndex": "0x3",
          "logIndex": "0x7b",
          "removed": false
        },
        {
          "address": "0x2f2a2543B76A4166549F7aaB2e75Bef0aefC5B0f",
          "topics": [
            "0x8c5be1e5ebec7d5bd14f71427d1e84f3dd0314c0f7b2291e5b200ac8c7c3b925",
            "0x00000000000000000000000064c594139e2e6b22d148255de5293e81c294a033",
            "0x00000000000000000000000052ee1ffba696c5e9b0bc177a9f8a3098420ea691"
          ],
          "data": "0x0000000000000000000000000000000000000000000000000000000000000000",
          "blockHash": "0xd9e63de28661f0233582293a94d19036d7e1ef1865ff85075f9a1eeb7cff1304",
          "blockNumber": "0xfbd051d",
          "transactionHash": "0x0ce2f517bf40fdbd12c955caafefe6d1e51cb1b03d3b547b9afd7f14b25ee449",
          "transactionIndex": "0x3",
          "logIndex": "0x7c",
          "removed": false
        },
        {
          "address": "0x82aF49447D8a07e3bd95BD0d56f35241523fBab1",
          "topics": [
            "0x8c5be1e5ebec7d5bd14f71427d1e84f3dd0314c0f7b2291e5b200ac8c7c3b925",
            "0x00000000000000000000000064c594139e2e6b22d148255de5293e81c294a033",
            "0x00000000000000000000000052ee1ffba696c5e9b0bc177a9f8a3098420ea691"
          ],
          "data": "0x0000000000000000000000000000000000000000000000000000000000000000",
          "blockHash": "0xd9e63de28661f0233582293a94d19036d7e1ef1865ff85075f9a1eeb7cff1304",
          "blockNumber": "0xfbd051d",
          "transactionHash": "0x0ce2f517bf40fdbd12c955caafefe6d1e51cb1b03d3b547b9afd7f14b25ee449",
          "transactionIndex": "0x3",
          "logIndex": "0x7d",
          "removed": false
        },
        {
          "address": "0x64c594139e2E6B22D148255dE5293e81C294A033",
          "topics": [
            "0xdcbc1c05240f31ff3ad067ef1ee35ce4997762752e3a095284754544f4c709d7",
            "0x000000000000000000000000e7b538f6deb6314c55118e46b4014ca496292709",
            "0x00000000000000000000000082af49447d8a07e3bd95bd0d56f35241523fbab1"
          ],
          "data": "0x000000000000000000000000000000000000000000000000017508f1956a800000000000000000000000000000000000000000000000000000000000000124f8",
          "blockHash": "0xd9e63de28661f0233582293a94d19036d7e1ef1865ff85075f9a1eeb7cff1304",
          "blockNumber": "0xfbd051d",
          "transactionHash": "0x0ce2f517bf40fdbd12c955caafefe6d1e51cb1b03d3b547b9afd7f14b25ee449",
          "transactionIndex": "0x3",
          "logIndex": "0x7e",
          "removed": false
        }
      ],
      "logsBloom": "0x01000202000804020110100002024000000000008000000200000000000100000000000000400000000000001002000000204201000c20000208080000200000000000490100000800040009000008018040000000200800000000002000000000002000020000800008100400000800000000000404820001000010000840000800200008000000004000400000040400008000002000020804080000010000020000804022000200000000c00000001000000048000000000000040000000000002002000000000008080000200000080000000008000400000010000020400010080000040010220000000000200400000000004000880000000000000080",
      "type": "0x2",
      "transactionHash": "0x0ce2f517bf40fdbd12c955caafefe6d1e51cb1b03d3b547b9afd7f14b25ee449",
      "transactionIndex": "0x3",
      "blockHash": "0xd9e63de28661f0233582293a94d19036d7e1ef1865ff85075f9a1eeb7cff1304",
      "blockNumber": "0xfbd051d",
      "gasUsed": "0x2d88cf",
      "effectiveGasPrice": "0x989680",
      "from": "0xF9d85965c6A40D0C029471d758850e4b4C0d5b17",
      "to": "0xE7b538f6deB6314c55118e46b4014Ca496292709",
      "contractAddress": null,
      "gasUsedForL1": "0x1323a",
      "l1BlockNumber": "0x13ffc23"
    }
  ],
  "libraries": [],
  "pending": [],
  "returns": {},
  "timestamp": 1728990081,
  "chain": 42161,
  "commit": "347eda7"
}