{
  "transactions": [
    {
      "hash": "0xcf6c45ef9268f82d728c65b94258b826d9db22070dcac3075365cb7ff929edd3",
      "transactionType": "CREATE",
      "contractName": null,
      "contractAddress": "0x172DF12aF47864389EAF4bC1EA93877bE1Dd7ae9",
      "function": null,
      "arguments": null,
      "transaction": {
        "from": "0xF9d85965c6A40D0C029471d758850e4b4C0d5b17",
        "gas": "0xaca427",
        "value": "0x0",
        "input": "0x6101206040523480156200001257600080fd5b5060405162002edc38038062002edc8339810160408190526200003591620000ff565b33806200005c57604051631e4fbdf760e01b81526000600482015260240160405180910390fd5b620000678162000092565b506001600160a01b0394851660805292841660a05290831660c052821660e05216610100526200016f565b600080546001600160a01b038381166001600160a01b0319831681178455604051919092169283917f8be0079c531659141344cd1fd0a4f28419497f9722a3daafe3b4186f6b6457e09190a35050565b80516001600160a01b0381168114620000fa57600080fd5b919050565b600080600080600060a086880312156200011857600080fd5b6200012386620000e2565b94506200013360208701620000e2565b93506200014360408701620000e2565b92506200015360608701620000e2565b91506200016360808701620000e2565b90509295509295909350565b60805160a05160c05160e05161010051612c7c6200026060003960008181610e0501528181610e4701528181610efb01528181611026015281816119d7015281816119fe01528181611b0b01528181611c5901528181611c9b01528181611d6f015281816120d4015281816121520152818161218c01526121c70152600081816104070152818161063f0152818161087f015281816108ab01528181610b9501528181610bc70152610c7a01526000818161112c015281816115c901526117dc01526000818161085e01528181610c9b01528181611c0401528181611c370152611d4d015260005050612c7c6000f3fe608060405234801561001057600080fd5b50600436106100935760003560e01c80638da5cb5b116100665780638da5cb5b14610100578063978bbdb91461011b578063cc29a7a514610132578063f2fde38b14610145578063f940e3851461015857600080fd5b8063162dd47a1461009857806347e7ef24146100ad578063715018a6146100e557806384a812e4146100ed575b600080fd5b6100ab6100a63660046124bf565b61016b565b005b6100c06100bb3660046124dc565b6101ba565b604080516001600160a01b039384168152929091166020830152015b60405180910390f35b6100ab610491565b6100ab6100fb366004612508565b6104a5565b6000546040516001600160a01b0390911681526020016100dc565b61012460025481565b6040519081526020016100dc565b6100ab6101403660046125db565b6104d4565b6100ab6101533660046124bf565b610578565b6100ab61016636600461267f565b6105bb565b6101736107b4565b6001600160a01b038116600090815260036020526040812080546001600160b81b0319168155906101a7600183018261245c565b6101b560028301600061245c565b505050565b6000806127108310156101e05760405163e420a20d60e01b815260040160405180910390fd5b6040516370a0823160e01b81523360048201526000906001600160a01b038616906370a0823190602401602060405180830381865afa158015610227573d6000803e3d6000fd5b505050506040513d601f19601f8201168201806040525081019061024b91906126ad565b90506102626001600160a01b0386163330846107e1565b6001600160a01b038581166000908152600360209081526040808320815160808101835281549586168152600160a01b90950462ffffff1692850192909252600182018054939493918401916102b7906126c6565b80601f01602080910402602001604051908101604052809291908181526020018280546102e3906126c6565b80156103305780601f1061030557610100808354040283529160200191610330565b820191906000526020600020905b81548152906001019060200180831161031357829003601f168201915b50505050508152602001600282018054610349906126c6565b80601f0160208091040260200160405190810160405280929190818152602001828054610375906126c6565b80156103c25780601f10610397576101008083540402835291602001916103c2565b820191906000526020600020905b8154815290600101906020018083116103a557829003601f168201915b5050509190925250508151919250506001600160a01b03166103f657604051626fc74f60e31b815260040160405180910390fd5b6104058686836040015161084e565b7f00000000000000000000000000000000000000000000000000000000000000009350620186a08510156104425761043d86826108cf565b805192505b60408051838152602081018790526001600160a01b0388169133917fdcbc1c05240f31ff3ad067ef1ee35ce4997762752e3a095284754544f4c709d7910160405180910390a350509250929050565b6104996107b4565b6104a360006108f1565b565b6104ad6107b4565b600291909155600180546001600160a01b0319166001600160a01b03909216919091179055565b6104dc6107b4565b604080516080810182526001600160a01b03808716825262ffffff8087166020808501918252848601888152606086018890528b851660009081526003909252959020845181549251909316600160a01b026001600160b81b03199092169290931691909117178155915190919060018201906105599082612746565b506060820151600282019061056e9082612746565b5050505050505050565b6105806107b4565b6001600160a01b0381166105af57604051631e4fbdf760e01b8152600060048201526024015b60405180910390fd5b6105b8816108f1565b50565b6040516370a0823160e01b8152336004820181905261063d9130906001600160a01b038616906370a0823190602401602060405180830381865afa158015610607573d6000803e3d6000fd5b505050506040513d601f19601f8201168201806040525081019061062b91906126ad565b6001600160a01b0386169291906107e1565b7f00000000000000000000000000000000000000000000000000000000000000006001600160a01b0316826001600160a01b031614610685576106808282610941565b61068e565b61068e81610b93565b600061069982610ccb565b90506000620186a0600254836106af919061281c565b6106b99190612833565b90506106c58183612855565b9150610752600160009054906101000a90046001600160a01b03166001600160a01b0316638ce744266040518163ffffffff1660e01b8152600401602060405180830381865afa15801561071d573d6000803e3d6000fd5b505050506040513d601f19601f820116820180604052508101906107419190612868565b6001600160a01b0385169083610d3c565b6107666001600160a01b0384163384610d3c565b604080516001600160a01b0386811682526020820185905285169133917f3115d1449a7b732c986cba18244e897a450f61e1bb8d589cd2e69e6c8924f9f7910160405180910390a350505050565b6000546001600160a01b031633146104a35760405163118cdaa760e01b81523360048201526024016105a6565b6040516001600160a01b0384811660248301528381166044830152606482018390526108489186918216906323b872dd906084015b604051602081830303815290604052915060e01b6020820180516001600160e01b038381831617835250505050610d6d565b50505050565b610859838383610dd0565b6108a67f00000000000000000000000000000000000000000000000000000000000000007f0000000000000000000000000000000000000000000000000000000000000000610bb8610f21565b6101b57f00000000000000000000000000000000000000000000000000000000000000006116d2565b6108e28282600001518360200151610f21565b80516108ed906116d2565b5050565b600080546001600160a01b038381166001600160a01b0319831681178455604051919092169283917f8be0079c531659141344cd1fd0a4f28419497f9722a3daafe3b4186f6b6457e09190a35050565b6001600160a01b038181166000908152600360209081526040808320815160808101835281549586168152600160a01b90950462ffffff169285019290925260018201805493949391840191610996906126c6565b80601f01602080910402602001604051908101604052809291908181526020018280546109c2906126c6565b8015610a0f5780601f106109e457610100808354040283529160200191610a0f565b820191906000526020600020905b8154815290600101906020018083116109f257829003601f168201915b50505050508152602001600282018054610a28906126c6565b80601f0160208091040260200160405190810160405280929190818152602001828054610a54906126c6565b8015610aa15780601f10610a7657610100808354040283529160200191610aa1565b820191906000526020600020905b815481529060010190602001808311610a8457829003601f168201915b5050505050815250509050826001600160a01b031681600001516001600160a01b031614610ae25760405163f864263360e01b815260040160405180910390fd5b826001600160a01b031663a8559872610afa85610ccb565b3030604051806080016040528060008152602001600081526020016000815260200160008152506040518563ffffffff1660e01b8152600401610b4094939291906128a8565b60408051808303816000875af1158015610b5e573d6000803e3d6000fd5b505050506040513d601f19601f82011682018060405250810190610b8291906128d3565b50506101b5838383602001516118d0565b7f00000000000000000000000000000000000000000000000000000000000000006001600160a01b031663a8559872610beb7f0000000000000000000000000000000000000000000000000000000000000000610ccb565b3030604051806080016040528060008152602001600081526020016000815260200160008152506040518563ffffffff1660e01b8152600401610c3194939291906128a8565b60408051808303816000875af1158015610c4f573d6000803e3d6000fd5b505050506040513d601f19601f82011682018060405250810190610c7391906128d3565b5050610cc27f00000000000000000000000000000000000000000000000000000000000000007f0000000000000000000000000000000000000000000000000000000000000000610bb86118d0565b6105b881611b57565b6040516370a0823160e01b81523060048201526000906001600160a01b038316906370a0823190602401602060405180830381865afa158015610d12573d6000803e3d6000fd5b505050506040513d601f19601f82011682018060405250810190610d3691906126ad565b92915050565b6040516001600160a01b038381166024830152604482018390526101b591859182169063a9059cbb90606401610816565b6000610d826001600160a01b03841683611d95565b90508051600014158015610da7575080806020019051810190610da5919061290c565b155b156101b557604051635274afe760e01b81526001600160a01b03841660048201526024016105a6565b6000620186a083610de086610ccb565b610dea919061281c565b610df49190612833565b9050610e2a6001600160a01b0385167f000000000000000000000000000000000000000000000000000000000000000083611daa565b6040805160a0810182528381523060208201526001600160a01b037f0000000000000000000000000000000000000000000000000000000000000000169163c04b8d5991908101610e7c42603c612927565b815260200184815260200160018152506040518263ffffffff1660e01b8152600401610ea8919061295e565b6020604051808303816000875af1158015610ec7573d6000803e3d6000fd5b505050506040513d601f19601f82011682018060405250810190610eeb91906126ad565b506108486001600160a01b0385167f00000000000000000000000000000000000000000000000000000000000000006000611e2f565b6000826001600160a01b0316630dfe16816040518163ffffffff1660e01b8152600401602060405180830381865afa158015610f61573d6000803e3d6000fd5b505050506040513d601f19601f82011682018060405250810190610f859190612868565b90506000836001600160a01b031663d21220a76040518163ffffffff1660e01b8152600401602060405180830381865afa158015610fc7573d6000803e3d6000fd5b505050506040513d601f19601f82011682018060405250810190610feb9190612868565b90506000826001600160a01b0316866001600160a01b03161461100e5782611010565b815b9050600080611020858588611ebf565b905060007f00000000000000000000000000000000000000000000000000000000000000006001600160a01b031663c45a01556040518163ffffffff1660e01b8152600401602060405180830381865afa158015611082573d6000803e3d6000fd5b505050506040513d601f19601f820116820180604052508101906110a69190612868565b90506110b28183611f2a565b6001600160a01b0316633850c7bd6040518163ffffffff1660e01b815260040160e060405180830381865afa1580156110ef573d6000803e3d6000fd5b505050506040513d601f19601f8201168201806040525081019061111391906129f0565b5094975060009650869550859450506001600160a01b037f0000000000000000000000000000000000000000000000000000000000000000169250635ccfb71d91508b90508c61116281610ccb565b6040516001600160e01b031960e086901b1681526001600160a01b03938416600482015292909116602483015260448201526064016040805180830381865afa1580156111b3573d6000803e3d6000fd5b505050506040513d601f19601f820116820180604052508101906111d791906128d3565b909250905060026111e88284612927565b6111f29190612833565b92505050600061120184610ccb565b9050600061120e8a610ccb565b9050600080898b8d5b6000816001600160a01b031663313ce5676040518163ffffffff1660e01b8152600401602060405180830381865afa158015611257573d6000803e3d6000fd5b505050506040513d601f19601f8201168201806040525081019061127b9190612a82565b60ff16905060008b6001600160a01b031663313ce5676040518163ffffffff1660e01b8152600401602060405180830381865afa1580156112c0573d6000803e3d6000fd5b505050506040513d601f19601f820116820180604052508101906112e49190612a82565b60ff1690506000806112ff6001600160a01b038e168061281c565b90508f6001600160a01b0316856001600160a01b03161461134e5761134984611329856024612927565b6113339190612855565b61133e90600a612b81565b82600160c01b612013565b61137d565b61137d8461135d856024612927565b6113679190612855565b61137290600a612b81565b600160c01b83612013565b9150600090506113db611391856024612855565b61139c90600a612b81565b6113a6908c61281c565b6a0c097ce7bc90715b34b9f160241b6113c0866024612855565b6113cb90600a612b81565b8f6113d6919061281c565b612013565b905060006114176113ed856024612855565b6113f890600a612b81565b611402908e61281c565b836a0c097ce7bc90715b34b9f160241b612013565b905080611425866024612855565b61143090600a612b81565b61143a908d61281c565b11156114fd576000611477611458848b62ffffff16620f4240612013565b6114629085612855565b6a0c097ce7bc90715b34b9f160241b86612013565b61148f906a0c097ce7bc90715b34b9f160241b612927565b905061149c866024612855565b6114a790600a612b81565b6114eb836114b6896024612855565b6114c190600a612b81565b8f6114cc919061281c565b6114d69190612855565b6a0c097ce7bc90715b34b9f160241b84612013565b6114f59190612833565b9a505061159a565b600061152f836a0c097ce7bc90715b34b9f160241b611525878d62ffffff16620f4240612013565b6113d69088612927565b611547906a0c097ce7bc90715b34b9f160241b612927565b9050611554866024612855565b61155f90600a612b81565b61158c61156d886024612855565b61157890600a612b81565b611582908f61281c565b6114d69085612855565b6115969190612833565b9950505b5050505050878710156115b8576115b3818b85886120c5565b6115c4565b6115c48a828587612187565b6000807f00000000000000000000000000000000000000000000000000000000000000006001600160a01b0316635ccfb71d858561160187610ccb565b6040516001600160e01b031960e086901b1681526001600160a01b03938416600482015292909116602483015260448201526064016040805180830381865afa158015611652573d6000803e3d6000fd5b505050506040513d601f19601f8201168201806040525081019061167691906128d3565b9150915061168383610ccb565b975061168e8c610ccb565b985061169b898383612278565b156116b3575050505050505050505050505050505050565b60026116bf8284612927565b6116c99190612833565b99505050611217565b6000816001600160a01b0316630dfe16816040518163ffffffff1660e01b8152600401602060405180830381865afa158015611712573d6000803e3d6000fd5b505050506040513d601f19601f820116820180604052508101906117369190612868565b90506000826001600160a01b031663d21220a76040518163ffffffff1660e01b8152600401602060405180830381865afa158015611778573d6000803e3d6000fd5b505050506040513d601f19601f8201168201806040525081019061179c9190612868565b90506117bc836117ab84610ccb565b6001600160a01b0385169190611daa565b6117da836117c983610ccb565b6001600160a01b0384169190611daa565b7f00000000000000000000000000000000000000000000000000000000000000006001600160a01b0316638e3c92e461181284610ccb565b61181b84610ccb565b3387604051806080016040528060008152602001600081526020016000815260200160008152506040518663ffffffff1660e01b8152600401611862959493929190612b8d565b6020604051808303816000875af1158015611881573d6000803e3d6000fd5b505050506040513d601f19601f820116820180604052508101906118a591906126ad565b506118bb6001600160a01b038316846000611e2f565b6101b56001600160a01b038216846000611e2f565b6000836001600160a01b0316630dfe16816040518163ffffffff1660e01b8152600401602060405180830381865afa158015611910573d6000803e3d6000fd5b505050506040513d601f19601f820116820180604052508101906119349190612868565b90506000836001600160a01b0316826001600160a01b03161461195757816119b9565b846001600160a01b031663d21220a76040518163ffffffff1660e01b8152600401602060405180830381865afa158015611995573d6000803e3d6000fd5b505050506040513d601f19601f820116820180604052508101906119b99190612868565b905060006119c682610ccb565b90506119fc6001600160a01b0383167f000000000000000000000000000000000000000000000000000000000000000083611daa565b7f00000000000000000000000000000000000000000000000000000000000000006001600160a01b031663414bf389604051806101000160405280856001600160a01b03168152602001886001600160a01b031681526020018762ffffff168152602001306001600160a01b0316815260200142603c611a7c9190612927565b81526020018481526020016000815260200160006001600160a01b03168152506040518263ffffffff1660e01b8152600401611ab89190612bc0565b6020604051808303816000875af1158015611ad7573d6000803e3d6000fd5b505050506040513d601f19601f82011682018060405250810190611afb91906126ad565b50611b316001600160a01b0383167f00000000000000000000000000000000000000000000000000000000000000006000611e2f565b611b4f33611b3e84610ccb565b6001600160a01b0385169190610d3c565b505050505050565b6001600160a01b03811660009081526003602052604081206002018054611b7d906126c6565b80601f0160208091040260200160405190810160405280929190818152602001828054611ba9906126c6565b8015611bf65780601f10611bcb57610100808354040283529160200191611bf6565b820191906000526020600020905b815481529060010190602001808311611bd957829003601f168201915b505050505090506000611c287f0000000000000000000000000000000000000000000000000000000000000000610ccb565b9050611c7e6001600160a01b037f0000000000000000000000000000000000000000000000000000000000000000167f000000000000000000000000000000000000000000000000000000000000000083611daa565b6040805160a0810182528381523060208201526001600160a01b037f0000000000000000000000000000000000000000000000000000000000000000169163c04b8d5991908101611cd042603c612927565b815260200184815260200160008152506040518263ffffffff1660e01b8152600401611cfc919061295e565b6020604051808303816000875af1158015611d1b573d6000803e3d6000fd5b505050506040513d601f19601f82011682018060405250810190611d3f91906126ad565b506101b56001600160a01b037f0000000000000000000000000000000000000000000000000000000000000000167f00000000000000000000000000000000000000000000000000000000000000006000611e2f565b6060611da383836000612292565b9392505050565b604051636eb1769f60e11b81523060048201526001600160a01b0383811660248301526000919085169063dd62ed3e90604401602060405180830381865afa158015611dfa573d6000803e3d6000fd5b505050506040513d601f19601f82011682018060405250810190611e1e91906126ad565b90506108488484611e2f8585612927565b604080516001600160a01b038416602482015260448082018490528251808303909101815260649091019091526020810180516001600160e01b031663095ea7b360e01b179052611e80848261232f565b610848576040516001600160a01b03848116602483015260006044830152611eb591869182169063095ea7b390606401610816565b6108488482610d6d565b6040805160608101825260008082526020820181905291810191909152826001600160a01b0316846001600160a01b03161115611efa579192915b50604080516060810182526001600160a01b03948516815292909316602083015262ffffff169181019190915290565b600081602001516001600160a01b031682600001516001600160a01b031610611f5257600080fd5b815160208084015160408086015181516001600160a01b0395861681860152949092168482015262ffffff90911660608085019190915281518085038201815260808501909252815191909201206001600160f81b031960a08401529085901b6bffffffffffffffffffffffff191660a183015260b58201527fe34f199b19b2b4f47f68442619d555527d244f78a3297ea89325f843f87b8b5460d582015260f50160408051601f1981840301815291905280516020909101209392505050565b600080806000198587098587029250828110838203039150508060000361204c576000841161204157600080fd5b508290049050611da3565b80841161205857600080fd5b6000848688096000868103871696879004966002600389028118808a02820302808a02820302808a02820302808a02820302808a02820302808a02909103029181900381900460010186841190950394909402919094039290920491909117919091029150509392505050565b6120f96001600160a01b0385167f000000000000000000000000000000000000000000000000000000000000000083611daa565b60408051610100810182526001600160a01b038681168252858116602083015262ffffff85168284015230606083015242608083015260a08201849052600060c0830181905260e0830152915163414bf38960e01b81527f00000000000000000000000000000000000000000000000000000000000000009092169163414bf38991610ea891600401612bc0565b6121c57f00000000000000000000000000000000000000000000000000000000000000006121b486610ccb565b6001600160a01b0387169190611daa565b7f00000000000000000000000000000000000000000000000000000000000000006001600160a01b031663db3e2198604051806101000160405280876001600160a01b03168152602001866001600160a01b031681526020018562ffffff168152602001306001600160a01b0316815260200142815260200184815260200161224d88610ccb565b815260006020909101526040516001600160e01b031960e084901b168152610ea89190600401612bc0565b600082841015801561228a5750818411155b949350505050565b6060814710156122b75760405163cd78605960e01b81523060048201526024016105a6565b600080856001600160a01b031684866040516122d39190612c2a565b60006040518083038185875af1925050503d8060008114612310576040519150601f19603f3d011682016040523d82523d6000602084013e612315565b606091505b50915091506123258683836123d7565b9695505050505050565b6000806000846001600160a01b03168460405161234c9190612c2a565b6000604051808303816000865af19150503d8060008114612389576040519150601f19603f3d011682016040523d82523d6000602084013e61238e565b606091505b50915091508180156123b85750805115806123b85750808060200190518101906123b8919061290c565b80156123ce57506000856001600160a01b03163b115b95945050505050565b6060826123ec576123e782612433565b611da3565b815115801561240357506001600160a01b0384163b155b1561242c57604051639996b31560e01b81526001600160a01b03851660048201526024016105a6565b5080611da3565b8051156124435780518082602001fd5b604051630a12f52160e11b815260040160405180910390fd5b508054612468906126c6565b6000825580601f10612478575050565b601f0160209004906000526020600020908101906105b891905b808211156124a65760008155600101612492565b5090565b6001600160a01b03811681146105b857600080fd5b6000602082840312156124d157600080fd5b8135611da3816124aa565b600080604083850312156124ef57600080fd5b82356124fa816124aa565b946020939093013593505050565b6000806040838503121561251b57600080fd5b82359150602083013561252d816124aa565b809150509250929050565b634e487b7160e01b600052604160045260246000fd5b600082601f83011261255f57600080fd5b813567ffffffffffffffff8082111561257a5761257a612538565b604051601f8301601f19908116603f011681019082821181831017156125a2576125a2612538565b816040528381528660208588010111156125bb57600080fd5b836020870160208301376000602085830101528094505050505092915050565b600080600080600060a086880312156125f357600080fd5b85356125fe816124aa565b9450602086013561260e816124aa565b9350604086013562ffffff8116811461262657600080fd5b9250606086013567ffffffffffffffff8082111561264357600080fd5b61264f89838a0161254e565b9350608088013591508082111561266557600080fd5b506126728882890161254e565b9150509295509295909350565b6000806040838503121561269257600080fd5b823561269d816124aa565b9150602083013561252d816124aa565b6000602082840312156126bf57600080fd5b5051919050565b600181811c908216806126da57607f821691505b6020821081036126fa57634e487b7160e01b600052602260045260246000fd5b50919050565b601f8211156101b557600081815260208120601f850160051c810160208610156127275750805b601f850160051c820191505b81811015611b4f57828155600101612733565b815167ffffffffffffffff81111561276057612760612538565b6127748161276e84546126c6565b84612700565b602080601f8311600181146127a957600084156127915750858301515b600019600386901b1c1916600185901b178555611b4f565b600085815260208120601f198616915b828110156127d8578886015182559484019460019091019084016127b9565b50858210156127f65787850151600019600388901b60f8161c191681555b5050505050600190811b01905550565b634e487b7160e01b600052601160045260246000fd5b8082028115828204841417610d3657610d36612806565b60008261285057634e487b7160e01b600052601260045260246000fd5b500490565b81810381811115610d3657610d36612806565b60006020828403121561287a57600080fd5b8151611da3816124aa565b8060005b6004811015610848578151845260209384019390910190600101612889565b8481526001600160a01b0384811660208301528316604082015260e081016123ce6060830184612885565b600080604083850312156128e657600080fd5b505080516020909101519092909150565b8051801515811461290757600080fd5b919050565b60006020828403121561291e57600080fd5b611da3826128f7565b80820180821115610d3657610d36612806565b60005b8381101561295557818101518382015260200161293d565b50506000910152565b602081526000825160a0602084015280518060c08501526129868160e086016020850161293a565b60018060a01b0360208601511660408501526040850151606085015260608501516080850152608085015160a085015260e0601f19601f8301168501019250505092915050565b805161ffff8116811461290757600080fd5b805160ff8116811461290757600080fd5b600080600080600080600060e0888a031215612a0b57600080fd5b8751612a16816124aa565b8097505060208801518060020b8114612a2e57600080fd5b9550612a3c604089016129cd565b9450612a4a606089016129cd565b9350612a58608089016129cd565b9250612a6660a089016129df565b9150612a7460c089016128f7565b905092959891949750929550565b600060208284031215612a9457600080fd5b611da3826129df565b600181815b80851115612ad8578160001904821115612abe57612abe612806565b80851615612acb57918102915b93841c9390800290612aa2565b509250929050565b600082612aef57506001610d36565b81612afc57506000610d36565b8160018114612b125760028114612b1c57612b38565b6001915050610d36565b60ff841115612b2d57612b2d612806565b50506001821b610d36565b5060208310610133831016604e8410600b8410161715612b5b575081810a610d36565b612b658383612a9d565b8060001904821115612b7957612b79612806565b029392505050565b6000611da38383612ae0565b858152602081018590526001600160a01b0384811660408301528316606082015261010081016123256080830184612885565b6101008101610d36828480516001600160a01b03908116835260208083015182169084015260408083015162ffffff16908401526060808301518216908401526080808301519084015260a0828101519084015260c0808301519084015260e09182015116910152565b60008251612c3c81846020870161293a565b919091019291505056fea26469706673582212207b6f4c64ad65b1c8bf03ea60f380ee5a4d27bdc3aab35316547ff2314a3b8abe64736f6c634300081500330000000000000000000000002ea0be86990e8dac0d09e4316bb92086f304622d000000000000000000000000af88d065e77c8cc2239327c5edb3a432268e583100000000000000000000000082fceb07a4d01051519663f6c1c919af21c27845000000000000000000000000547a116a2622876ce1c8d19d41c683c8f7bec5c0000000000000000000000000e592427a0aece92de3edee1f18e0157c05861564",
        "nonce": "0x196",
        "chainId": "0xa4b1"
      },
      "additionalContracts": [],
      "isFixedGasLimit": false
    },
    {
      "hash": "0x2f10699c6a21200e2a5a3b6568b892b95da22497599735805463eb89ec2b4d0b",
      "transactionType": "CALL",
      "contractName": null,
      "contractAddress": "0x496aB4A155C8fE359Cd28d43650fAFA0A35322Fb",
      "function": "setYieldManager(address)",
      "arguments": [
        "0x172DF12aF47864389EAF4bC1EA93877bE1Dd7ae9"
      ],
      "transaction": {
        "from": "0xF9d85965c6A40D0C029471d758850e4b4C0d5b17",
        "to": "0x496aB4A155C8fE359Cd28d43650fAFA0A35322Fb",
        "gas": "0x47555",
        "value": "0x0",
        "input": "0x74ce962c000000000000000000000000172df12af47864389eaf4bc1ea93877be1dd7ae9",
        "nonce": "0x197",
        "chainId": "0xa4b1"
      },
      "additionalContracts": [],
      "isFixedGasLimit": false
    },
    {
      "hash": "0x397a83f2410d4e20eae68571230785bbc059695a6db43ca0e799f15cd7734e0b",
      "transactionType": "CALL",
      "contractName": null,
      "contractAddress": "0x172DF12aF47864389EAF4bC1EA93877bE1Dd7ae9",
      "function": "addHypervisorData(address,address,uint24,bytes,bytes)",
      "arguments": [
        "0x82aF49447D8a07e3bd95BD0d56f35241523fBab1",
        "0x52ee1FFBA696c5E9b0Bc177A9f8a3098420EA691",
        "3000",
        "0x82af49447d8a07e3bd95bd0d56f35241523fbab10001f4af88d065e77c8cc2239327c5edb3a432268e5831",
        "0xaf88d065e77c8cc2239327c5edb3a432268e58310001f482af49447d8a07e3bd95bd0d56f35241523fbab1"
      ],
      "transaction": {
        "from": "0xF9d85965c6A40D0C029471d758850e4b4C0d5b17",
        "to": "0x172DF12aF47864389EAF4bC1EA93877bE1Dd7ae9",
        "gas": "0x81871",
        "value": "0x0",
        "input": "0xcc29a7a500000000000000000000000082af49447d8a07e3bd95bd0d56f35241523fbab100000000000000000000000052ee1ffba696c5e9b0bc177a9f8a3098420ea6910000000000000000000000000000000000000000000000000000000000000bb800000000000000000000000000000000000000000000000000000000000000a00000000000000000000000000000000000000000000000000000000000000100000000000000000000000000000000000000000000000000000000000000002b82af49447d8a07e3bd95bd0d56f35241523fbab10001f4af88d065e77c8cc2239327c5edb3a432268e5831000000000000000000000000000000000000000000000000000000000000000000000000000000000000000000000000000000002baf88d065e77c8cc2239327c5edb3a432268e58310001f482af49447d8a07e3bd95bd0d56f35241523fbab1000000000000000000000000000000000000000000",
        "nonce": "0x198",
        "chainId": "0xa4b1"
      },
      "additionalContracts": [],
      "isFixedGasLimit": false
    },
    {
      "hash": "0x6091fb305e03070d6bb5ec1cdf9bcf8b3b738d11bb9f08c87c7cf638a9cba5ca",
      "transactionType": "CALL",
      "contractName": null,
      "contractAddress": "0x172DF12aF47864389EAF4bC1EA93877bE1Dd7ae9",
      "function": "addHypervisorData(address,address,uint24,bytes,bytes)",
      "arguments": [
        "0x2f2a2543B76A4166549F7aaB2e75Bef0aefC5B0f",
        "0x52ee1FFBA696c5E9b0Bc177A9f8a3098420EA691",
        "3000",
        "0x2f2a2543b76a4166549f7aab2e75bef0aefc5b0f0001f4af88d065e77c8cc2239327c5edb3a432268e5831",
        "0xaf88d065e77c8cc2239327c5edb3a432268e58310001f42f2a2543b76a4166549f7aab2e75bef0aefc5b0f"
      ],
      "transaction": {
        "from": "0xF9d85965c6A40D0C029471d758850e4b4C0d5b17",
        "to": "0x172DF12aF47864389EAF4bC1EA93877bE1Dd7ae9",
        "gas": "0x83381",
        "value": "0x0",
        "input": "0xcc29a7a50000000000000000000000002f2a2543b76a4166549f7aab2e75bef0aefc5b0f00000000000000000000000052ee1ffba696c5e9b0bc177a9f8a3098420ea6910000000000000000000000000000000000000000000000000000000000000bb800000000000000000000000000000000000000000000000000000000000000a00000000000000000000000000000000000000000000000000000000000000100000000000000000000000000000000000000000000000000000000000000002b2f2a2543b76a4166549f7aab2e75bef0aefc5b0f0001f4af88d065e77c8cc2239327c5edb3a432268e5831000000000000000000000000000000000000000000000000000000000000000000000000000000000000000000000000000000002baf88d065e77c8cc2239327c5edb3a432268e58310001f42f2a2543b76a4166549f7aab2e75bef0aefc5b0f000000000000000000000000000000000000000000",
        "nonce": "0x199",
        "chainId": "0xa4b1"
      },
      "additionalContracts": [],
      "isFixedGasLimit": false
    },
    {
      "hash": "0xe9b51388ed78dad53089144bd0c79250e7c284696c404eebfd5ef17ca6baaf0c",
      "transactionType": "CALL",
      "contractName": null,
      "contractAddress": "0x172DF12aF47864389EAF4bC1EA93877bE1Dd7ae9",
      "function": "addHypervisorData(address,address,uint24,bytes,bytes)",
      "arguments": [
        "0x912CE59144191C1204E64559FE8253a0e49E6548",
        "0x6B7635b7d2E85188dB41C3c05B1efa87B143fcE8",
        "10000",
        "0x912ce59144191c1204e64559fe8253a0e49e65480001f482af49447d8a07e3bd95bd0d56f35241523fbab10001f4af88d065e77c8cc2239327c5edb3a432268e5831",
        "0xaf88d065e77c8cc2239327c5edb3a432268e58310001f482af49447d8a07e3bd95bd0d56f35241523fbab10001f4912ce59144191c1204e64559fe8253a0e49e6548"
      ],
      "transaction": {
        "from": "0xF9d85965c6A40D0C029471d758850e4b4C0d5b17",
        "to": "0x172DF12aF47864389EAF4bC1EA93877bE1Dd7ae9",
        "gas": "0x8b936",
        "value": "0x0",
        "input": "0xcc29a7a5000000000000000000000000912ce59144191c1204e64559fe8253a0e49e65480000000000000000000000006b7635b7d2e85188db41c3c05b1efa87b143fce8000000000000000000000000000000000000000000000000000000000000271000000000000000000000000000000000000000000000000000000000000000a000000000000000000000000000000000000000000000000000000000000001200000000000000000000000000000000000000000000000000000000000000042912ce59144191c1204e64559fe8253a0e49e65480001f482af49447d8a07e3bd95bd0d56f35241523fbab10001f4af88d065e77c8cc2239327c5edb3a432268e58310000000000000000000000000000000000000000000000000000000000000000000000000000000000000000000000000000000000000000000000000042af88d065e77c8cc2239327c5edb3a432268e58310001f482af49447d8a07e3bd95bd0d56f35241523fbab10001f4912ce59144191c1204e64559fe8253a0e49e6548000000000000000000000000000000000000000000000000000000000000",
        "nonce": "0x19a",
        "chainId": "0xa4b1"
      },
      "additionalContracts": [],
      "isFixedGasLimit": false
    },
    {
      "hash": "0x72f6bd6ca70694617748b0ed94aa9cd4509b80b4ffea3c7d7f1e57e5a3168ab5",
      "transactionType": "CALL",
      "contractName": null,
      "contractAddress": "0x172DF12aF47864389EAF4bC1EA93877bE1Dd7ae9",
      "function": "addHypervisorData(address,address,uint24,bytes,bytes)",
      "arguments": [
        "0xf97f4df75117a78c1A5a0DBb814Af92458539FB4",
        "0xfA392dbefd2d5ec891eF5aEB87397A89843a8260",
        "3000",
        "0xf97f4df75117a78c1a5a0dbb814af92458539fb4000bb882af49447d8a07e3bd95bd0d56f35241523fbab10001f4af88d065e77c8cc2239327c5edb3a432268e5831",
        "0xaf88d065e77c8cc2239327c5edb3a432268e58310001f482af49447d8a07e3bd95bd0d56f35241523fbab1000bb8f97f4df75117a78c1a5a0dbb814af92458539fb4"
      ],
      "transaction": {
        "from": "0xF9d85965c6A40D0C029471d758850e4b4C0d5b17",
        "to": "0x172DF12aF47864389EAF4bC1EA93877bE1Dd7ae9",
        "gas": "0x8d99e",
        "value": "0x0",
        "input": "0xcc29a7a5000000000000000000000000f97f4df75117a78c1a5a0dbb814af92458539fb4000000000000000000000000fa392dbefd2d5ec891ef5aeb87397a89843a82600000000000000000000000000000000000000000000000000000000000000bb800000000000000000000000000000000000000000000000000000000000000a000000000000000000000000000000000000000000000000000000000000001200000000000000000000000000000000000000000000000000000000000000042f97f4df75117a78c1a5a0dbb814af92458539fb4000bb882af49447d8a07e3bd95bd0d56f35241523fbab10001f4af88d065e77c8cc2239327c5edb3a432268e58310000000000000000000000000000000000000000000000000000000000000000000000000000000000000000000000000000000000000000000000000042af88d065e77c8cc2239327c5edb3a432268e58310001f482af49447d8a07e3bd95bd0d56f35241523fbab1000bb8f97f4df75117a78c1a5a0dbb814af92458539fb4000000000000000000000000000000000000000000000000000000000000",
        "nonce": "0x19b",
        "chainId": "0xa4b1"
      },
      "additionalContracts": [],
      "isFixedGasLimit": false
    },
    {
      "hash": "0x0cd229fa3bb9197364a86f9a13f161a7227bdb08aca3a650771358cf94f46f57",
      "transactionType": "CALL",
      "contractName": null,
      "contractAddress": "0x172DF12aF47864389EAF4bC1EA93877bE1Dd7ae9",
      "function": "addHypervisorData(address,address,uint24,bytes,bytes)",
      "arguments": [
        "0xfc5A1A6EB076a2C7aD06eD22C90d7E710E35ad0a",
        "0xF08BDBC590C59cb7B27A8D224E419ef058952b5f",
        "3000",
        "0xfc5a1a6eb076a2c7ad06ed22c90d7e710e35ad0a00271082af49447d8a07e3bd95bd0d56f35241523fbab10001f4af88d065e77c8cc2239327c5edb3a432268e5831",
        "0xaf88d065e77c8cc2239327c5edb3a432268e58310001f482af49447d8a07e3bd95bd0d56f35241523fbab1002710fc5a1a6eb076a2c7ad06ed22c90d7e710e35ad0a"
      ],
      "transaction": {
        "from": "0xF9d85965c6A40D0C029471d758850e4b4C0d5b17",
        "to": "0x172DF12aF47864389EAF4bC1EA93877bE1Dd7ae9",
        "gas": "0x8e450",
        "value": "0x0",
        "input": "0xcc29a7a5000000000000000000000000fc5a1a6eb076a2c7ad06ed22c90d7e710e35ad0a000000000000000000000000f08bdbc590c59cb7b27a8d224e419ef058952b5f0000000000000000000000000000000000000000000000000000000000000bb800000000000000000000000000000000000000000000000000000000000000a000000000000000000000000000000000000000000000000000000000000001200000000000000000000000000000000000000000000000000000000000000042fc5a1a6eb076a2c7ad06ed22c90d7e710e35ad0a00271082af49447d8a07e3bd95bd0d56f35241523fbab10001f4af88d065e77c8cc2239327c5edb3a432268e58310000000000000000000000000000000000000000000000000000000000000000000000000000000000000000000000000000000000000000000000000042af88d065e77c8cc2239327c5edb3a432268e58310001f482af49447d8a07e3bd95bd0d56f35241523fbab1002710fc5a1a6eb076a2c7ad06ed22c90d7e710e35ad0a000000000000000000000000000000000000000000000000000000000000",
        "nonce": "0x19c",
        "chainId": "0xa4b1"
      },
      "additionalContracts": [],
      "isFixedGasLimit": false
    },
    {
      "hash": "0x493b4075a4dfae28d59b786607ed311944424406cbf69c12a9d34cd081f42f02",
      "transactionType": "CALL",
      "contractName": null,
      "contractAddress": "0x172DF12aF47864389EAF4bC1EA93877bE1Dd7ae9",
      "function": "addHypervisorData(address,address,uint24,bytes,bytes)",
      "arguments": [
        "0x3082CC23568eA640225c2467653dB90e9250AaA0",
        "0x2BCBDD577616357464CFe307Bc67F9e820A66e80",
        "3000",
        "0x3082cc23568ea640225c2467653db90e9250aaa0000bb882af49447d8a07e3bd95bd0d56f35241523fbab10001f4af88d065e77c8cc2239327c5edb3a432268e5831",
        "0xaf88d065e77c8cc2239327c5edb3a432268e58310001f482af49447d8a07e3bd95bd0d56f35241523fbab1000bb83082cc23568ea640225c2467653db90e9250aaa0"
      ],
      "transaction": {
        "from": "0xF9d85965c6A40D0C029471d758850e4b4C0d5b17",
        "to": "0x172DF12aF47864389EAF4bC1EA93877bE1Dd7ae9",
        "gas": "0x8b3de",
        "value": "0x0",
        "input": "0xcc29a7a50000000000000000000000003082cc23568ea640225c2467653db90e9250aaa00000000000000000000000002bcbdd577616357464cfe307bc67f9e820a66e800000000000000000000000000000000000000000000000000000000000000bb800000000000000000000000000000000000000000000000000000000000000a0000000000000000000000000000000000000000000000000000000000000012000000000000000000000000000000000000000000000000000000000000000423082cc23568ea640225c2467653db90e9250aaa0000bb882af49447d8a07e3bd95bd0d56f35241523fbab10001f4af88d065e77c8cc2239327c5edb3a432268e58310000000000000000000000000000000000000000000000000000000000000000000000000000000000000000000000000000000000000000000000000042af88d065e77c8cc2239327c5edb3a432268e58310001f482af49447d8a07e3bd95bd0d56f35241523fbab1000bb83082cc23568ea640225c2467653db90e9250aaa0000000000000000000000000000000000000000000000000000000000000",
        "nonce": "0x19d",
        "chainId": "0xa4b1"
      },
      "additionalContracts": [],
      "isFixedGasLimit": false
    },
    {
      "hash": "0x20d9a2db4fe6427b984677fc246bcd69fa5972934ed1c7e97bd96b1fdcf4125a",
      "transactionType": "CALL",
      "contractName": null,
      "contractAddress": "0xE7b538f6deB6314c55118e46b4014Ca496292709",
      "function": "depositYield(bytes32,uint256,uint256,uint256)",
      "arguments": [
        "0x5742544300000000000000000000000000000000000000000000000000000000",
        "50000",
        "10000",
        "1729255094"
      ],
      "transaction": {
        "from": "0xF9d85965c6A40D0C029471d758850e4b4C0d5b17",
        "to": "0xE7b538f6deB6314c55118e46b4014Ca496292709",
        "gas": "0x38dd51",
        "value": "0x0",
        "input": "0x549479125742544300000000000000000000000000000000000000000000000000000000000000000000000000000000000000000000000000000000000000000000c350000000000000000000000000000000000000000000000000000000000000271000000000000000000000000000000000000000000000000000000000671256b6",
        "nonce": "0x19e",
        "chainId": "0xa4b1"
      },
      "additionalContracts": [],
      "isFixedGasLimit": false
    }
  ],
  "receipts": [
    {
      "status": "0x1",
      "cumulativeGasUsed": "0xc05120",
      "logs": [
        {
          "address": "0x172DF12aF47864389EAF4bC1EA93877bE1Dd7ae9",
          "topics": [
            "0x8be0079c531659141344cd1fd0a4f28419497f9722a3daafe3b4186f6b6457e0",
            "0x0000000000000000000000000000000000000000000000000000000000000000",
            "0x000000000000000000000000f9d85965c6a40d0c029471d758850e4b4c0d5b17"
          ],
          "data": "0x",
          "blockHash": "0x5de5515098d981776859945017883df39cc9f3cef7267c5e608b5b618c6ef961",
          "blockNumber": "0xfc84e48",
          "transactionHash": "0xcf6c45ef9268f82d728c65b94258b826d9db22070dcac3075365cb7ff929edd3",
          "transactionIndex": "0xe",
          "logIndex": "0x24",
          "removed": false
        }
      ],
      "logsBloom": "0x00000000000000000000000000000000000000008000000000800000000000000000000000000000000000000000000000000000000000000000000000000000000000000000000000000000000000000001800000000000000000000000000000000000020000000000000000000800000000000000100000000000000000400000000000000000001000000000000000000000000000000000000000000000000000000000000000000000000000000000000000000000000000000000000000000000000000000000000000000000000000000000000040000000000020000000000000000000000000000000000000000000000000002000000000000000",
      "type": "0x2",
      "transactionHash": "0xcf6c45ef9268f82d728c65b94258b826d9db22070dcac3075365cb7ff929edd3",
      "transactionIndex": "0xe",
      "blockHash": "0x5de5515098d981776859945017883df39cc9f3cef7267c5e608b5b618c6ef961",
      "blockNumber": "0xfc84e48",
      "gasUsed": "0x790387",
      "effectiveGasPrice": "0x9a3878",
      "from": "0xF9d85965c6A40D0C029471d758850e4b4C0d5b17",
      "to": null,
      "contractAddress": "0x172DF12aF47864389EAF4bC1EA93877bE1Dd7ae9",
      "gasUsedForL1": "0x524b0b",
      "l1BlockNumber": "0x1403850"
    },
    {
      "status": "0x1",
      "cumulativeGasUsed": "0x2aa49",
      "logs": [],
      "logsBloom": "0x00000000000000000000000000000000000000000000000000000000000000000000000000000000000000000000000000000000000000000000000000000000000000000000000000000000000000000000000000000000000000000000000000000000000000000000000000000000000000000000000000000000000000000000000000000000000000000000000000000000000000000000000000000000000000000000000000000000000000000000000000000000000000000000000000000000000000000000000000000000000000000000000000000000000000000000000000000000000000000000000000000000000000000000000000000000",
      "type": "0x2",
      "transactionHash": "0x2f10699c6a21200e2a5a3b6568b892b95da22497599735805463eb89ec2b4d0b",
      "transactionIndex": "0x1",
      "blockHash": "0xa5719d00c15c289a770f35f7ac1917e92ba1e780dd1236cbc47e93a6340a90c3",
      "blockNumber": "0xfc84e65",
      "gasUsed": "0x2aa49",
      "effectiveGasPrice": "0x999080",
      "from": "0xF9d85965c6A40D0C029471d758850e4b4C0d5b17",
      "to": "0x496aB4A155C8fE359Cd28d43650fAFA0A35322Fb",
      "contractAddress": null,
      "gasUsedForL1": "0x2251a",
      "l1BlockNumber": "0x1403851"
    },
    {
      "status": "0x1",
      "cumulativeGasUsed": "0x1c73be",
      "logs": [],
      "logsBloom": "0x00000000000000000000000000000000000000000000000000000000000000000000000000000000000000000000000000000000000000000000000000000000000000000000000000000000000000000000000000000000000000000000000000000000000000000000000000000000000000000000000000000000000000000000000000000000000000000000000000000000000000000000000000000000000000000000000000000000000000000000000000000000000000000000000000000000000000000000000000000000000000000000000000000000000000000000000000000000000000000000000000000000000000000000000000000000",
      "type": "0x2",
      "transactionHash": "0x397a83f2410d4e20eae68571230785bbc059695a6db43ca0e799f15cd7734e0b",
      "transactionIndex": "0x5",
      "blockHash": "0x0294df7d6d6e685118e33661475b9198ef1c9816b13468473b8695a20f297688",
      "blockNumber": "0xfc84e6a",
      "gasUsed": "0x754d4",
      "effectiveGasPrice": "0x99c348",
      "from": "0xF9d85965c6A40D0C029471d758850e4b4C0d5b17",
      "to": "0x172DF12aF47864389EAF4bC1EA93877bE1Dd7ae9",
      "contractAddress": null,
      "gasUsedForL1": "0x4875b",
      "l1BlockNumber": "0x1403851"
    },
    {
      "status": "0x1",
      "cumulativeGasUsed": "0x1ab3e5",
      "logs": [],
      "logsBloom": "0x00000000000000000000000000000000000000000000000000000000000000000000000000000000000000000000000000000000000000000000000000000000000000000000000000000000000000000000000000000000000000000000000000000000000000000000000000000000000000000000000000000000000000000000000000000000000000000000000000000000000000000000000000000000000000000000000000000000000000000000000000000000000000000000000000000000000000000000000000000000000000000000000000000000000000000000000000000000000000000000000000000000000000000000000000000000",
      "type": "0x2",
      "transactionHash": "0x6091fb305e03070d6bb5ec1cdf9bcf8b3b738d11bb9f08c87c7cf638a9cba5ca",
      "transactionIndex": "0x4",
      "blockHash": "0xbd6f817d1425d5487845ade7f7c2f9e837067b43c485f35eeeaa43d2db4bde8c",
      "blockNumber": "0xfc84e70",
      "gasUsed": "0x78ac4",
      "effectiveGasPrice": "0x997528",
      "from": "0xF9d85965c6A40D0C029471d758850e4b4C0d5b17",
      "to": "0x172DF12aF47864389EAF4bC1EA93877bE1Dd7ae9",
      "contractAddress": null,
      "gasUsedForL1": "0x4bd4b",
      "l1BlockNumber": "0x1403851"
    },
    {
      "status": "0x1",
      "cumulativeGasUsed": "0x10ac03",
      "logs": [],
      "logsBloom": "0x00000000000000000000000000000000000000000000000000000000000000000000000000000000000000000000000000000000000000000000000000000000000000000000000000000000000000000000000000000000000000000000000000000000000000000000000000000000000000000000000000000000000000000000000000000000000000000000000000000000000000000000000000000000000000000000000000000000000000000000000000000000000000000000000000000000000000000000000000000000000000000000000000000000000000000000000000000000000000000000000000000000000000000000000000000000",
      "type": "0x2",
      "transactionHash": "0xe9b51388ed78dad53089144bd0c79250e7c284696c404eebfd5ef17ca6baaf0c",
      "transactionIndex": "0x2",
      "blockHash": "0x12662a09e4974853777bc070ccffbf034356c2f014d8089654574e27514e96fe",
      "blockNumber": "0xfc84e76",
      "gasUsed": "0x89ee1",
      "effectiveGasPrice": "0x989680",
      "from": "0xF9d85965c6A40D0C029471d758850e4b4C0d5b17",
      "to": "0x172DF12aF47864389EAF4bC1EA93877bE1Dd7ae9",
      "contractAddress": null,
      "gasUsedForL1": "0x520ee",
      "l1BlockNumber": "0x1403851"
    },
    {
      "status": "0x1",
      "cumulativeGasUsed": "0x1f794e",
      "logs": [],
      "logsBloom": "0x00000000000000000000000000000000000000000000000000000000000000000000000000000000000000000000000000000000000000000000000000000000000000000000000000000000000000000000000000000000000000000000000000000000000000000000000000000000000000000000000000000000000000000000000000000000000000000000000000000000000000000000000000000000000000000000000000000000000000000000000000000000000000000000000000000000000000000000000000000000000000000000000000000000000000000000000000000000000000000000000000000000000000000000000000000000",
      "type": "0x2",
      "transactionHash": "0x72f6bd6ca70694617748b0ed94aa9cd4509b80b4ffea3c7d7f1e57e5a3168ab5",
      "transactionIndex": "0x5",
      "blockHash": "0x6225301305e1fc57ed837aaa033d6107a6c45f14e3240ae1c931daafaafd7820",
      "blockNumber": "0xfc84e7c",
      "gasUsed": "0x8b521",
      "effectiveGasPrice": "0x989680",
      "from": "0xF9d85965c6A40D0C029471d758850e4b4C0d5b17",
      "to": "0x172DF12aF47864389EAF4bC1EA93877bE1Dd7ae9",
      "contractAddress": null,
      "gasUsedForL1": "0x5372e",
      "l1BlockNumber": "0x1403851"
    },
    {
      "status": "0x1",
      "cumulativeGasUsed": "0x8ca92",
      "logs": [],
      "logsBloom": "0x00000000000000000000000000000000000000000000000000000000000000000000000000000000000000000000000000000000000000000000000000000000000000000000000000000000000000000000000000000000000000000000000000000000000000000000000000000000000000000000000000000000000000000000000000000000000000000000000000000000000000000000000000000000000000000000000000000000000000000000000000000000000000000000000000000000000000000000000000000000000000000000000000000000000000000000000000000000000000000000000000000000000000000000000000000000",
      "type": "0x2",
      "transactionHash": "0x0cd229fa3bb9197364a86f9a13f161a7227bdb08aca3a650771358cf94f46f57",
      "transactionIndex": "0x1",
      "blockHash": "0xedca63ecdbcf19b27a0d8d64563caa367d96312b19e108d2a2b046cccbb50842",
      "blockNumber": "0xfc84e81",
      "gasUsed": "0x8ca92",
      "effectiveGasPrice": "0x98adf0",
      "from": "0xF9d85965c6A40D0C029471d758850e4b4C0d5b17",
      "to": "0x172DF12aF47864389EAF4bC1EA93877bE1Dd7ae9",
      "contractAddress": null,
      "gasUsedForL1": "0x54c9f",
      "l1BlockNumber": "0x1403851"
    },
    {
      "status": "0x1",
      "cumulativeGasUsed": "0x893c0",
      "logs": [],
      "logsBloom": "0x00000000000000000000000000000000000000000000000000000000000000000000000000000000000000000000000000000000000000000000000000000000000000000000000000000000000000000000000000000000000000000000000000000000000000000000000000000000000000000000000000000000000000000000000000000000000000000000000000000000000000000000000000000000000000000000000000000000000000000000000000000000000000000000000000000000000000000000000000000000000000000000000000000000000000000000000000000000000000000000000000000000000000000000000000000000",
      "type": "0x2",
      "transactionHash": "0x493b4075a4dfae28d59b786607ed311944424406cbf69c12a9d34cd081f42f02",
      "transactionIndex": "0x1",
      "blockHash": "0x09e5cbfad276865fefe98cf085404082b07f527390dfd3c3becd749d9278761e",
      "blockNumber": "0xfc84e87",
      "gasUsed": "0x893c0",
      "effectiveGasPrice": "0x989680",
      "from": "0xF9d85965c6A40D0C029471d758850e4b4C0d5b17",
      "to": "0x172DF12aF47864389EAF4bC1EA93877bE1Dd7ae9",
      "contractAddress": null,
      "gasUsedForL1": "0x515cd",
      "l1BlockNumber": "0x1403851"
    },
    {
      "status": "0x1",
      "cumulativeGasUsed": "0x2d7494",
      "logs": [
        {
          "address": "0x2f2a2543B76A4166549F7aaB2e75Bef0aefC5B0f",
          "topics": [
            "0x8c5be1e5ebec7d5bd14f71427d1e84f3dd0314c0f7b2291e5b200ac8c7c3b925",
            "0x000000000000000000000000e7b538f6deb6314c55118e46b4014ca496292709",
            "0x000000000000000000000000172df12af47864389eaf4bc1ea93877be1dd7ae9"
          ],
          "data": "0x000000000000000000000000000000000000000000000000000000000000ad88",
          "blockHash": "0x054a81983f9054347f45c6afe71b8cba4d01ea4172a0f1559961ab9438380d02",
          "blockNumber": "0xfc84e8c",
          "transactionHash": "0x20d9a2db4fe6427b984677fc246bcd69fa5972934ed1c7e97bd96b1fdcf4125a",
          "transactionIndex": "0x2",
          "logIndex": "0x1",
          "removed": false
        },
        {
          "address": "0x2f2a2543B76A4166549F7aaB2e75Bef0aefC5B0f",
          "topics": [
            "0xddf252ad1be2c89b69c2b068fc378daa952ba7f163c4a11628f55a4df523b3ef",
            "0x000000000000000000000000e7b538f6deb6314c55118e46b4014ca496292709",
            "0x000000000000000000000000172df12af47864389eaf4bc1ea93877be1dd7ae9"
          ],
          "data": "0x000000000000000000000000000000000000000000000000000000000000ad88",
          "blockHash": "0x054a81983f9054347f45c6afe71b8cba4d01ea4172a0f1559961ab9438380d02",
          "blockNumber": "0xfc84e8c",
          "transactionHash": "0x20d9a2db4fe6427b984677fc246bcd69fa5972934ed1c7e97bd96b1fdcf4125a",
          "transactionIndex": "0x2",
          "logIndex": "0x2",
          "removed": false
        },
        {
          "address": "0x2f2a2543B76A4166549F7aaB2e75Bef0aefC5B0f",
          "topics": [
            "0x8c5be1e5ebec7d5bd14f71427d1e84f3dd0314c0f7b2291e5b200ac8c7c3b925",
            "0x000000000000000000000000e7b538f6deb6314c55118e46b4014ca496292709",
            "0x000000000000000000000000172df12af47864389eaf4bc1ea93877be1dd7ae9"
          ],
          "data": "0x0000000000000000000000000000000000000000000000000000000000000000",
          "blockHash": "0x054a81983f9054347f45c6afe71b8cba4d01ea4172a0f1559961ab9438380d02",
          "blockNumber": "0xfc84e8c",
          "transactionHash": "0x20d9a2db4fe6427b984677fc246bcd69fa5972934ed1c7e97bd96b1fdcf4125a",
          "transactionIndex": "0x2",
          "logIndex": "0x3",
          "removed": false
        },
        {
          "address": "0x2f2a2543B76A4166549F7aaB2e75Bef0aefC5B0f",
          "topics": [
            "0x8c5be1e5ebec7d5bd14f71427d1e84f3dd0314c0f7b2291e5b200ac8c7c3b925",
            "0x000000000000000000000000172df12af47864389eaf4bc1ea93877be1dd7ae9",
            "0x000000000000000000000000e592427a0aece92de3edee1f18e0157c05861564"
          ],
          "data": "0x00000000000000000000000000000000000000000000000000000000000056c4",
          "blockHash": "0x054a81983f9054347f45c6afe71b8cba4d01ea4172a0f1559961ab9438380d02",
          "blockNumber": "0xfc84e8c",
          "transactionHash": "0x20d9a2db4fe6427b984677fc246bcd69fa5972934ed1c7e97bd96b1fdcf4125a",
          "transactionIndex": "0x2",
          "logIndex": "0x4",
          "removed": false
        },
        {
          "address": "0xaf88d065e77c8cC2239327C5EDb3A432268e5831",
          "topics": [
            "0xddf252ad1be2c89b69c2b068fc378daa952ba7f163c4a11628f55a4df523b3ef",
            "0x0000000000000000000000000e4831319a50228b9e450861297ab92dee15b44f",
            "0x000000000000000000000000172df12af47864389eaf4bc1ea93877be1dd7ae9"
          ],
          "data": "0x0000000000000000000000000000000000000000000000000000000000e21f93",
          "blockHash": "0x054a81983f9054347f45c6afe71b8cba4d01ea4172a0f1559961ab9438380d02",
          "blockNumber": "0xfc84e8c",
          "transactionHash": "0x20d9a2db4fe6427b984677fc246bcd69fa5972934ed1c7e97bd96b1fdcf4125a",
          "transactionIndex": "0x2",
          "logIndex": "0x5",
          "removed": false
        },
        {
          "address": "0x2f2a2543B76A4166549F7aaB2e75Bef0aefC5B0f",
          "topics": [
            "0xddf252ad1be2c89b69c2b068fc378daa952ba7f163c4a11628f55a4df523b3ef",
            "0x000000000000000000000000172df12af47864389eaf4bc1ea93877be1dd7ae9",
            "0x0000000000000000000000000e4831319a50228b9e450861297ab92dee15b44f"
          ],
          "data": "0x00000000000000000000000000000000000000000000000000000000000056c4",
          "blockHash": "0x054a81983f9054347f45c6afe71b8cba4d01ea4172a0f1559961ab9438380d02",
          "blockNumber": "0xfc84e8c",
          "transactionHash": "0x20d9a2db4fe6427b984677fc246bcd69fa5972934ed1c7e97bd96b1fdcf4125a",
          "transactionIndex": "0x2",
          "logIndex": "0x6",
          "removed": false
        },
        {
          "address": "0x2f2a2543B76A4166549F7aaB2e75Bef0aefC5B0f",
          "topics": [
            "0x8c5be1e5ebec7d5bd14f71427d1e84f3dd0314c0f7b2291e5b200ac8c7c3b925",
            "0x000000000000000000000000172df12af47864389eaf4bc1ea93877be1dd7ae9",
            "0x000000000000000000000000e592427a0aece92de3edee1f18e0157c05861564"
          ],
          "data": "0x0000000000000000000000000000000000000000000000000000000000000000",
          "blockHash": "0x054a81983f9054347f45c6afe71b8cba4d01ea4172a0f1559961ab9438380d02",
          "blockNumber": "0xfc84e8c",
          "transactionHash": "0x20d9a2db4fe6427b984677fc246bcd69fa5972934ed1c7e97bd96b1fdcf4125a",
          "transactionIndex": "0x2",
          "logIndex": "0x7",
          "removed": false
        },
        {
          "address": "0x0E4831319A50228B9e450861297aB92dee15B44F",
          "topics": [
            "0xc42079f94a6350d7e6235f29174924f928cc2ac818eb64fed8004e115fbcca67",
            "0x000000000000000000000000e592427a0aece92de3edee1f18e0157c05861564",
            "0x000000000000000000000000172df12af47864389eaf4bc1ea93877be1dd7ae9"
          ],
          "data": "0x00000000000000000000000000000000000000000000000000000000000056c4ffffffffffffffffffffffffffffffffffffffffffffffffffffffffff1de06d0000000000000000000000000000000000000019d62e8641e19a753db06bd0090000000000000000000000000000000000000000000000000000055dfc83f781000000000000000000000000000000000000000000000000000000000000fe0f",
          "blockHash": "0x054a81983f9054347f45c6afe71b8cba4d01ea4172a0f1559961ab9438380d02",
          "blockNumber": "0xfc84e8c",
          "transactionHash": "0x20d9a2db4fe6427b984677fc246bcd69fa5972934ed1c7e97bd96b1fdcf4125a",
          "transactionIndex": "0x2",
          "logIndex": "0x8",
          "removed": false
        },
        {
          "address": "0x2f2a2543B76A4166549F7aaB2e75Bef0aefC5B0f",
          "topics": [
            "0x8c5be1e5ebec7d5bd14f71427d1e84f3dd0314c0f7b2291e5b200ac8c7c3b925",
            "0x000000000000000000000000172df12af47864389eaf4bc1ea93877be1dd7ae9",
            "0x000000000000000000000000e592427a0aece92de3edee1f18e0157c05861564"
          ],
          "data": "0x0000000000000000000000000000000000000000000000000000000000000000",
          "blockHash": "0x054a81983f9054347f45c6afe71b8cba4d01ea4172a0f1559961ab9438380d02",
          "blockNumber": "0xfc84e8c",
          "transactionHash": "0x20d9a2db4fe6427b984677fc246bcd69fa5972934ed1c7e97bd96b1fdcf4125a",
          "transactionIndex": "0x2",
          "logIndex": "0x9",
          "removed": false
        },
        {
          "address": "0xaf88d065e77c8cC2239327C5EDb3A432268e5831",
          "topics": [
            "0x8c5be1e5ebec7d5bd14f71427d1e84f3dd0314c0f7b2291e5b200ac8c7c3b925",
            "0x000000000000000000000000172df12af47864389eaf4bc1ea93877be1dd7ae9",
            "0x000000000000000000000000e592427a0aece92de3edee1f18e0157c05861564"
          ],
          "data": "0x0000000000000000000000000000000000000000000000000000000000558f4e",
          "blockHash": "0x054a81983f9054347f45c6afe71b8cba4d01ea4172a0f1559961ab9438380d02",
          "blockNumber": "0xfc84e8c",
          "transactionHash": "0x20d9a2db4fe6427b984677fc246bcd69fa5972934ed1c7e97bd96b1fdcf4125a",
          "transactionIndex": "0x2",
          "logIndex": "0xa",
          "removed": false
        },
        {
          "address": "0x2Ea0bE86990E8Dac0D09e4316Bb92086F304622d",
          "topics": [
            "0xddf252ad1be2c89b69c2b068fc378daa952ba7f163c4a11628f55a4df523b3ef",
            "0x0000000000000000000000008def4db6697f4885ba4a3f75e9adb3cefcca6d6e",
            "0x000000000000000000000000172df12af47864389eaf4bc1ea93877be1dd7ae9"
          ],
          "data": "0x0000000000000000000000000000000000000000000000004d683cc9514c7f24",
          "blockHash": "0x054a81983f9054347f45c6afe71b8cba4d01ea4172a0f1559961ab9438380d02",
          "blockNumber": "0xfc84e8c",
          "transactionHash": "0x20d9a2db4fe6427b984677fc246bcd69fa5972934ed1c7e97bd96b1fdcf4125a",
          "transactionIndex": "0x2",
          "logIndex": "0xb",
          "removed": false
        },
        {
          "address": "0xaf88d065e77c8cC2239327C5EDb3A432268e5831",
          "topics": [
            "0xddf252ad1be2c89b69c2b068fc378daa952ba7f163c4a11628f55a4df523b3ef",
            "0x000000000000000000000000172df12af47864389eaf4bc1ea93877be1dd7ae9",
            "0x0000000000000000000000008def4db6697f4885ba4a3f75e9adb3cefcca6d6e"
          ],
          "data": "0x0000000000000000000000000000000000000000000000000000000000558f4e",
          "blockHash": "0x054a81983f9054347f45c6afe71b8cba4d01ea4172a0f1559961ab9438380d02",
          "blockNumber": "0xfc84e8c",
          "transactionHash": "0x20d9a2db4fe6427b984677fc246bcd69fa5972934ed1c7e97bd96b1fdcf4125a",
          "transactionIndex": "0x2",
          "logIndex": "0xc",
          "removed": false
        },
        {
          "address": "0x8DEF4Db6697F4885bA4a3f75e9AdB3cEFCca6D6E",
          "topics": [
            "0xc42079f94a6350d7e6235f29174924f928cc2ac818eb64fed8004e115fbcca67",
            "0x000000000000000000000000e592427a0aece92de3edee1f18e0157c05861564",
            "0x000000000000000000000000172df12af47864389eaf4bc1ea93877be1dd7ae9"
          ],
          "data": "0xffffffffffffffffffffffffffffffffffffffffffffffffb297c336aeb380dc0000000000000000000000000000000000000000000000000000000000558f4e0000000000000000000000000000000000000000000010cbe65a72538b43f777000000000000000000000000000000000000000000000000028d09a941355f3ffffffffffffffffffffffffffffffffffffffffffffffffffffffffffffbc8b2",
          "blockHash": "0x054a81983f9054347f45c6afe71b8cba4d01ea4172a0f1559961ab9438380d02",
          "blockNumber": "0xfc84e8c",
          "transactionHash": "0x20d9a2db4fe6427b984677fc246bcd69fa5972934ed1c7e97bd96b1fdcf4125a",
          "transactionIndex": "0x2",
          "logIndex": "0xd",
          "removed": false
        },
        {
          "address": "0xaf88d065e77c8cC2239327C5EDb3A432268e5831",
          "topics": [
            "0x8c5be1e5ebec7d5bd14f71427d1e84f3dd0314c0f7b2291e5b200ac8c7c3b925",
            "0x000000000000000000000000172df12af47864389eaf4bc1ea93877be1dd7ae9",
            "0x000000000000000000000000e592427a0aece92de3edee1f18e0157c05861564"
          ],
          "data": "0x0000000000000000000000000000000000000000000000000000000000000000",
          "blockHash": "0x054a81983f9054347f45c6afe71b8cba4d01ea4172a0f1559961ab9438380d02",
          "blockNumber": "0xfc84e8c",
          "transactionHash": "0x20d9a2db4fe6427b984677fc246bcd69fa5972934ed1c7e97bd96b1fdcf4125a",
          "transactionIndex": "0x2",
          "logIndex": "0xe",
          "removed": false
        },
        {
          "address": "0x2Ea0bE86990E8Dac0D09e4316Bb92086F304622d",
          "topics": [
            "0x8c5be1e5ebec7d5bd14f71427d1e84f3dd0314c0f7b2291e5b200ac8c7c3b925",
            "0x000000000000000000000000172df12af47864389eaf4bc1ea93877be1dd7ae9",
            "0x000000000000000000000000e592427a0aece92de3edee1f18e0157c05861564"
          ],
          "data": "0x0000000000000000000000000000000000000000000000004d683cc9514c7f24",
          "blockHash": "0x054a81983f9054347f45c6afe71b8cba4d01ea4172a0f1559961ab9438380d02",
          "blockNumber": "0xfc84e8c",
          "transactionHash": "0x20d9a2db4fe6427b984677fc246bcd69fa5972934ed1c7e97bd96b1fdcf4125a",
          "transactionIndex": "0x2",
          "logIndex": "0xf",
          "removed": false
        },
        {
          "address": "0xaf88d065e77c8cC2239327C5EDb3A432268e5831",
          "topics": [
            "0xddf252ad1be2c89b69c2b068fc378daa952ba7f163c4a11628f55a4df523b3ef",
            "0x0000000000000000000000008def4db6697f4885ba4a3f75e9adb3cefcca6d6e",
            "0x000000000000000000000000172df12af47864389eaf4bc1ea93877be1dd7ae9"
          ],
          "data": "0x000000000000000000000000000000000000000000000000000000000000b943",
          "blockHash": "0x054a81983f9054347f45c6afe71b8cba4d01ea4172a0f1559961ab9438380d02",
          "blockNumber": "0xfc84e8c",
          "transactionHash": "0x20d9a2db4fe6427b984677fc246bcd69fa5972934ed1c7e97bd96b1fdcf4125a",
          "transactionIndex": "0x2",
          "logIndex": "0x10",
          "removed": false
        },
        {
          "address": "0x2Ea0bE86990E8Dac0D09e4316Bb92086F304622d",
          "topics": [
            "0x8c5be1e5ebec7d5bd14f71427d1e84f3dd0314c0f7b2291e5b200ac8c7c3b925",
            "0x000000000000000000000000172df12af47864389eaf4bc1ea93877be1dd7ae9",
            "0x000000000000000000000000e592427a0aece92de3edee1f18e0157c05861564"
          ],
          "data": "0x0000000000000000000000000000000000000000000000004cbf9f9449cbf4e0",
          "blockHash": "0x054a81983f9054347f45c6afe71b8cba4d01ea4172a0f1559961ab9438380d02",
          "blockNumber": "0xfc84e8c",
          "transactionHash": "0x20d9a2db4fe6427b984677fc246bcd69fa5972934ed1c7e97bd96b1fdcf4125a",
          "transactionIndex": "0x2",
          "logIndex": "0x11",
          "removed": false
        },
        {
          "address": "0x2Ea0bE86990E8Dac0D09e4316Bb92086F304622d",
          "topics": [
            "0xddf252ad1be2c89b69c2b068fc378daa952ba7f163c4a11628f55a4df523b3ef",
            "0x000000000000000000000000172df12af47864389eaf4bc1ea93877be1dd7ae9",
            "0x0000000000000000000000008def4db6697f4885ba4a3f75e9adb3cefcca6d6e"
          ],
          "data": "0x00000000000000000000000000000000000000000000000000a89d3507808a44",
          "blockHash": "0x054a81983f9054347f45c6afe71b8cba4d01ea4172a0f1559961ab9438380d02",
          "blockNumber": "0xfc84e8c",
          "transactionHash": "0x20d9a2db4fe6427b984677fc246bcd69fa5972934ed1c7e97bd96b1fdcf4125a",
          "transactionIndex": "0x2",
          "logIndex": "0x12",
          "removed": false
        },
        {
          "address": "0x8DEF4Db6697F4885bA4a3f75e9AdB3cEFCca6D6E",
          "topics": [
            "0xc42079f94a6350d7e6235f29174924f928cc2ac818eb64fed8004e115fbcca67",
            "0x000000000000000000000000e592427a0aece92de3edee1f18e0157c05861564",
            "0x000000000000000000000000172df12af47864389eaf4bc1ea93877be1dd7ae9"
          ],
          "data": "0x00000000000000000000000000000000000000000000000000a89d3507808a44ffffffffffffffffffffffffffffffffffffffffffffffffffffffffffff46bd0000000000000000000000000000000000000000000010cbe611d24613287b83000000000000000000000000000000000000000000000000028d09a941355f3ffffffffffffffffffffffffffffffffffffffffffffffffffffffffffffbc8b2",
          "blockHash": "0x054a81983f9054347f45c6afe71b8cba4d01ea4172a0f1559961ab9438380d02",
          "blockNumber": "0xfc84e8c",
          "transactionHash": "0x20d9a2db4fe6427b984677fc246bcd69fa5972934ed1c7e97bd96b1fdcf4125a",
          "transactionIndex": "0x2",
          "logIndex": "0x13",
          "removed": false
        },
        {
          "address": "0x2Ea0bE86990E8Dac0D09e4316Bb92086F304622d",
          "topics": [
            "0x8c5be1e5ebec7d5bd14f71427d1e84f3dd0314c0f7b2291e5b200ac8c7c3b925",
            "0x000000000000000000000000172df12af47864389eaf4bc1ea93877be1dd7ae9",
            "0x000000000000000000000000e592427a0aece92de3edee1f18e0157c05861564"
          ],
          "data": "0x0000000000000000000000000000000000000000000000000000000000000000",
          "blockHash": "0x054a81983f9054347f45c6afe71b8cba4d01ea4172a0f1559961ab9438380d02",
          "blockNumber": "0xfc84e8c",
          "transactionHash": "0x20d9a2db4fe6427b984677fc246bcd69fa5972934ed1c7e97bd96b1fdcf4125a",
          "transactionIndex": "0x2",
          "logIndex": "0x14",
          "removed": false
        },
        {
          "address": "0xaf88d065e77c8cC2239327C5EDb3A432268e5831",
          "topics": [
            "0x8c5be1e5ebec7d5bd14f71427d1e84f3dd0314c0f7b2291e5b200ac8c7c3b925",
            "0x000000000000000000000000172df12af47864389eaf4bc1ea93877be1dd7ae9",
            "0x000000000000000000000000e592427a0aece92de3edee1f18e0157c05861564"
          ],
          "data": "0x0000000000000000000000000000000000000000000000000000000000000243",
          "blockHash": "0x054a81983f9054347f45c6afe71b8cba4d01ea4172a0f1559961ab9438380d02",
          "blockNumber": "0xfc84e8c",
          "transactionHash": "0x20d9a2db4fe6427b984677fc246bcd69fa5972934ed1c7e97bd96b1fdcf4125a",
          "transactionIndex": "0x2",
          "logIndex": "0x15",
          "removed": false
        },
        {
          "address": "0x2Ea0bE86990E8Dac0D09e4316Bb92086F304622d",
          "topics": [
            "0xddf252ad1be2c89b69c2b068fc378daa952ba7f163c4a11628f55a4df523b3ef",
            "0x0000000000000000000000008def4db6697f4885ba4a3f75e9adb3cefcca6d6e",
            "0x000000000000000000000000172df12af47864389eaf4bc1ea93877be1dd7ae9"
          ],
          "data": "0x00000000000000000000000000000000000000000000000000020b934f50a841",
          "blockHash": "0x054a81983f9054347f45c6afe71b8cba4d01ea4172a0f1559961ab9438380d02",
          "blockNumber": "0xfc84e8c",
          "transactionHash": "0x20d9a2db4fe6427b984677fc246bcd69fa5972934ed1c7e97bd96b1fdcf4125a",
          "transactionIndex": "0x2",
          "logIndex": "0x16",
          "removed": false
        },
        {
          "address": "0xaf88d065e77c8cC2239327C5EDb3A432268e5831",
          "topics": [
            "0xddf252ad1be2c89b69c2b068fc378daa952ba7f163c4a11628f55a4df523b3ef",
            "0x000000000000000000000000172df12af47864389eaf4bc1ea93877be1dd7ae9",
            "0x0000000000000000000000008def4db6697f4885ba4a3f75e9adb3cefcca6d6e"
          ],
          "data": "0x0000000000000000000000000000000000000000000000000000000000000243",
          "blockHash": "0x054a81983f9054347f45c6afe71b8cba4d01ea4172a0f1559961ab9438380d02",
          "blockNumber": "0xfc84e8c",
          "transactionHash": "0x20d9a2db4fe6427b984677fc246bcd69fa5972934ed1c7e97bd96b1fdcf4125a",
          "transactionIndex": "0x2",
          "logIndex": "0x17",
          "removed": false
        },
        {
          "address": "0x8DEF4Db6697F4885bA4a3f75e9AdB3cEFCca6D6E",
          "topics": [
            "0xc42079f94a6350d7e6235f29174924f928cc2ac818eb64fed8004e115fbcca67",
            "0x000000000000000000000000e592427a0aece92de3edee1f18e0157c05861564",
            "0x000000000000000000000000172df12af47864389eaf4bc1ea93877be1dd7ae9"
          ],
          "data": "0xfffffffffffffffffffffffffffffffffffffffffffffffffffdf46cb0af57bf00000000000000000000000000000000000000000000000000000000000002430000000000000000000000000000000000000000000010cbe612b47742e0d50a000000000000000000000000000000000000000000000000028d09a941355f3ffffffffffffffffffffffffffffffffffffffffffffffffffffffffffffbc8b2",
          "blockHash": "0x054a81983f9054347f45c6afe71b8cba4d01ea4172a0f1559961ab9438380d02",
          "blockNumber": "0xfc84e8c",
          "transactionHash": "0x20d9a2db4fe6427b984677fc246bcd69fa5972934ed1c7e97bd96b1fdcf4125a",
          "transactionIndex": "0x2",
          "logIndex": "0x18",
          "removed": false
        },
        {
          "address": "0xaf88d065e77c8cC2239327C5EDb3A432268e5831",
          "topics": [
            "0x8c5be1e5ebec7d5bd14f71427d1e84f3dd0314c0f7b2291e5b200ac8c7c3b925",
            "0x000000000000000000000000172df12af47864389eaf4bc1ea93877be1dd7ae9",
            "0x000000000000000000000000e592427a0aece92de3edee1f18e0157c05861564"
          ],
          "data": "0x0000000000000000000000000000000000000000000000000000000000000000",
          "blockHash": "0x054a81983f9054347f45c6afe71b8cba4d01ea4172a0f1559961ab9438380d02",
          "blockNumber": "0xfc84e8c",
          "transactionHash": "0x20d9a2db4fe6427b984677fc246bcd69fa5972934ed1c7e97bd96b1fdcf4125a",
          "transactionIndex": "0x2",
          "logIndex": "0x19",
          "removed": false
        },
        {
          "address": "0x2Ea0bE86990E8Dac0D09e4316Bb92086F304622d",
          "topics": [
            "0x8c5be1e5ebec7d5bd14f71427d1e84f3dd0314c0f7b2291e5b200ac8c7c3b925",
            "0x000000000000000000000000172df12af47864389eaf4bc1ea93877be1dd7ae9",
            "0x000000000000000000000000547a116a2622876ce1c8d19d41c683c8f7bec5c0"
          ],
          "data": "0x0000000000000000000000000000000000000000000000004cc1ab27991c9d21",
          "blockHash": "0x054a81983f9054347f45c6afe71b8cba4d01ea4172a0f1559961ab9438380d02",
          "blockNumber": "0xfc84e8c",
          "transactionHash": "0x20d9a2db4fe6427b984677fc246bcd69fa5972934ed1c7e97bd96b1fdcf4125a",
          "transactionIndex": "0x2",
          "logIndex": "0x1a",
          "removed": false
        },
        {
          "address": "0xaf88d065e77c8cC2239327C5EDb3A432268e5831",
          "topics": [
            "0x8c5be1e5ebec7d5bd14f71427d1e84f3dd0314c0f7b2291e5b200ac8c7c3b925",
            "0x000000000000000000000000172df12af47864389eaf4bc1ea93877be1dd7ae9",
            "0x000000000000000000000000547a116a2622876ce1c8d19d41c683c8f7bec5c0"
          ],
          "data": "0x00000000000000000000000000000000000000000000000000000000008d4745",
          "blockHash": "0x054a81983f9054347f45c6afe71b8cba4d01ea4172a0f1559961ab9438380d02",
          "blockNumber": "0xfc84e8c",
          "transactionHash": "0x20d9a2db4fe6427b984677fc246bcd69fa5972934ed1c7e97bd96b1fdcf4125a",
          "transactionIndex": "0x2",
          "logIndex": "0x1b",
          "removed": false
        },
        {
          "address": "0x8DEF4Db6697F4885bA4a3f75e9AdB3cEFCca6D6E",
          "topics": [
            "0x0c396cd989a39f4459b5fa1aed6a9a8dcdbc45908acfd67e028cd568da98982c",
            "0x000000000000000000000000547a116a2622876ce1c8d19d41c683c8f7bec5c0",
            "0xfffffffffffffffffffffffffffffffffffffffffffffffffffffffffffbc83c",
            "0xfffffffffffffffffffffffffffffffffffffffffffffffffffffffffffbc8f0"
          ],
          "data": "0x000000000000000000000000000000000000000000000000000000000000000000000000000000000000000000000000000000000000000000000000000000000000000000000000000000000000000000000000000000000000000000000000",
          "blockHash": "0x054a81983f9054347f45c6afe71b8cba4d01ea4172a0f1559961ab9438380d02",
          "blockNumber": "0xfc84e8c",
          "transactionHash": "0x20d9a2db4fe6427b984677fc246bcd69fa5972934ed1c7e97bd96b1fdcf4125a",
          "transactionIndex": "0x2",
          "logIndex": "0x1c",
          "removed": false
        },
        {
          "address": "0x2Ea0bE86990E8Dac0D09e4316Bb92086F304622d",
          "topics": [
            "0xddf252ad1be2c89b69c2b068fc378daa952ba7f163c4a11628f55a4df523b3ef",
            "0x0000000000000000000000008def4db6697f4885ba4a3f75e9adb3cefcca6d6e",
            "0x000000000000000000000000547a116a2622876ce1c8d19d41c683c8f7bec5c0"
          ],
          "data": "0x00000000000000000000000000000000000000000000000000001fc28c8f2e29",
          "blockHash": "0x054a81983f9054347f45c6afe71b8cba4d01ea4172a0f1559961ab9438380d02",
          "blockNumber": "0xfc84e8c",
          "transactionHash": "0x20d9a2db4fe6427b984677fc246bcd69fa5972934ed1c7e97bd96b1fdcf4125a",
          "transactionIndex": "0x2",
          "logIndex": "0x1d",
          "removed": false
        },
        {
          "address": "0xaf88d065e77c8cC2239327C5EDb3A432268e5831",
          "topics": [
            "0xddf252ad1be2c89b69c2b068fc378daa952ba7f163c4a11628f55a4df523b3ef",
            "0x0000000000000000000000008def4db6697f4885ba4a3f75e9adb3cefcca6d6e",
            "0x000000000000000000000000547a116a2622876ce1c8d19d41c683c8f7bec5c0"
          ],
          "data": "0x000000000000000000000000000000000000000000000000000000000000101e",
          "blockHash": "0x054a81983f9054347f45c6afe71b8cba4d01ea4172a0f1559961ab9438380d02",
          "blockNumber": "0xfc84e8c",
          "transactionHash": "0x20d9a2db4fe6427b984677fc246bcd69fa5972934ed1c7e97bd96b1fdcf4125a",
          "transactionIndex": "0x2",
          "logIndex": "0x1e",
          "removed": false
        },
        {
          "address": "0x8DEF4Db6697F4885bA4a3f75e9AdB3cEFCca6D6E",
          "topics": [
            "0x70935338e69775456a85ddef226c395fb668b63fa0115f5f20610b388e6ca9c0",
            "0x000000000000000000000000547a116a2622876ce1c8d19d41c683c8f7bec5c0",
            "0xfffffffffffffffffffffffffffffffffffffffffffffffffffffffffffbc83c",
            "0xfffffffffffffffffffffffffffffffffffffffffffffffffffffffffffbc8f0"
          ],
          "data": "0x000000000000000000000000547a116a2622876ce1c8d19d41c683c8f7bec5c000000000000000000000000000000000000000000000000000001fc28c8f2e29000000000000000000000000000000000000000000000000000000000000101e",
          "blockHash": "0x054a81983f9054347f45c6afe71b8cba4d01ea4172a0f1559961ab9438380d02",
          "blockNumber": "0xfc84e8c",
          "transactionHash": "0x20d9a2db4fe6427b984677fc246bcd69fa5972934ed1c7e97bd96b1fdcf4125a",
          "transactionIndex": "0x2",
          "logIndex": "0x1f",
          "removed": false
        },
        {
          "address": "0x547A116a2622876cE1C8d19d41c683C8f7BeC5c0",
          "topics": [
            "0x4606b8a47eb284e8e80929101ece6ab5fe8d4f8735acc56bd0c92ca872f2cfe7"
          ],
          "data": "0x000000000000000000000000000000000000000000000000000000000000000500000000000000000000000000000000000000000000000000001fc28c8f2e29000000000000000000000000000000000000000000000000000000000000101e",
          "blockHash": "0x054a81983f9054347f45c6afe71b8cba4d01ea4172a0f1559961ab9438380d02",
          "blockNumber": "0xfc84e8c",
          "transactionHash": "0x20d9a2db4fe6427b984677fc246bcd69fa5972934ed1c7e97bd96b1fdcf4125a",
          "transactionIndex": "0x2",
          "logIndex": "0x20",
          "removed": false
        },
        {
          "address": "0x2Ea0bE86990E8Dac0D09e4316Bb92086F304622d",
          "topics": [
            "0xddf252ad1be2c89b69c2b068fc378daa952ba7f163c4a11628f55a4df523b3ef",
            "0x000000000000000000000000547a116a2622876ce1c8d19d41c683c8f7bec5c0",
            "0x00000000000000000000000093b1e9930685e1b4e6b3db54fc061c29b89df061"
          ],
          "data": "0x0000000000000000000000000000000000000000000000000000065a1c1ca2d5",
          "blockHash": "0x054a81983f9054347f45c6afe71b8cba4d01ea4172a0f1559961ab9438380d02",
          "blockNumber": "0xfc84e8c",
          "transactionHash": "0x20d9a2db4fe6427b984677fc246bcd69fa5972934ed1c7e97bd96b1fdcf4125a",
          "transactionIndex": "0x2",
          "logIndex": "0x21",
          "removed": false
        },
        {
          "address": "0xaf88d065e77c8cC2239327C5EDb3A432268e5831",
          "topics": [
            "0xddf252ad1be2c89b69c2b068fc378daa952ba7f163c4a11628f55a4df523b3ef",
            "0x000000000000000000000000547a116a2622876ce1c8d19d41c683c8f7bec5c0",
            "0x00000000000000000000000093b1e9930685e1b4e6b3db54fc061c29b89df061"
          ],
          "data": "0x0000000000000000000000000000000000000000000000000000000000000339",
          "blockHash": "0x054a81983f9054347f45c6afe71b8cba4d01ea4172a0f1559961ab9438380d02",
          "blockNumber": "0xfc84e8c",
          "transactionHash": "0x20d9a2db4fe6427b984677fc246bcd69fa5972934ed1c7e97bd96b1fdcf4125a",
          "transactionIndex": "0x2",
          "logIndex": "0x22",
          "removed": false
        },
        {
          "address": "0x8DEF4Db6697F4885bA4a3f75e9AdB3cEFCca6D6E",
          "topics": [
            "0x0c396cd989a39f4459b5fa1aed6a9a8dcdbc45908acfd67e028cd568da98982c",
            "0x000000000000000000000000547a116a2622876ce1c8d19d41c683c8f7bec5c0",
            "0xfffffffffffffffffffffffffffffffffffffffffffffffffffffffffffbc8b4",
            "0xfffffffffffffffffffffffffffffffffffffffffffffffffffffffffffbc8f0"
          ],
          "data": "0x000000000000000000000000000000000000000000000000000000000000000000000000000000000000000000000000000000000000000000000000000000000000000000000000000000000000000000000000000000000000000000000000",
          "blockHash": "0x054a81983f9054347f45c6afe71b8cba4d01ea4172a0f1559961ab9438380d02",
          "blockNumber": "0xfc84e8c",
          "transactionHash": "0x20d9a2db4fe6427b984677fc246bcd69fa5972934ed1c7e97bd96b1fdcf4125a",
          "transactionIndex": "0x2",
          "logIndex": "0x23",
          "removed": false
        },
        {
          "address": "0x8DEF4Db6697F4885bA4a3f75e9AdB3cEFCca6D6E",
          "topics": [
            "0x70935338e69775456a85ddef226c395fb668b63fa0115f5f20610b388e6ca9c0",
            "0x000000000000000000000000547a116a2622876ce1c8d19d41c683c8f7bec5c0",
            "0xfffffffffffffffffffffffffffffffffffffffffffffffffffffffffffbc8b4",
            "0xfffffffffffffffffffffffffffffffffffffffffffffffffffffffffffbc8f0"
          ],
          "data": "0x000000000000000000000000547a116a2622876ce1c8d19d41c683c8f7bec5c000000000000000000000000000000000000000000000000000000000000000000000000000000000000000000000000000000000000000000000000000000000",
          "blockHash": "0x054a81983f9054347f45c6afe71b8cba4d01ea4172a0f1559961ab9438380d02",
          "blockNumber": "0xfc84e8c",
          "transactionHash": "0x20d9a2db4fe6427b984677fc246bcd69fa5972934ed1c7e97bd96b1fdcf4125a",
          "transactionIndex": "0x2",
          "logIndex": "0x24",
          "removed": false
        },
        {
          "address": "0x547A116a2622876cE1C8d19d41c683C8f7BeC5c0",
          "topics": [
            "0x4606b8a47eb284e8e80929101ece6ab5fe8d4f8735acc56bd0c92ca872f2cfe7"
          ],
          "data": "0x000000000000000000000000000000000000000000000000000000000000000500000000000000000000000000000000000000000000000000000000000000000000000000000000000000000000000000000000000000000000000000000000",
          "blockHash": "0x054a81983f9054347f45c6afe71b8cba4d01ea4172a0f1559961ab9438380d02",
          "blockNumber": "0xfc84e8c",
          "transactionHash": "0x20d9a2db4fe6427b984677fc246bcd69fa5972934ed1c7e97bd96b1fdcf4125a",
          "transactionIndex": "0x2",
          "logIndex": "0x25",
          "removed": false
        },
        {
          "address": "0x2Ea0bE86990E8Dac0D09e4316Bb92086F304622d",
          "topics": [
            "0x8c5be1e5ebec7d5bd14f71427d1e84f3dd0314c0f7b2291e5b200ac8c7c3b925",
            "0x000000000000000000000000172df12af47864389eaf4bc1ea93877be1dd7ae9",
            "0x000000000000000000000000547a116a2622876ce1c8d19d41c683c8f7bec5c0"
          ],
          "data": "0x0000000000000000000000000000000000000000000000000000000000000000",
          "blockHash": "0x054a81983f9054347f45c6afe71b8cba4d01ea4172a0f1559961ab9438380d02",
          "blockNumber": "0xfc84e8c",
          "transactionHash": "0x20d9a2db4fe6427b984677fc246bcd69fa5972934ed1c7e97bd96b1fdcf4125a",
          "transactionIndex": "0x2",
          "logIndex": "0x26",
          "removed": false
        },
        {
          "address": "0x2Ea0bE86990E8Dac0D09e4316Bb92086F304622d",
          "topics": [
            "0xddf252ad1be2c89b69c2b068fc378daa952ba7f163c4a11628f55a4df523b3ef",
            "0x000000000000000000000000172df12af47864389eaf4bc1ea93877be1dd7ae9",
            "0x000000000000000000000000547a116a2622876ce1c8d19d41c683c8f7bec5c0"
          ],
          "data": "0x0000000000000000000000000000000000000000000000004cc1ab27991c9d21",
          "blockHash": "0x054a81983f9054347f45c6afe71b8cba4d01ea4172a0f1559961ab9438380d02",
          "blockNumber": "0xfc84e8c",
          "transactionHash": "0x20d9a2db4fe6427b984677fc246bcd69fa5972934ed1c7e97bd96b1fdcf4125a",
          "transactionIndex": "0x2",
          "logIndex": "0x27",
          "removed": false
        },
        {
          "address": "0xaf88d065e77c8cC2239327C5EDb3A432268e5831",
          "topics": [
            "0xddf252ad1be2c89b69c2b068fc378daa952ba7f163c4a11628f55a4df523b3ef",
            "0x000000000000000000000000172df12af47864389eaf4bc1ea93877be1dd7ae9",
            "0x000000000000000000000000547a116a2622876ce1c8d19d41c683c8f7bec5c0"
          ],
          "data": "0x00000000000000000000000000000000000000000000000000000000008d4745",
          "blockHash": "0x054a81983f9054347f45c6afe71b8cba4d01ea4172a0f1559961ab9438380d02",
          "blockNumber": "0xfc84e8c",
          "transactionHash": "0x20d9a2db4fe6427b984677fc246bcd69fa5972934ed1c7e97bd96b1fdcf4125a",
          "transactionIndex": "0x2",
          "logIndex": "0x28",
          "removed": false
        },
        {
          "address": "0x2Ea0bE86990E8Dac0D09e4316Bb92086F304622d",
          "topics": [
            "0xddf252ad1be2c89b69c2b068fc378daa952ba7f163c4a11628f55a4df523b3ef",
            "0x000000000000000000000000547a116a2622876ce1c8d19d41c683c8f7bec5c0",
            "0x0000000000000000000000008def4db6697f4885ba4a3f75e9adb3cefcca6d6e"
          ],
          "data": "0x00000000000000000000000000000000000000000000000041f486a27afd6704",
          "blockHash": "0x054a81983f9054347f45c6afe71b8cba4d01ea4172a0f1559961ab9438380d02",
          "blockNumber": "0xfc84e8c",
          "transactionHash": "0x20d9a2db4fe6427b984677fc246bcd69fa5972934ed1c7e97bd96b1fdcf4125a",
          "transactionIndex": "0x2",
          "logIndex": "0x29",
          "removed": false
        },
        {
          "address": "0xaf88d065e77c8cC2239327C5EDb3A432268e5831",
          "topics": [
            "0xddf252ad1be2c89b69c2b068fc378daa952ba7f163c4a11628f55a4df523b3ef",
            "0x000000000000000000000000547a116a2622876ce1c8d19d41c683c8f7bec5c0",
            "0x0000000000000000000000008def4db6697f4885ba4a3f75e9adb3cefcca6d6e"
          ],
          "data": "0x00000000000000000000000000000000000000000000000000000000008d542a",
          "blockHash": "0x054a81983f9054347f45c6afe71b8cba4d01ea4172a0f1559961ab9438380d02",
          "blockNumber": "0xfc84e8c",
          "transactionHash": "0x20d9a2db4fe6427b984677fc246bcd69fa5972934ed1c7e97bd96b1fdcf4125a",
          "transactionIndex": "0x2",
          "logIndex": "0x2a",
          "removed": false
        },
        {
          "address": "0x8DEF4Db6697F4885bA4a3f75e9AdB3cEFCca6D6E",
          "topics": [
            "0x7a53080ba414158be7ec69b987b5fb7d07dee101fe85488f0853ae16239d0bde",
            "0x000000000000000000000000547a116a2622876ce1c8d19d41c683c8f7bec5c0",
            "0xfffffffffffffffffffffffffffffffffffffffffffffffffffffffffffbc83c",
            "0xfffffffffffffffffffffffffffffffffffffffffffffffffffffffffffbc8f0"
          ],
          "data": "0x000000000000000000000000547a116a2622876ce1c8d19d41c683c8f7bec5c000000000000000000000000000000000000000000000000000058b51ef45438a00000000000000000000000000000000000000000000000041f486a27afd670400000000000000000000000000000000000000000000000000000000008d542a",
          "blockHash": "0x054a81983f9054347f45c6afe71b8cba4d01ea4172a0f1559961ab9438380d02",
          "blockNumber": "0xfc84e8c",
          "transactionHash": "0x20d9a2db4fe6427b984677fc246bcd69fa5972934ed1c7e97bd96b1fdcf4125a",
          "transactionIndex": "0x2",
          "logIndex": "0x2b",
          "removed": false
        },
        {
          "address": "0x2Ea0bE86990E8Dac0D09e4316Bb92086F304622d",
          "topics": [
            "0xddf252ad1be2c89b69c2b068fc378daa952ba7f163c4a11628f55a4df523b3ef",
            "0x000000000000000000000000547a116a2622876ce1c8d19d41c683c8f7bec5c0",
            "0x0000000000000000000000008def4db6697f4885ba4a3f75e9adb3cefcca6d6e"
          ],
          "data": "0x0000000000000000000000000000000000000000000000000acd3ded8e91c2e1",
          "blockHash": "0x054a81983f9054347f45c6afe71b8cba4d01ea4172a0f1559961ab9438380d02",
          "blockNumber": "0xfc84e8c",
          "transactionHash": "0x20d9a2db4fe6427b984677fc246bcd69fa5972934ed1c7e97bd96b1fdcf4125a",
          "transactionIndex": "0x2",
          "logIndex": "0x2c",
          "removed": false
        },
        {
          "address": "0x8DEF4Db6697F4885bA4a3f75e9AdB3cEFCca6D6E",
          "topics": [
            "0x7a53080ba414158be7ec69b987b5fb7d07dee101fe85488f0853ae16239d0bde",
            "0x000000000000000000000000547a116a2622876ce1c8d19d41c683c8f7bec5c0",
            "0xfffffffffffffffffffffffffffffffffffffffffffffffffffffffffffbc8b4",
            "0xfffffffffffffffffffffffffffffffffffffffffffffffffffffffffffbc8f0"
          ],
          "data": "0x000000000000000000000000547a116a2622876ce1c8d19d41c683c8f7bec5c00000000000000000000000000000000000000000000000000000ec9e07a490030000000000000000000000000000000000000000000000000acd3ded8e91c2e10000000000000000000000000000000000000000000000000000000000000000",
          "blockHash": "0x054a81983f9054347f45c6afe71b8cba4d01ea4172a0f1559961ab9438380d02",
          "blockNumber": "0xfc84e8c",
          "transactionHash": "0x20d9a2db4fe6427b984677fc246bcd69fa5972934ed1c7e97bd96b1fdcf4125a",
          "transactionIndex": "0x2",
          "logIndex": "0x2d",
          "removed": false
        },
        {
          "address": "0x547A116a2622876cE1C8d19d41c683C8f7BeC5c0",
          "topics": [
            "0xddf252ad1be2c89b69c2b068fc378daa952ba7f163c4a11628f55a4df523b3ef",
            "0x0000000000000000000000000000000000000000000000000000000000000000",
            "0x000000000000000000000000e7b538f6deb6314c55118e46b4014ca496292709"
          ],
          "data": "0x0000000000000000000000000000000000000000000000000000000000e17760",
          "blockHash": "0x054a81983f9054347f45c6afe71b8cba4d01ea4172a0f1559961ab9438380d02",
          "blockNumber": "0xfc84e8c",
          "transactionHash": "0x20d9a2db4fe6427b984677fc246bcd69fa5972934ed1c7e97bd96b1fdcf4125a",
          "transactionIndex": "0x2",
          "logIndex": "0x2e",
          "removed": false
        },
        {
          "address": "0x547A116a2622876cE1C8d19d41c683C8f7BeC5c0",
          "topics": [
            "0x4e2ca0515ed1aef1395f66b5303bb5d6f1bf9d61a353fa53f73f8ac9973fa9f6",
            "0x000000000000000000000000172df12af47864389eaf4bc1ea93877be1dd7ae9",
            "0x000000000000000000000000e7b538f6deb6314c55118e46b4014ca496292709"
          ],
          "data": "0x0000000000000000000000000000000000000000000000000000000000e177600000000000000000000000000000000000000000000000004cc1ab27991c9d2100000000000000000000000000000000000000000000000000000000008d4745",
          "blockHash": "0x054a81983f9054347f45c6afe71b8cba4d01ea4172a0f1559961ab9438380d02",
          "blockNumber": "0xfc84e8c",
          "transactionHash": "0x20d9a2db4fe6427b984677fc246bcd69fa5972934ed1c7e97bd96b1fdcf4125a",
          "transactionIndex": "0x2",
          "logIndex": "0x2f",
          "removed": false
        },
        {
          "address": "0x2Ea0bE86990E8Dac0D09e4316Bb92086F304622d",
          "topics": [
            "0x8c5be1e5ebec7d5bd14f71427d1e84f3dd0314c0f7b2291e5b200ac8c7c3b925",
            "0x000000000000000000000000172df12af47864389eaf4bc1ea93877be1dd7ae9",
            "0x000000000000000000000000547a116a2622876ce1c8d19d41c683c8f7bec5c0"
          ],
          "data": "0x0000000000000000000000000000000000000000000000000000000000000000",
          "blockHash": "0x054a81983f9054347f45c6afe71b8cba4d01ea4172a0f1559961ab9438380d02",
          "blockNumber": "0xfc84e8c",
          "transactionHash": "0x20d9a2db4fe6427b984677fc246bcd69fa5972934ed1c7e97bd96b1fdcf4125a",
          "transactionIndex": "0x2",
          "logIndex": "0x30",
          "removed": false
        },
        {
          "address": "0xaf88d065e77c8cC2239327C5EDb3A432268e5831",
          "topics": [
            "0x8c5be1e5ebec7d5bd14f71427d1e84f3dd0314c0f7b2291e5b200ac8c7c3b925",
            "0x000000000000000000000000172df12af47864389eaf4bc1ea93877be1dd7ae9",
            "0x000000000000000000000000547a116a2622876ce1c8d19d41c683c8f7bec5c0"
          ],
          "data": "0x0000000000000000000000000000000000000000000000000000000000000000",
          "blockHash": "0x054a81983f9054347f45c6afe71b8cba4d01ea4172a0f1559961ab9438380d02",
          "blockNumber": "0xfc84e8c",
          "transactionHash": "0x20d9a2db4fe6427b984677fc246bcd69fa5972934ed1c7e97bd96b1fdcf4125a",
          "transactionIndex": "0x2",
          "logIndex": "0x31",
          "removed": false
        },
        {
          "address": "0x2f2a2543B76A4166549F7aaB2e75Bef0aefC5B0f",
          "topics": [
            "0x8c5be1e5ebec7d5bd14f71427d1e84f3dd0314c0f7b2291e5b200ac8c7c3b925",
            "0x000000000000000000000000172df12af47864389eaf4bc1ea93877be1dd7ae9",
            "0x000000000000000000000000e592427a0aece92de3edee1f18e0157c05861564"
          ],
          "data": "0x00000000000000000000000000000000000000000000000000000000000051c0",
          "blockHash": "0x054a81983f9054347f45c6afe71b8cba4d01ea4172a0f1559961ab9438380d02",
          "blockNumber": "0xfc84e8c",
          "transactionHash": "0x20d9a2db4fe6427b984677fc246bcd69fa5972934ed1c7e97bd96b1fdcf4125a",
          "transactionIndex": "0x2",
          "logIndex": "0x32",
          "removed": false
        },
        {
          "address": "0x82aF49447D8a07e3bd95BD0d56f35241523fBab1",
          "topics": [
            "0xddf252ad1be2c89b69c2b068fc378daa952ba7f163c4a11628f55a4df523b3ef",
            "0x000000000000000000000000149e36e72726e0bcea5c59d40df2c43f60f5a22d",
            "0x000000000000000000000000172df12af47864389eaf4bc1ea93877be1dd7ae9"
          ],
          "data": "0x00000000000000000000000000000000000000000000000000130705f1a1fb32",
          "blockHash": "0x054a81983f9054347f45c6afe71b8cba4d01ea4172a0f1559961ab9438380d02",
          "blockNumber": "0xfc84e8c",
          "transactionHash": "0x20d9a2db4fe6427b984677fc246bcd69fa5972934ed1c7e97bd96b1fdcf4125a",
          "transactionIndex": "0x2",
          "logIndex": "0x33",
          "removed": false
        },
        {
          "address": "0x2f2a2543B76A4166549F7aaB2e75Bef0aefC5B0f",
          "topics": [
            "0xddf252ad1be2c89b69c2b068fc378daa952ba7f163c4a11628f55a4df523b3ef",
            "0x000000000000000000000000172df12af47864389eaf4bc1ea93877be1dd7ae9",
            "0x000000000000000000000000149e36e72726e0bcea5c59d40df2c43f60f5a22d"
          ],
          "data": "0x00000000000000000000000000000000000000000000000000000000000051c0",
          "blockHash": "0x054a81983f9054347f45c6afe71b8cba4d01ea4172a0f1559961ab9438380d02",
          "blockNumber": "0xfc84e8c",
          "transactionHash": "0x20d9a2db4fe6427b984677fc246bcd69fa5972934ed1c7e97bd96b1fdcf4125a",
          "transactionIndex": "0x2",
          "logIndex": "0x34",
          "removed": false
        },
        {
          "address": "0x2f2a2543B76A4166549F7aaB2e75Bef0aefC5B0f",
          "topics": [
            "0x8c5be1e5ebec7d5bd14f71427d1e84f3dd0314c0f7b2291e5b200ac8c7c3b925",
            "0x000000000000000000000000172df12af47864389eaf4bc1ea93877be1dd7ae9",
            "0x000000000000000000000000e592427a0aece92de3edee1f18e0157c05861564"
          ],
          "data": "0x0000000000000000000000000000000000000000000000000000000000000000",
          "blockHash": "0x054a81983f9054347f45c6afe71b8cba4d01ea4172a0f1559961ab9438380d02",
          "blockNumber": "0xfc84e8c",
          "transactionHash": "0x20d9a2db4fe6427b984677fc246bcd69fa5972934ed1c7e97bd96b1fdcf4125a",
          "transactionIndex": "0x2",
          "logIndex": "0x35",
          "removed": false
        },
        {
          "address": "0x149e36E72726e0BceA5c59d40df2c43F60f5A22D",
          "topics": [
            "0xc42079f94a6350d7e6235f29174924f928cc2ac818eb64fed8004e115fbcca67",
            "0x000000000000000000000000e592427a0aece92de3edee1f18e0157c05861564",
            "0x000000000000000000000000172df12af47864389eaf4bc1ea93877be1dd7ae9"
          ],
          "data": "0x00000000000000000000000000000000000000000000000000000000000051c0ffffffffffffffffffffffffffffffffffffffffffffffffffecf8fa0e5e04ce000000000000000000000000000000000007bb10c2ffda12f3aed718f9673905000000000000000000000000000000000000000000000000000bcee9783deffb0000000000000000000000000000000000000000000000000000000000040244",
          "blockHash": "0x054a81983f9054347f45c6afe71b8cba4d01ea4172a0f1559961ab9438380d02",
          "blockNumber": "0xfc84e8c",
          "transactionHash": "0x20d9a2db4fe6427b984677fc246bcd69fa5972934ed1c7e97bd96b1fdcf4125a",
          "transactionIndex": "0x2",
          "logIndex": "0x36",
          "removed": false
        },
        {
          "address": "0x2f2a2543B76A4166549F7aaB2e75Bef0aefC5B0f",
          "topics": [
            "0x8c5be1e5ebec7d5bd14f71427d1e84f3dd0314c0f7b2291e5b200ac8c7c3b925",
            "0x000000000000000000000000172df12af47864389eaf4bc1ea93877be1dd7ae9",
            "0x000000000000000000000000e592427a0aece92de3edee1f18e0157c05861564"
          ],
          "data": "0x0000000000000000000000000000000000000000000000000000000000000000",
          "blockHash": "0x054a81983f9054347f45c6afe71b8cba4d01ea4172a0f1559961ab9438380d02",
          "blockNumber": "0xfc84e8c",
          "transactionHash": "0x20d9a2db4fe6427b984677fc246bcd69fa5972934ed1c7e97bd96b1fdcf4125a",
          "transactionIndex": "0x2",
          "logIndex": "0x37",
          "removed": false
        },
        {
          "address": "0x2f2a2543B76A4166549F7aaB2e75Bef0aefC5B0f",
          "topics": [
            "0x8c5be1e5ebec7d5bd14f71427d1e84f3dd0314c0f7b2291e5b200ac8c7c3b925",
            "0x000000000000000000000000172df12af47864389eaf4bc1ea93877be1dd7ae9",
            "0x00000000000000000000000052ee1ffba696c5e9b0bc177a9f8a3098420ea691"
          ],
          "data": "0x0000000000000000000000000000000000000000000000000000000000000504",
          "blockHash": "0x054a81983f9054347f45c6afe71b8cba4d01ea4172a0f1559961ab9438380d02",
          "blockNumber": "0xfc84e8c",
          "transactionHash": "0x20d9a2db4fe6427b984677fc246bcd69fa5972934ed1c7e97bd96b1fdcf4125a",
          "transactionIndex": "0x2",
          "logIndex": "0x38",
          "removed": false
        },
        {
          "address": "0x82aF49447D8a07e3bd95BD0d56f35241523fBab1",
          "topics": [
            "0x8c5be1e5ebec7d5bd14f71427d1e84f3dd0314c0f7b2291e5b200ac8c7c3b925",
            "0x000000000000000000000000172df12af47864389eaf4bc1ea93877be1dd7ae9",
            "0x00000000000000000000000052ee1ffba696c5e9b0bc177a9f8a3098420ea691"
          ],
          "data": "0x00000000000000000000000000000000000000000000000000130705f1a1fb32",
          "blockHash": "0x054a81983f9054347f45c6afe71b8cba4d01ea4172a0f1559961ab9438380d02",
          "blockNumber": "0xfc84e8c",
          "transactionHash": "0x20d9a2db4fe6427b984677fc246bcd69fa5972934ed1c7e97bd96b1fdcf4125a",
          "transactionIndex": "0x2",
          "logIndex": "0x39",
          "removed": false
        },
        {
          "address": "0x149e36E72726e0BceA5c59d40df2c43F60f5A22D",
          "topics": [
            "0x0c396cd989a39f4459b5fa1aed6a9a8dcdbc45908acfd67e028cd568da98982c",
            "0x00000000000000000000000052ee1ffba696c5e9b0bc177a9f8a3098420ea691",
            "0x000000000000000000000000000000000000000000000000000000000003fffc",
            "0x0000000000000000000000000000000000000000000000000000000000040308"
          ],
          "data": "0x000000000000000000000000000000000000000000000000000000000000000000000000000000000000000000000000000000000000000000000000000000000000000000000000000000000000000000000000000000000000000000000000",
          "blockHash": "0x054a81983f9054347f45c6afe71b8cba4d01ea4172a0f1559961ab9438380d02",
          "blockNumber": "0xfc84e8c",
          "transactionHash": "0x20d9a2db4fe6427b984677fc246bcd69fa5972934ed1c7e97bd96b1fdcf4125a",
          "transactionIndex": "0x2",
          "logIndex": "0x3a",
          "removed": false
        },
        {
          "address": "0x2f2a2543B76A4166549F7aaB2e75Bef0aefC5B0f",
          "topics": [
            "0xddf252ad1be2c89b69c2b068fc378daa952ba7f163c4a11628f55a4df523b3ef",
            "0x000000000000000000000000149e36e72726e0bcea5c59d40df2c43f60f5a22d",
            "0x00000000000000000000000052ee1ffba696c5e9b0bc177a9f8a3098420ea691"
          ],
          "data": "0x000000000000000000000000000000000000000000000000000000000000023d",
          "blockHash": "0x054a81983f9054347f45c6afe71b8cba4d01ea4172a0f1559961ab9438380d02",
          "blockNumber": "0xfc84e8c",
          "transactionHash": "0x20d9a2db4fe6427b984677fc246bcd69fa5972934ed1c7e97bd96b1fdcf4125a",
          "transactionIndex": "0x2",
          "logIndex": "0x3b",
          "removed": false
        },
        {
          "address": "0x82aF49447D8a07e3bd95BD0d56f35241523fBab1",
          "topics": [
            "0xddf252ad1be2c89b69c2b068fc378daa952ba7f163c4a11628f55a4df523b3ef",
            "0x000000000000000000000000149e36e72726e0bcea5c59d40df2c43f60f5a22d",
            "0x00000000000000000000000052ee1ffba696c5e9b0bc177a9f8a3098420ea691"
          ],
          "data": "0x0000000000000000000000000000000000000000000000000000407e90b5b800",
          "blockHash": "0x054a81983f9054347f45c6afe71b8cba4d01ea4172a0f1559961ab9438380d02",
          "blockNumber": "0xfc84e8c",
          "transactionHash": "0x20d9a2db4fe6427b984677fc246bcd69fa5972934ed1c7e97bd96b1fdcf4125a",
          "transactionIndex": "0x2",
          "logIndex": "0x3c",
          "removed": false
        },
        {
          "address": "0x149e36E72726e0BceA5c59d40df2c43F60f5A22D",
          "topics": [
            "0x70935338e69775456a85ddef226c395fb668b63fa0115f5f20610b388e6ca9c0",
            "0x00000000000000000000000052ee1ffba696c5e9b0bc177a9f8a3098420ea691",
            "0x000000000000000000000000000000000000000000000000000000000003fffc",
            "0x0000000000000000000000000000000000000000000000000000000000040308"
          ],
          "data": "0x00000000000000000000000052ee1ffba696c5e9b0bc177a9f8a3098420ea691000000000000000000000000000000000000000000000000000000000000023d0000000000000000000000000000000000000000000000000000407e90b5b800",
          "blockHash": "0x054a81983f9054347f45c6afe71b8cba4d01ea4172a0f1559961ab9438380d02",
          "blockNumber": "0xfc84e8c",
          "transactionHash": "0x20d9a2db4fe6427b984677fc246bcd69fa5972934ed1c7e97bd96b1fdcf4125a",
          "transactionIndex": "0x2",
          "logIndex": "0x3d",
          "removed": false
        },
        {
          "address": "0x52ee1FFBA696c5E9b0Bc177A9f8a3098420EA691",
          "topics": [
            "0x4606b8a47eb284e8e80929101ece6ab5fe8d4f8735acc56bd0c92ca872f2cfe7"
          ],
          "data": "0x0000000000000000000000000000000000000000000000000000000000000005000000000000000000000000000000000000000000000000000000000000023d0000000000000000000000000000000000000000000000000000407e90b5b800",
          "blockHash": "0x054a81983f9054347f45c6afe71b8cba4d01ea4172a0f1559961ab9438380d02",
          "blockNumber": "0xfc84e8c",
          "transactionHash": "0x20d9a2db4fe6427b984677fc246bcd69fa5972934ed1c7e97bd96b1fdcf4125a",
          "transactionIndex": "0x2",
          "logIndex": "0x3e",
          "removed": false
        },
        {
          "address": "0x2f2a2543B76A4166549F7aaB2e75Bef0aefC5B0f",
          "topics": [
            "0xddf252ad1be2c89b69c2b068fc378daa952ba7f163c4a11628f55a4df523b3ef",
            "0x00000000000000000000000052ee1ffba696c5e9b0bc177a9f8a3098420ea691",
            "0x00000000000000000000000093b1e9930685e1b4e6b3db54fc061c29b89df061"
          ],
          "data": "0x0000000000000000000000000000000000000000000000000000000000000072",
          "blockHash": "0x054a81983f9054347f45c6afe71b8cba4d01ea4172a0f1559961ab9438380d02",
          "blockNumber": "0xfc84e8c",
          "transactionHash": "0x20d9a2db4fe6427b984677fc246bcd69fa5972934ed1c7e97bd96b1fdcf4125a",
          "transactionIndex": "0x2",
          "logIndex": "0x3f",
          "removed": false
        },
        {
          "address": "0x82aF49447D8a07e3bd95BD0d56f35241523fBab1",
          "topics": [
            "0xddf252ad1be2c89b69c2b068fc378daa952ba7f163c4a11628f55a4df523b3ef",
            "0x00000000000000000000000052ee1ffba696c5e9b0bc177a9f8a3098420ea691",
            "0x00000000000000000000000093b1e9930685e1b4e6b3db54fc061c29b89df061"
          ],
          "data": "0x00000000000000000000000000000000000000000000000000000ce61cf124cc",
          "blockHash": "0x054a81983f9054347f45c6afe71b8cba4d01ea4172a0f1559961ab9438380d02",
          "blockNumber": "0xfc84e8c",
          "transactionHash": "0x20d9a2db4fe6427b984677fc246bcd69fa5972934ed1c7e97bd96b1fdcf4125a",
          "transactionIndex": "0x2",
          "logIndex": "0x40",
          "removed": false
        },
        {
          "address": "0x149e36E72726e0BceA5c59d40df2c43F60f5A22D",
          "topics": [
            "0x0c396cd989a39f4459b5fa1aed6a9a8dcdbc45908acfd67e028cd568da98982c",
            "0x00000000000000000000000052ee1ffba696c5e9b0bc177a9f8a3098420ea691",
            "0x000000000000000000000000000000000000000000000000000000000003f408",
            "0x0000000000000000000000000000000000000000000000000000000000040290"
          ],
          "data": "0x000000000000000000000000000000000000000000000000000000000000000000000000000000000000000000000000000000000000000000000000000000000000000000000000000000000000000000000000000000000000000000000000",
          "blockHash": "0x054a81983f9054347f45c6afe71b8cba4d01ea4172a0f1559961ab9438380d02",
          "blockNumber": "0xfc84e8c",
          "transactionHash": "0x20d9a2db4fe6427b984677fc246bcd69fa5972934ed1c7e97bd96b1fdcf4125a",
          "transactionIndex": "0x2",
          "logIndex": "0x41",
          "removed": false
        },
        {
          "address": "0x2f2a2543B76A4166549F7aaB2e75Bef0aefC5B0f",
          "topics": [
            "0xddf252ad1be2c89b69c2b068fc378daa952ba7f163c4a11628f55a4df523b3ef",
            "0x000000000000000000000000149e36e72726e0bcea5c59d40df2c43f60f5a22d",
            "0x00000000000000000000000052ee1ffba696c5e9b0bc177a9f8a3098420ea691"
          ],
          "data": "0x00000000000000000000000000000000000000000000000000000000000002b0",
          "blockHash": "0x054a81983f9054347f45c6afe71b8cba4d01ea4172a0f1559961ab9438380d02",
          "blockNumber": "0xfc84e8c",
          "transactionHash": "0x20d9a2db4fe6427b984677fc246bcd69fa5972934ed1c7e97bd96b1fdcf4125a",
          "transactionIndex": "0x2",
          "logIndex": "0x42",
          "removed": false
        },
        {
          "address": "0x82aF49447D8a07e3bd95BD0d56f35241523fBab1",
          "topics": [
            "0xddf252ad1be2c89b69c2b068fc378daa952ba7f163c4a11628f55a4df523b3ef",
            "0x000000000000000000000000149e36e72726e0bcea5c59d40df2c43f60f5a22d",
            "0x00000000000000000000000052ee1ffba696c5e9b0bc177a9f8a3098420ea691"
          ],
          "data": "0x00000000000000000000000000000000000000000000000000004d68afb9df87",
          "blockHash": "0x054a81983f9054347f45c6afe71b8cba4d01ea4172a0f1559961ab9438380d02",
          "blockNumber": "0xfc84e8c",
          "transactionHash": "0x20d9a2db4fe6427b984677fc246bcd69fa5972934ed1c7e97bd96b1fdcf4125a",
          "transactionIndex": "0x2",
          "logIndex": "0x43",
          "removed": false
        },
        {
          "address": "0x149e36E72726e0BceA5c59d40df2c43F60f5A22D",
          "topics": [
            "0x70935338e69775456a85ddef226c395fb668b63fa0115f5f20610b388e6ca9c0",
            "0x00000000000000000000000052ee1ffba696c5e9b0bc177a9f8a3098420ea691",
            "0x000000000000000000000000000000000000000000000000000000000003f408",
            "0x0000000000000000000000000000000000000000000000000000000000040290"
          ],
          "data": "0x00000000000000000000000052ee1ffba696c5e9b0bc177a9f8a3098420ea69100000000000000000000000000000000000000000000000000000000000002b000000000000000000000000000000000000000000000000000004d68afb9df87",
          "blockHash": "0x054a81983f9054347f45c6afe71b8cba4d01ea4172a0f1559961ab9438380d02",
          "blockNumber": "0xfc84e8c",
          "transactionHash": "0x20d9a2db4fe6427b984677fc246bcd69fa5972934ed1c7e97bd96b1fdcf4125a",
          "transactionIndex": "0x2",
          "logIndex": "0x44",
          "removed": false
        },
        {
          "address": "0x52ee1FFBA696c5E9b0Bc177A9f8a3098420EA691",
          "topics": [
            "0x4606b8a47eb284e8e80929101ece6ab5fe8d4f8735acc56bd0c92ca872f2cfe7"
          ],
          "data": "0x000000000000000000000000000000000000000000000000000000000000000500000000000000000000000000000000000000000000000000000000000002b000000000000000000000000000000000000000000000000000004d68afb9df87",
          "blockHash": "0x054a81983f9054347f45c6afe71b8cba4d01ea4172a0f1559961ab9438380d02",
          "blockNumber": "0xfc84e8c",
          "transactionHash": "0x20d9a2db4fe6427b984677fc246bcd69fa5972934ed1c7e97bd96b1fdcf4125a",
          "transactionIndex": "0x2",
          "logIndex": "0x45",
          "removed": false
        },
        {
          "address": "0x2f2a2543B76A4166549F7aaB2e75Bef0aefC5B0f",
          "topics": [
            "0xddf252ad1be2c89b69c2b068fc378daa952ba7f163c4a11628f55a4df523b3ef",
            "0x00000000000000000000000052ee1ffba696c5e9b0bc177a9f8a3098420ea691",
            "0x00000000000000000000000093b1e9930685e1b4e6b3db54fc061c29b89df061"
          ],
          "data": "0x0000000000000000000000000000000000000000000000000000000000000089",
          "blockHash": "0x054a81983f9054347f45c6afe71b8cba4d01ea4172a0f1559961ab9438380d02",
          "blockNumber": "0xfc84e8c",
          "transactionHash": "0x20d9a2db4fe6427b984677fc246bcd69fa5972934ed1c7e97bd96b1fdcf4125a",
          "transactionIndex": "0x2",
          "logIndex": "0x46",
          "removed": false
        },
        {
          "address": "0x82aF49447D8a07e3bd95BD0d56f35241523fBab1",
          "topics": [
            "0xddf252ad1be2c89b69c2b068fc378daa952ba7f163c4a11628f55a4df523b3ef",
            "0x00000000000000000000000052ee1ffba696c5e9b0bc177a9f8a3098420ea691",
            "0x00000000000000000000000093b1e9930685e1b4e6b3db54fc061c29b89df061"
          ],
          "data": "0x00000000000000000000000000000000000000000000000000000f7b56585fe7",
          "blockHash": "0x054a81983f9054347f45c6afe71b8cba4d01ea4172a0f1559961ab9438380d02",
          "blockNumber": "0xfc84e8c",
          "transactionHash": "0x20d9a2db4fe6427b984677fc246bcd69fa5972934ed1c7e97bd96b1fdcf4125a",
          "transactionIndex": "0x2",
          "logIndex": "0x47",
          "removed": false
        },
        {
          "address": "0x2f2a2543B76A4166549F7aaB2e75Bef0aefC5B0f",
          "topics": [
            "0xddf252ad1be2c89b69c2b068fc378daa952ba7f163c4a11628f55a4df523b3ef",
            "0x000000000000000000000000172df12af47864389eaf4bc1ea93877be1dd7ae9",
            "0x00000000000000000000000052ee1ffba696c5e9b0bc177a9f8a3098420ea691"
          ],
          "data": "0x0000000000000000000000000000000000000000000000000000000000000504",
          "blockHash": "0x054a81983f9054347f45c6afe71b8cba4d01ea4172a0f1559961ab9438380d02",
          "blockNumber": "0xfc84e8c",
          "transactionHash": "0x20d9a2db4fe6427b984677fc246bcd69fa5972934ed1c7e97bd96b1fdcf4125a",
          "transactionIndex": "0x2",
          "logIndex": "0x48",
          "removed": false
        },
        {
          "address": "0x2f2a2543B76A4166549F7aaB2e75Bef0aefC5B0f",
          "topics": [
            "0x8c5be1e5ebec7d5bd14f71427d1e84f3dd0314c0f7b2291e5b200ac8c7c3b925",
            "0x000000000000000000000000172df12af47864389eaf4bc1ea93877be1dd7ae9",
            "0x00000000000000000000000052ee1ffba696c5e9b0bc177a9f8a3098420ea691"
          ],
          "data": "0x0000000000000000000000000000000000000000000000000000000000000000",
          "blockHash": "0x054a81983f9054347f45c6afe71b8cba4d01ea4172a0f1559961ab9438380d02",
          "blockNumber": "0xfc84e8c",
          "transactionHash": "0x20d9a2db4fe6427b984677fc246bcd69fa5972934ed1c7e97bd96b1fdcf4125a",
          "transactionIndex": "0x2",
          "logIndex": "0x49",
          "removed": false
        },
        {
          "address": "0x82aF49447D8a07e3bd95BD0d56f35241523fBab1",
          "topics": [
            "0xddf252ad1be2c89b69c2b068fc378daa952ba7f163c4a11628f55a4df523b3ef",
            "0x000000000000000000000000172df12af47864389eaf4bc1ea93877be1dd7ae9",
            "0x00000000000000000000000052ee1ffba696c5e9b0bc177a9f8a3098420ea691"
          ],
          "data": "0x00000000000000000000000000000000000000000000000000130705f1a1fb32",
          "blockHash": "0x054a81983f9054347f45c6afe71b8cba4d01ea4172a0f1559961ab9438380d02",
          "blockNumber": "0xfc84e8c",
          "transactionHash": "0x20d9a2db4fe6427b984677fc246bcd69fa5972934ed1c7e97bd96b1fdcf4125a",
          "transactionIndex": "0x2",
          "logIndex": "0x4a",
          "removed": false
        },
        {
          "address": "0x82aF49447D8a07e3bd95BD0d56f35241523fBab1",
          "topics": [
            "0x8c5be1e5ebec7d5bd14f71427d1e84f3dd0314c0f7b2291e5b200ac8c7c3b925",
            "0x000000000000000000000000172df12af47864389eaf4bc1ea93877be1dd7ae9",
            "0x00000000000000000000000052ee1ffba696c5e9b0bc177a9f8a3098420ea691"
          ],
          "data": "0x0000000000000000000000000000000000000000000000000000000000000000",
          "blockHash": "0x054a81983f9054347f45c6afe71b8cba4d01ea4172a0f1559961ab9438380d02",
          "blockNumber": "0xfc84e8c",
          "transactionHash": "0x20d9a2db4fe6427b984677fc246bcd69fa5972934ed1c7e97bd96b1fdcf4125a",
          "transactionIndex": "0x2",
          "logIndex": "0x4b",
          "removed": false
        },
        {
          "address": "0x2f2a2543B76A4166549F7aaB2e75Bef0aefC5B0f",
          "topics": [
            "0xddf252ad1be2c89b69c2b068fc378daa952ba7f163c4a11628f55a4df523b3ef",
            "0x00000000000000000000000052ee1ffba696c5e9b0bc177a9f8a3098420ea691",
            "0x000000000000000000000000149e36e72726e0bcea5c59d40df2c43f60f5a22d"
          ],
          "data": "0x00000000000000000000000000000000000000000000000000000000000008f6",
          "blockHash": "0x054a81983f9054347f45c6afe71b8cba4d01ea4172a0f1559961ab9438380d02",
          "blockNumber": "0xfc84e8c",
          "transactionHash": "0x20d9a2db4fe6427b984677fc246bcd69fa5972934ed1c7e97bd96b1fdcf4125a",
          "transactionIndex": "0x2",
          "logIndex": "0x4c",
          "removed": false
        },
        {
          "address": "0x82aF49447D8a07e3bd95BD0d56f35241523fBab1",
          "topics": [
            "0xddf252ad1be2c89b69c2b068fc378daa952ba7f163c4a11628f55a4df523b3ef",
            "0x00000000000000000000000052ee1ffba696c5e9b0bc177a9f8a3098420ea691",
            "0x000000000000000000000000149e36e72726e0bcea5c59d40df2c43f60f5a22d"
          ],
          "data": "0x00000000000000000000000000000000000000000000000000062f64e9f6bb1d",
          "blockHash": "0x054a81983f9054347f45c6afe71b8cba4d01ea4172a0f1559961ab9438380d02",
          "blockNumber": "0xfc84e8c",
          "transactionHash": "0x20d9a2db4fe6427b984677fc246bcd69fa5972934ed1c7e97bd96b1fdcf4125a",
          "transactionIndex": "0x2",
          "logIndex": "0x4d",
          "removed": false
        },
        {
          "address": "0x149e36E72726e0BceA5c59d40df2c43F60f5A22D",
          "topics": [
            "0x7a53080ba414158be7ec69b987b5fb7d07dee101fe85488f0853ae16239d0bde",
            "0x00000000000000000000000052ee1ffba696c5e9b0bc177a9f8a3098420ea691",
            "0x000000000000000000000000000000000000000000000000000000000003fffc",
            "0x0000000000000000000000000000000000000000000000000000000000040308"
          ],
          "data": "0x00000000000000000000000052ee1ffba696c5e9b0bc177a9f8a3098420ea6910000000000000000000000000000000000000000000000000000001bca2a703b00000000000000000000000000000000000000000000000000000000000008f600000000000000000000000000000000000000000000000000062f64e9f6bb1d",
          "blockHash": "0x054a81983f9054347f45c6afe71b8cba4d01ea4172a0f1559961ab9438380d02",
          "blockNumber": "0xfc84e8c",
          "transactionHash": "0x20d9a2db4fe6427b984677fc246bcd69fa5972934ed1c7e97bd96b1fdcf4125a",
          "transactionIndex": "0x2",
          "logIndex": "0x4e",
          "removed": false
        },
        {
          "address": "0x52ee1FFBA696c5E9b0Bc177A9f8a3098420EA691",
          "topics": [
            "0xddf252ad1be2c89b69c2b068fc378daa952ba7f163c4a11628f55a4df523b3ef",
            "0x0000000000000000000000000000000000000000000000000000000000000000",
            "0x000000000000000000000000e7b538f6deb6314c55118e46b4014ca496292709"
          ],
          "data": "0x0000000000000000000000000000000000000000000000000008d0e1dd37d971",
          "blockHash": "0x054a81983f9054347f45c6afe71b8cba4d01ea4172a0f1559961ab9438380d02",
          "blockNumber": "0xfc84e8c",
          "transactionHash": "0x20d9a2db4fe6427b984677fc246bcd69fa5972934ed1c7e97bd96b1fdcf4125a",
          "transactionIndex": "0x2",
          "logIndex": "0x4f",
          "removed": false
        },
        {
          "address": "0x52ee1FFBA696c5E9b0Bc177A9f8a3098420EA691",
          "topics": [
            "0x4e2ca0515ed1aef1395f66b5303bb5d6f1bf9d61a353fa53f73f8ac9973fa9f6",
            "0x000000000000000000000000172df12af47864389eaf4bc1ea93877be1dd7ae9",
            "0x000000000000000000000000e7b538f6deb6314c55118e46b4014ca496292709"
          ],
          "data": "0x0000000000000000000000000000000000000000000000000008d0e1dd37d971000000000000000000000000000000000000000000000000000000000000050400000000000000000000000000000000000000000000000000130705f1a1fb32",
          "blockHash": "0x054a81983f9054347f45c6afe71b8cba4d01ea4172a0f1559961ab9438380d02",
          "blockNumber": "0xfc84e8c",
          "transactionHash": "0x20d9a2db4fe6427b984677fc246bcd69fa5972934ed1c7e97bd96b1fdcf4125a",
          "transactionIndex": "0x2",
          "logIndex": "0x50",
          "removed": false
        },
        {
          "address": "0x2f2a2543B76A4166549F7aaB2e75Bef0aefC5B0f",
          "topics": [
            "0x8c5be1e5ebec7d5bd14f71427d1e84f3dd0314c0f7b2291e5b200ac8c7c3b925",
            "0x000000000000000000000000172df12af47864389eaf4bc1ea93877be1dd7ae9",
            "0x00000000000000000000000052ee1ffba696c5e9b0bc177a9f8a3098420ea691"
          ],
          "data": "0x0000000000000000000000000000000000000000000000000000000000000000",
          "blockHash": "0x054a81983f9054347f45c6afe71b8cba4d01ea4172a0f1559961ab9438380d02",
          "blockNumber": "0xfc84e8c",
          "transactionHash": "0x20d9a2db4fe6427b984677fc246bcd69fa5972934ed1c7e97bd96b1fdcf4125a",
          "transactionIndex": "0x2",
          "logIndex": "0x51",
          "removed": false
        },
        {
          "address": "0x82aF49447D8a07e3bd95BD0d56f35241523fBab1",
          "topics": [
            "0x8c5be1e5ebec7d5bd14f71427d1e84f3dd0314c0f7b2291e5b200ac8c7c3b925",
            "0x000000000000000000000000172df12af47864389eaf4bc1ea93877be1dd7ae9",
            "0x00000000000000000000000052ee1ffba696c5e9b0bc177a9f8a3098420ea691"
          ],
          "data": "0x0000000000000000000000000000000000000000000000000000000000000000",
          "blockHash": "0x054a81983f9054347f45c6afe71b8cba4d01ea4172a0f1559961ab9438380d02",
          "blockNumber": "0xfc84e8c",
          "transactionHash": "0x20d9a2db4fe6427b984677fc246bcd69fa5972934ed1c7e97bd96b1fdcf4125a",
          "transactionIndex": "0x2",
          "logIndex": "0x52",
          "removed": false
        },
        {
          "address": "0x172DF12aF47864389EAF4bC1EA93877bE1Dd7ae9",
          "topics": [
            "0xdcbc1c05240f31ff3ad067ef1ee35ce4997762752e3a095284754544f4c709d7",
            "0x000000000000000000000000e7b538f6deb6314c55118e46b4014ca496292709",
            "0x0000000000000000000000002f2a2543b76a4166549f7aab2e75bef0aefc5b0f"
          ],
          "data": "0x000000000000000000000000000000000000000000000000000000000000ad88000000000000000000000000000000000000000000000000000000000000c350",
          "blockHash": "0x054a81983f9054347f45c6afe71b8cba4d01ea4172a0f1559961ab9438380d02",
          "blockNumber": "0xfc84e8c",
          "transactionHash": "0x20d9a2db4fe6427b984677fc246bcd69fa5972934ed1c7e97bd96b1fdcf4125a",
          "transactionIndex": "0x2",
          "logIndex": "0x53",
          "removed": false
        }
      ],
      "logsBloom": "0x01000202000804020100100002024000000040008100000000000000000100000000000000400001000000001002000000204201000c20000200080000200000000000690100000800000008000008008000800000200800000008002000000000002000020000800008100400000800000000000404820001000010000800000800200008000000005000400000040400008000000000820804080000010000020000004022000200000000c00000001000000048000000000000840000000000002202000000000008080000200000080000000008000000010010000020400010080000040010200000000000200400000000004000082000000000000080",
      "type": "0x2",
      "transactionHash": "0x20d9a2db4fe6427b984677fc246bcd69fa5972934ed1c7e97bd96b1fdcf4125a",
      "transactionIndex": "0x2",
      "blockHash": "0x054a81983f9054347f45c6afe71b8cba4d01ea4172a0f1559961ab9438380d02",
      "blockNumber": "0xfc84e8c",
      "gasUsed": "0x2a2403",
      "effectiveGasPrice": "0x989680",
      "from": "0xF9d85965c6A40D0C029471d758850e4b4C0d5b17",
      "to": "0xE7b538f6deB6314c55118e46b4014Ca496292709",
      "contractAddress": null,
      "gasUsedForL1": "0x3427d",
      "l1BlockNumber": "0x1403851"
    }
  ],
  "libraries": [],
  "pending": [],
  "returns": {},
  "timestamp": 1729176026,
  "chain": 42161,
  "commit": "347eda7"
}