{
  "transactions": [
    {
      "hash": "0x47435d5f24a0a480df13153c1e112da528cc38885aa72ffc33c522451fc15903",
      "transactionType": "CREATE",
      "contractName": null,
      "contractAddress": "0x4e00da71559c9631032a041730fb752dD97E5484",
      "function": null,
      "arguments": null,
      "transaction": {
        "from": "0xF9d85965c6A40D0C029471d758850e4b4C0d5b17",
        "gas": "0x4d2a5b",
        "value": "0x0",
        "input": "0x6101206040523480156200001257600080fd5b5060405162002f0a38038062002f0a8339810160408190526200003591620000ff565b33806200005c57604051631e4fbdf760e01b81526000600482015260240160405180910390fd5b620000678162000092565b506001600160a01b0394851660805292841660a05290831660c052821660e05216610100526200016f565b600080546001600160a01b038381166001600160a01b0319831681178455604051919092169283917f8be0079c531659141344cd1fd0a4f28419497f9722a3daafe3b4186f6b6457e09190a35050565b80516001600160a01b0381168114620000fa57600080fd5b919050565b600080600080600060a086880312156200011857600080fd5b6200012386620000e2565b94506200013360208701620000e2565b93506200014360408701620000e2565b92506200015360608701620000e2565b91506200016360808701620000e2565b90509295509295909350565b60805160a05160c05160e05161010051612ca36200026760003960008181610e0501528181610e4701528181610efb0152818161102601528181611609015281816116870152818161170f0152818161176d015281816117eb0152818161187301528181611bb101528181611bd801528181611ce501528181611e3301528181611e750152611f490152600081816104070152818161063f0152818161087f015281816108ab01528181610b9501528181610bc70152610c7a01526000818161112c01526119b601526000818161085e01528181610c9b01528181611dde01528181611e110152611f27015260005050612ca36000f3fe608060405234801561001057600080fd5b50600436106100935760003560e01c80638da5cb5b116100665780638da5cb5b14610100578063978bbdb91461011b578063cc29a7a514610132578063f2fde38b14610145578063f940e3851461015857600080fd5b8063162dd47a1461009857806347e7ef24146100ad578063715018a6146100e557806384a812e4146100ed575b600080fd5b6100ab6100a63660046124e6565b61016b565b005b6100c06100bb366004612503565b6101ba565b604080516001600160a01b039384168152929091166020830152015b60405180910390f35b6100ab610491565b6100ab6100fb36600461252f565b6104a5565b6000546040516001600160a01b0390911681526020016100dc565b61012460025481565b6040519081526020016100dc565b6100ab610140366004612602565b6104d4565b6100ab6101533660046124e6565b610578565b6100ab6101663660046126a6565b6105bb565b6101736107b4565b6001600160a01b038116600090815260036020526040812080546001600160b81b0319168155906101a76001830182612483565b6101b5600283016000612483565b505050565b6000806127108310156101e05760405163e420a20d60e01b815260040160405180910390fd5b6040516370a0823160e01b81523360048201526000906001600160a01b038616906370a0823190602401602060405180830381865afa158015610227573d6000803e3d6000fd5b505050506040513d601f19601f8201168201806040525081019061024b91906126d4565b90506102626001600160a01b0386163330846107e1565b6001600160a01b038581166000908152600360209081526040808320815160808101835281549586168152600160a01b90950462ffffff1692850192909252600182018054939493918401916102b7906126ed565b80601f01602080910402602001604051908101604052809291908181526020018280546102e3906126ed565b80156103305780601f1061030557610100808354040283529160200191610330565b820191906000526020600020905b81548152906001019060200180831161031357829003601f168201915b50505050508152602001600282018054610349906126ed565b80601f0160208091040260200160405190810160405280929190818152602001828054610375906126ed565b80156103c25780601f10610397576101008083540402835291602001916103c2565b820191906000526020600020905b8154815290600101906020018083116103a557829003601f168201915b5050509190925250508151919250506001600160a01b03166103f657604051626fc74f60e31b815260040160405180910390fd5b6104058686836040015161084e565b7f00000000000000000000000000000000000000000000000000000000000000009350620186a08510156104425761043d86826108cf565b805192505b60408051838152602081018790526001600160a01b0388169133917fdcbc1c05240f31ff3ad067ef1ee35ce4997762752e3a095284754544f4c709d7910160405180910390a350509250929050565b6104996107b4565b6104a360006108f1565b565b6104ad6107b4565b600291909155600180546001600160a01b0319166001600160a01b03909216919091179055565b6104dc6107b4565b604080516080810182526001600160a01b03808716825262ffffff8087166020808501918252848601888152606086018890528b851660009081526003909252959020845181549251909316600160a01b026001600160b81b0319909216929093169190911717815591519091906001820190610559908261276d565b506060820151600282019061056e908261276d565b5050505050505050565b6105806107b4565b6001600160a01b0381166105af57604051631e4fbdf760e01b8152600060048201526024015b60405180910390fd5b6105b8816108f1565b50565b6040516370a0823160e01b8152336004820181905261063d9130906001600160a01b038616906370a0823190602401602060405180830381865afa158015610607573d6000803e3d6000fd5b505050506040513d601f19601f8201168201806040525081019061062b91906126d4565b6001600160a01b0386169291906107e1565b7f00000000000000000000000000000000000000000000000000000000000000006001600160a01b0316826001600160a01b031614610685576106808282610941565b61068e565b61068e81610b93565b600061069982610ccb565b90506000620186a0600254836106af9190612843565b6106b9919061285a565b90506106c5818361287c565b9150610752600160009054906101000a90046001600160a01b03166001600160a01b0316638ce744266040518163ffffffff1660e01b8152600401602060405180830381865afa15801561071d573d6000803e3d6000fd5b505050506040513d601f19601f82011682018060405250810190610741919061288f565b6001600160a01b0385169083610d3c565b6107666001600160a01b0384163384610d3c565b604080516001600160a01b0386811682526020820185905285169133917f3115d1449a7b732c986cba18244e897a450f61e1bb8d589cd2e69e6c8924f9f7910160405180910390a350505050565b6000546001600160a01b031633146104a35760405163118cdaa760e01b81523360048201526024016105a6565b6040516001600160a01b0384811660248301528381166044830152606482018390526108489186918216906323b872dd906084015b604051602081830303815290604052915060e01b6020820180516001600160e01b038381831617835250505050610d6d565b50505050565b610859838383610dd0565b6108a67f00000000000000000000000000000000000000000000000000000000000000007f0000000000000000000000000000000000000000000000000000000000000000610bb8610f21565b6101b57f00000000000000000000000000000000000000000000000000000000000000006118ac565b6108e28282600001518360200151610f21565b80516108ed906118ac565b5050565b600080546001600160a01b038381166001600160a01b0319831681178455604051919092169283917f8be0079c531659141344cd1fd0a4f28419497f9722a3daafe3b4186f6b6457e09190a35050565b6001600160a01b038181166000908152600360209081526040808320815160808101835281549586168152600160a01b90950462ffffff169285019290925260018201805493949391840191610996906126ed565b80601f01602080910402602001604051908101604052809291908181526020018280546109c2906126ed565b8015610a0f5780601f106109e457610100808354040283529160200191610a0f565b820191906000526020600020905b8154815290600101906020018083116109f257829003601f168201915b50505050508152602001600282018054610a28906126ed565b80601f0160208091040260200160405190810160405280929190818152602001828054610a54906126ed565b8015610aa15780601f10610a7657610100808354040283529160200191610aa1565b820191906000526020600020905b815481529060010190602001808311610a8457829003601f168201915b5050505050815250509050826001600160a01b031681600001516001600160a01b031614610ae25760405163f864263360e01b815260040160405180910390fd5b826001600160a01b031663a8559872610afa85610ccb565b3030604051806080016040528060008152602001600081526020016000815260200160008152506040518563ffffffff1660e01b8152600401610b4094939291906128cf565b60408051808303816000875af1158015610b5e573d6000803e3d6000fd5b505050506040513d601f19601f82011682018060405250810190610b8291906128fa565b50506101b583838360200151611aaa565b7f00000000000000000000000000000000000000000000000000000000000000006001600160a01b031663a8559872610beb7f0000000000000000000000000000000000000000000000000000000000000000610ccb565b3030604051806080016040528060008152602001600081526020016000815260200160008152506040518563ffffffff1660e01b8152600401610c3194939291906128cf565b60408051808303816000875af1158015610c4f573d6000803e3d6000fd5b505050506040513d601f19601f82011682018060405250810190610c7391906128fa565b5050610cc27f00000000000000000000000000000000000000000000000000000000000000007f0000000000000000000000000000000000000000000000000000000000000000610bb8611aaa565b6105b881611d31565b6040516370a0823160e01b81523060048201526000906001600160a01b038316906370a0823190602401602060405180830381865afa158015610d12573d6000803e3d6000fd5b505050506040513d601f19601f82011682018060405250810190610d3691906126d4565b92915050565b6040516001600160a01b038381166024830152604482018390526101b591859182169063a9059cbb90606401610816565b6000610d826001600160a01b03841683611f6f565b90508051600014158015610da7575080806020019051810190610da59190612933565b155b156101b557604051635274afe760e01b81526001600160a01b03841660048201526024016105a6565b6000620186a083610de086610ccb565b610dea9190612843565b610df4919061285a565b9050610e2a6001600160a01b0385167f000000000000000000000000000000000000000000000000000000000000000083611f84565b6040805160a0810182528381523060208201526001600160a01b037f0000000000000000000000000000000000000000000000000000000000000000169163c04b8d5991908101610e7c42603c61294e565b815260200184815260200160018152506040518263ffffffff1660e01b8152600401610ea89190612985565b6020604051808303816000875af1158015610ec7573d6000803e3d6000fd5b505050506040513d601f19601f82011682018060405250810190610eeb91906126d4565b506108486001600160a01b0385167f00000000000000000000000000000000000000000000000000000000000000006000612009565b6000826001600160a01b0316630dfe16816040518163ffffffff1660e01b8152600401602060405180830381865afa158015610f61573d6000803e3d6000fd5b505050506040513d601f19601f82011682018060405250810190610f85919061288f565b90506000836001600160a01b031663d21220a76040518163ffffffff1660e01b8152600401602060405180830381865afa158015610fc7573d6000803e3d6000fd5b505050506040513d601f19601f82011682018060405250810190610feb919061288f565b90506000826001600160a01b0316866001600160a01b03161461100e5782611010565b815b9050600080611020858588612099565b905060007f00000000000000000000000000000000000000000000000000000000000000006001600160a01b031663c45a01556040518163ffffffff1660e01b8152600401602060405180830381865afa158015611082573d6000803e3d6000fd5b505050506040513d601f19601f820116820180604052508101906110a6919061288f565b90506110b28183612104565b6001600160a01b0316633850c7bd6040518163ffffffff1660e01b815260040160e060405180830381865afa1580156110ef573d6000803e3d6000fd5b505050506040513d601f19601f820116820180604052508101906111139190612a17565b5094975060009650869550859450506001600160a01b037f0000000000000000000000000000000000000000000000000000000000000000169250635ccfb71d91508b90508c61116281610ccb565b6040516001600160e01b031960e086901b1681526001600160a01b03938416600482015292909116602483015260448201526064016040805180830381865afa1580156111b3573d6000803e3d6000fd5b505050506040513d601f19601f820116820180604052508101906111d791906128fa565b915091506111ee6111e786610ccb565b83836121ed565b156111ff5750505050505050505050565b600261120b828461294e565b611215919061285a565b925050506001600160a01b0388811690861614600061123385610ccb565b905060006112408b610ccb565b905060008060008b905060008e6001600160a01b031663313ce5676040518163ffffffff1660e01b8152600401602060405180830381865afa15801561128a573d6000803e3d6000fd5b505050506040513d601f19601f820116820180604052508101906112ae9190612aa9565b60ff16905060008a6001600160a01b031663313ce5676040518163ffffffff1660e01b8152600401602060405180830381865afa1580156112f3573d6000803e3d6000fd5b505050506040513d601f19601f820116820180604052508101906113179190612aa9565b60ff1690506000806113326001600160a01b038d1680612843565b9050896113775761137261134785602461287c565b61135290600a612ba8565b61135d85600a612ba8565b6113679190612843565b82600160c01b612207565b6113b0565b6113b061138584602461287c565b61139090600a612ba8565b61139b86600a612ba8565b6113a59190612843565b600160c01b83612207565b91506000905061140d6113c485602461287c565b6113cf90600a612ba8565b6113d9908a612843565b6a0c097ce7bc90715b34b9f160241b6113f386602461287c565b6113fe90600a612ba8565b611408908f612843565b612207565b9050600061144961141f85602461287c565b61142a90600a612ba8565b611434908c612843565b836a0c097ce7bc90715b34b9f160241b612207565b90508061145786602461287c565b61146290600a612ba8565b61146c908b612843565b111561152e5760006114a961148a848962ffffff16620f4240612207565b611494908561287c565b6a0c097ce7bc90715b34b9f160241b86612207565b6114c1906a0c097ce7bc90715b34b9f160241b61294e565b90506114ce86602461287c565b6114d990600a612ba8565b61151c836114e889602461287c565b6114f390600a612ba8565b6114fd908e612843565b611507919061287c565b6a0c097ce7bc90715b34b9f160241b84612207565b611526919061285a565b9850506115cb565b6000611560836a0c097ce7bc90715b34b9f160241b611556878b62ffffff16620f4240612207565b611408908861294e565b611578906a0c097ce7bc90715b34b9f160241b61294e565b905061158586602461287c565b61159090600a612ba8565b6115bd61159e88602461287c565b6115a990600a612ba8565b6115b3908d612843565b611507908561287c565b6115c7919061285a565b9750505b50505050508685101561173c576000866115e5578a6115e7565b8b5b90506000876115f6578c6115f8565b8b5b905061162e6001600160a01b0383167f000000000000000000000000000000000000000000000000000000000000000088611f84565b60408051610100810182526001600160a01b038481168252838116602083015262ffffff86168284015230606083015242608083015260a08201889052600060c0830181905260e0830152915163414bf38960e01b81527f00000000000000000000000000000000000000000000000000000000000000009092169163414bf389916116bc91600401612bb4565b6020604051808303816000875af11580156116db573d6000803e3d6000fd5b505050506040513d601f19601f820116820180604052508101906116ff91906126d4565b506117356001600160a01b0383167f00000000000000000000000000000000000000000000000000000000000000006000612009565b505061189c565b600086611749578b61174b565b8a5b905060008761175a578b61175c565b8c5b90506117926001600160a01b0383167f000000000000000000000000000000000000000000000000000000000000000089611f84565b60408051610100810182526001600160a01b038481168252838116602083015262ffffff86168284015230606083015242608083015260a0820187905260c082018a9052600060e08301529151631b67c43360e31b81527f00000000000000000000000000000000000000000000000000000000000000009092169163db3e21989161182091600401612bb4565b6020604051808303816000875af115801561183f573d6000803e3d6000fd5b505050506040513d601f19601f8201168201806040525081019061186391906126d4565b506118996001600160a01b0383167f00000000000000000000000000000000000000000000000000000000000000006000612009565b50505b5050505050505050505050505050565b6000816001600160a01b0316630dfe16816040518163ffffffff1660e01b8152600401602060405180830381865afa1580156118ec573d6000803e3d6000fd5b505050506040513d601f19601f82011682018060405250810190611910919061288f565b90506000826001600160a01b031663d21220a76040518163ffffffff1660e01b8152600401602060405180830381865afa158015611952573d6000803e3d6000fd5b505050506040513d601f19601f82011682018060405250810190611976919061288f565b90506119968361198584610ccb565b6001600160a01b0385169190611f84565b6119b4836119a383610ccb565b6001600160a01b0384169190611f84565b7f00000000000000000000000000000000000000000000000000000000000000006001600160a01b0316638e3c92e46119ec84610ccb565b6119f584610ccb565b3387604051806080016040528060008152602001600081526020016000815260200160008152506040518663ffffffff1660e01b8152600401611a3c959493929190612c1e565b6020604051808303816000875af1158015611a5b573d6000803e3d6000fd5b505050506040513d601f19601f82011682018060405250810190611a7f91906126d4565b50611a956001600160a01b038316846000612009565b6101b56001600160a01b038216846000612009565b6000836001600160a01b0316630dfe16816040518163ffffffff1660e01b8152600401602060405180830381865afa158015611aea573d6000803e3d6000fd5b505050506040513d601f19601f82011682018060405250810190611b0e919061288f565b90506000836001600160a01b0316826001600160a01b031614611b315781611b93565b846001600160a01b031663d21220a76040518163ffffffff1660e01b8152600401602060405180830381865afa158015611b6f573d6000803e3d6000fd5b505050506040513d601f19601f82011682018060405250810190611b93919061288f565b90506000611ba082610ccb565b9050611bd66001600160a01b0383167f000000000000000000000000000000000000000000000000000000000000000083611f84565b7f00000000000000000000000000000000000000000000000000000000000000006001600160a01b031663414bf389604051806101000160405280856001600160a01b03168152602001886001600160a01b031681526020018762ffffff168152602001306001600160a01b0316815260200142603c611c56919061294e565b81526020018481526020016000815260200160006001600160a01b03168152506040518263ffffffff1660e01b8152600401611c929190612bb4565b6020604051808303816000875af1158015611cb1573d6000803e3d6000fd5b505050506040513d601f19601f82011682018060405250810190611cd591906126d4565b50611d0b6001600160a01b0383167f00000000000000000000000000000000000000000000000000000000000000006000612009565b611d2933611d1884610ccb565b6001600160a01b0385169190610d3c565b505050505050565b6001600160a01b03811660009081526003602052604081206002018054611d57906126ed565b80601f0160208091040260200160405190810160405280929190818152602001828054611d83906126ed565b8015611dd05780601f10611da557610100808354040283529160200191611dd0565b820191906000526020600020905b815481529060010190602001808311611db357829003601f168201915b505050505090506000611e027f0000000000000000000000000000000000000000000000000000000000000000610ccb565b9050611e586001600160a01b037f0000000000000000000000000000000000000000000000000000000000000000167f000000000000000000000000000000000000000000000000000000000000000083611f84565b6040805160a0810182528381523060208201526001600160a01b037f0000000000000000000000000000000000000000000000000000000000000000169163c04b8d5991908101611eaa42603c61294e565b815260200184815260200160008152506040518263ffffffff1660e01b8152600401611ed69190612985565b6020604051808303816000875af1158015611ef5573d6000803e3d6000fd5b505050506040513d601f19601f82011682018060405250810190611f1991906126d4565b506101b56001600160a01b037f0000000000000000000000000000000000000000000000000000000000000000167f00000000000000000000000000000000000000000000000000000000000000006000612009565b6060611f7d838360006122b9565b9392505050565b604051636eb1769f60e11b81523060048201526001600160a01b0383811660248301526000919085169063dd62ed3e90604401602060405180830381865afa158015611fd4573d6000803e3d6000fd5b505050506040513d601f19601f82011682018060405250810190611ff891906126d4565b90506108488484612009858561294e565b604080516001600160a01b038416602482015260448082018490528251808303909101815260649091019091526020810180516001600160e01b031663095ea7b360e01b17905261205a8482612356565b610848576040516001600160a01b0384811660248301526000604483015261208f91869182169063095ea7b390606401610816565b6108488482610d6d565b6040805160608101825260008082526020820181905291810191909152826001600160a01b0316846001600160a01b031611156120d4579192915b50604080516060810182526001600160a01b03948516815292909316602083015262ffffff169181019190915290565b600081602001516001600160a01b031682600001516001600160a01b03161061212c57600080fd5b815160208084015160408086015181516001600160a01b0395861681860152949092168482015262ffffff90911660608085019190915281518085038201815260808501909252815191909201206001600160f81b031960a08401529085901b6bffffffffffffffffffffffff191660a183015260b58201527fe34f199b19b2b4f47f68442619d555527d244f78a3297ea89325f843f87b8b5460d582015260f50160408051601f1981840301815291905280516020909101209392505050565b60008284101580156121ff5750818411155b949350505050565b6000808060001985870985870292508281108382030391505080600003612240576000841161223557600080fd5b508290049050611f7d565b80841161224c57600080fd5b6000848688096000868103871696879004966002600389028118808a02820302808a02820302808a02820302808a02820302808a02820302808a02909103029181900381900460010186841190950394909402919094039290920491909117919091029150509392505050565b6060814710156122de5760405163cd78605960e01b81523060048201526024016105a6565b600080856001600160a01b031684866040516122fa9190612c51565b60006040518083038185875af1925050503d8060008114612337576040519150601f19603f3d011682016040523d82523d6000602084013e61233c565b606091505b509150915061234c8683836123fe565b9695505050505050565b6000806000846001600160a01b0316846040516123739190612c51565b6000604051808303816000865af19150503d80600081146123b0576040519150601f19603f3d011682016040523d82523d6000602084013e6123b5565b606091505b50915091508180156123df5750805115806123df5750808060200190518101906123df9190612933565b80156123f557506000856001600160a01b03163b115b95945050505050565b6060826124135761240e8261245a565b611f7d565b815115801561242a57506001600160a01b0384163b155b1561245357604051639996b31560e01b81526001600160a01b03851660048201526024016105a6565b5080611f7d565b80511561246a5780518082602001fd5b604051630a12f52160e11b815260040160405180910390fd5b50805461248f906126ed565b6000825580601f1061249f575050565b601f0160209004906000526020600020908101906105b891905b808211156124cd57600081556001016124b9565b5090565b6001600160a01b03811681146105b857600080fd5b6000602082840312156124f857600080fd5b8135611f7d816124d1565b6000806040838503121561251657600080fd5b8235612521816124d1565b946020939093013593505050565b6000806040838503121561254257600080fd5b823591506020830135612554816124d1565b809150509250929050565b634e487b7160e01b600052604160045260246000fd5b600082601f83011261258657600080fd5b813567ffffffffffffffff808211156125a1576125a161255f565b604051601f8301601f19908116603f011681019082821181831017156125c9576125c961255f565b816040528381528660208588010111156125e257600080fd5b836020870160208301376000602085830101528094505050505092915050565b600080600080600060a0868803121561261a57600080fd5b8535612625816124d1565b94506020860135612635816124d1565b9350604086013562ffffff8116811461264d57600080fd5b9250606086013567ffffffffffffffff8082111561266a57600080fd5b61267689838a01612575565b9350608088013591508082111561268c57600080fd5b5061269988828901612575565b9150509295509295909350565b600080604083850312156126b957600080fd5b82356126c4816124d1565b91506020830135612554816124d1565b6000602082840312156126e657600080fd5b5051919050565b600181811c9082168061270157607f821691505b60208210810361272157634e487b7160e01b600052602260045260246000fd5b50919050565b601f8211156101b557600081815260208120601f850160051c8101602086101561274e5750805b601f850160051c820191505b81811015611d295782815560010161275a565b815167ffffffffffffffff8111156127875761278761255f565b61279b8161279584546126ed565b84612727565b602080601f8311600181146127d057600084156127b85750858301515b600019600386901b1c1916600185901b178555611d29565b600085815260208120601f198616915b828110156127ff578886015182559484019460019091019084016127e0565b508582101561281d5787850151600019600388901b60f8161c191681555b5050505050600190811b01905550565b634e487b7160e01b600052601160045260246000fd5b8082028115828204841417610d3657610d3661282d565b60008261287757634e487b7160e01b600052601260045260246000fd5b500490565b81810381811115610d3657610d3661282d565b6000602082840312156128a157600080fd5b8151611f7d816124d1565b8060005b60048110156108485781518452602093840193909101906001016128b0565b8481526001600160a01b0384811660208301528316604082015260e081016123f560608301846128ac565b6000806040838503121561290d57600080fd5b505080516020909101519092909150565b8051801515811461292e57600080fd5b919050565b60006020828403121561294557600080fd5b611f7d8261291e565b80820180821115610d3657610d3661282d565b60005b8381101561297c578181015183820152602001612964565b50506000910152565b602081526000825160a0602084015280518060c08501526129ad8160e0860160208501612961565b60018060a01b0360208601511660408501526040850151606085015260608501516080850152608085015160a085015260e0601f19601f8301168501019250505092915050565b805161ffff8116811461292e57600080fd5b805160ff8116811461292e57600080fd5b600080600080600080600060e0888a031215612a3257600080fd5b8751612a3d816124d1565b8097505060208801518060020b8114612a5557600080fd5b9550612a63604089016129f4565b9450612a71606089016129f4565b9350612a7f608089016129f4565b9250612a8d60a08901612a06565b9150612a9b60c0890161291e565b905092959891949750929550565b600060208284031215612abb57600080fd5b611f7d82612a06565b600181815b80851115612aff578160001904821115612ae557612ae561282d565b80851615612af257918102915b93841c9390800290612ac9565b509250929050565b600082612b1657506001610d36565b81612b2357506000610d36565b8160018114612b395760028114612b4357612b5f565b6001915050610d36565b60ff841115612b5457612b5461282d565b50506001821b610d36565b5060208310610133831016604e8410600b8410161715612b82575081810a610d36565b612b8c8383612ac4565b8060001904821115612ba057612ba061282d565b029392505050565b6000611f7d8383612b07565b6101008101610d36828480516001600160a01b03908116835260208083015182169084015260408083015162ffffff16908401526060808301518216908401526080808301519084015260a0828101519084015260c0808301519084015260e09182015116910152565b858152602081018590526001600160a01b03848116604083015283166060820152610100810161234c60808301846128ac565b60008251612c63818460208701612961565b919091019291505056fea26469706673582212205e8107294471d8bc00a2d75b8ba6cfb9a7b7d0ebfa073d9c0203834fd4bfa4c164736f6c634300081500330000000000000000000000002ea0be86990e8dac0d09e4316bb92086f304622d000000000000000000000000af88d065e77c8cc2239327c5edb3a432268e583100000000000000000000000082fceb07a4d01051519663f6c1c919af21c27845000000000000000000000000547a116a2622876ce1c8d19d41c683c8f7bec5c0000000000000000000000000e592427a0aece92de3edee1f18e0157c05861564",
        "nonce": "0x17c",
        "chainId": "0xa4b1"
      },
      "additionalContracts": [],
      "isFixedGasLimit": false
    },
    {
      "hash": "0x219ea88c7bf08e37d4cda774c590194fcc9ae71c3eee700cbe949a57c3f2e5d3",
      "transactionType": "CALL",
      "contractName": null,
      "contractAddress": "0x496aB4A155C8fE359Cd28d43650fAFA0A35322Fb",
      "function": "setYieldManager(address)",
      "arguments": [
        "0x4e00da71559c9631032a041730fb752dD97E5484"
      ],
      "transaction": {
        "from": "0xF9d85965c6A40D0C029471d758850e4b4C0d5b17",
        "to": "0x496aB4A155C8fE359Cd28d43650fAFA0A35322Fb",
        "gas": "0x17fc7",
        "value": "0x0",
        "input": "0x74ce962c0000000000000000000000004e00da71559c9631032a041730fb752dd97e5484",
        "nonce": "0x17d",
        "chainId": "0xa4b1"
      },
      "additionalContracts": [],
      "isFixedGasLimit": false
    },
    {
      "hash": "0xe82e120ec3ba65fb9fa521f4aaf13961ba9cf78b3bd2f8008d354a4728a4d4f9",
      "transactionType": "CALL",
      "contractName": null,
      "contractAddress": "0x4e00da71559c9631032a041730fb752dD97E5484",
      "function": "addHypervisorData(address,address,uint24,bytes,bytes)",
      "arguments": [
        "0x82aF49447D8a07e3bd95BD0d56f35241523fBab1",
        "0x52ee1FFBA696c5E9b0Bc177A9f8a3098420EA691",
        "3000",
        "0x82af49447d8a07e3bd95bd0d56f35241523fbab10001f4af88d065e77c8cc2239327c5edb3a432268e5831",
        "0xaf88d065e77c8cc2239327c5edb3a432268e58310001f482af49447d8a07e3bd95bd0d56f35241523fbab1"
      ],
      "transaction": {
        "from": "0xF9d85965c6A40D0C029471d758850e4b4C0d5b17",
        "to": "0x4e00da71559c9631032a041730fb752dD97E5484",
        "gas": "0x22728",
        "value": "0x0",
        "input": "0xcc29a7a500000000000000000000000082af49447d8a07e3bd95bd0d56f35241523fbab100000000000000000000000052ee1ffba696c5e9b0bc177a9f8a3098420ea6910000000000000000000000000000000000000000000000000000000000000bb800000000000000000000000000000000000000000000000000000000000000a00000000000000000000000000000000000000000000000000000000000000100000000000000000000000000000000000000000000000000000000000000002b82af49447d8a07e3bd95bd0d56f35241523fbab10001f4af88d065e77c8cc2239327c5edb3a432268e5831000000000000000000000000000000000000000000000000000000000000000000000000000000000000000000000000000000002baf88d065e77c8cc2239327c5edb3a432268e58310001f482af49447d8a07e3bd95bd0d56f35241523fbab1000000000000000000000000000000000000000000",
        "nonce": "0x17e",
        "chainId": "0xa4b1"
      },
      "additionalContracts": [],
      "isFixedGasLimit": false
    },
    {
      "hash": "0xdd68a3362bd85cbcfbe8ce9a25b26cf3c02c6c6cffb63abae4e5647f0f174dac",
      "transactionType": "CALL",
      "contractName": null,
      "contractAddress": "0x4e00da71559c9631032a041730fb752dD97E5484",
      "function": "addHypervisorData(address,address,uint24,bytes,bytes)",
      "arguments": [
        "0x2f2a2543B76A4166549F7aaB2e75Bef0aefC5B0f",
        "0x52ee1FFBA696c5E9b0Bc177A9f8a3098420EA691",
        "3000",
        "0x2f2a2543b76a4166549f7aab2e75bef0aefc5b0f0001f4af88d065e77c8cc2239327c5edb3a432268e5831",
        "0xaf88d065e77c8cc2239327c5edb3a432268e58310001f42f2a2543b76a4166549f7aab2e75bef0aefc5b0f"
      ],
      "transaction": {
        "from": "0xF9d85965c6A40D0C029471d758850e4b4C0d5b17",
        "to": "0x4e00da71559c9631032a041730fb752dD97E5484",
        "gas": "0x22728",
        "value": "0x0",
        "input": "0xcc29a7a50000000000000000000000002f2a2543b76a4166549f7aab2e75bef0aefc5b0f00000000000000000000000052ee1ffba696c5e9b0bc177a9f8a3098420ea6910000000000000000000000000000000000000000000000000000000000000bb800000000000000000000000000000000000000000000000000000000000000a00000000000000000000000000000000000000000000000000000000000000100000000000000000000000000000000000000000000000000000000000000002b2f2a2543b76a4166549f7aab2e75bef0aefc5b0f0001f4af88d065e77c8cc2239327c5edb3a432268e5831000000000000000000000000000000000000000000000000000000000000000000000000000000000000000000000000000000002baf88d065e77c8cc2239327c5edb3a432268e58310001f42f2a2543b76a4166549f7aab2e75bef0aefc5b0f000000000000000000000000000000000000000000",
        "nonce": "0x17f",
        "chainId": "0xa4b1"
      },
      "additionalContracts": [],
      "isFixedGasLimit": false
    },
    {
      "hash": "0x1c6ebb4ef7bbc60f82b65610e8459ee6cc64ddc9e552b5acac7938c26a3082fa",
      "transactionType": "CALL",
      "contractName": null,
      "contractAddress": "0x4e00da71559c9631032a041730fb752dD97E5484",
      "function": "addHypervisorData(address,address,uint24,bytes,bytes)",
      "arguments": [
        "0x912CE59144191C1204E64559FE8253a0e49E6548",
        "0x6B7635b7d2E85188dB41C3c05B1efa87B143fcE8",
        "10000",
        "0x912ce59144191c1204e64559fe8253a0e49e65480001f482af49447d8a07e3bd95bd0d56f35241523fbab10001f4af88d065e77c8cc2239327c5edb3a432268e5831",
        "0xaf88d065e77c8cc2239327c5edb3a432268e58310001f482af49447d8a07e3bd95bd0d56f35241523fbab10001f4912ce59144191c1204e64559fe8253a0e49e6548"
      ],
      "transaction": {
        "from": "0xF9d85965c6A40D0C029471d758850e4b4C0d5b17",
        "to": "0x4e00da71559c9631032a041730fb752dD97E5484",
        "gas": "0x247f8",
        "value": "0x0",
        "input": "0xcc29a7a5000000000000000000000000912ce59144191c1204e64559fe8253a0e49e65480000000000000000000000006b7635b7d2e85188db41c3c05b1efa87b143fce8000000000000000000000000000000000000000000000000000000000000271000000000000000000000000000000000000000000000000000000000000000a000000000000000000000000000000000000000000000000000000000000001200000000000000000000000000000000000000000000000000000000000000042912ce59144191c1204e64559fe8253a0e49e65480001f482af49447d8a07e3bd95bd0d56f35241523fbab10001f4af88d065e77c8cc2239327c5edb3a432268e58310000000000000000000000000000000000000000000000000000000000000000000000000000000000000000000000000000000000000000000000000042af88d065e77c8cc2239327c5edb3a432268e58310001f482af49447d8a07e3bd95bd0d56f35241523fbab10001f4912ce59144191c1204e64559fe8253a0e49e6548000000000000000000000000000000000000000000000000000000000000",
        "nonce": "0x180",
        "chainId": "0xa4b1"
      },
      "additionalContracts": [],
      "isFixedGasLimit": false
    },
    {
      "hash": "0x581418f0c18c0646006fab5b952a12eeadad7e21b5b4e694d3ab776c279f5a23",
      "transactionType": "CALL",
      "contractName": null,
      "contractAddress": "0x4e00da71559c9631032a041730fb752dD97E5484",
      "function": "addHypervisorData(address,address,uint24,bytes,bytes)",
      "arguments": [
        "0xf97f4df75117a78c1A5a0DBb814Af92458539FB4",
        "0xfA392dbefd2d5ec891eF5aEB87397A89843a8260",
        "3000",
        "0xf97f4df75117a78c1a5a0dbb814af92458539fb4000bb882af49447d8a07e3bd95bd0d56f35241523fbab10001f4af88d065e77c8cc2239327c5edb3a432268e5831",
        "0xaf88d065e77c8cc2239327c5edb3a432268e58310001f482af49447d8a07e3bd95bd0d56f35241523fbab1000bb8f97f4df75117a78c1a5a0dbb814af92458539fb4"
      ],
      "transaction": {
        "from": "0xF9d85965c6A40D0C029471d758850e4b4C0d5b17",
        "to": "0x4e00da71559c9631032a041730fb752dD97E5484",
        "gas": "0x253a3",
        "value": "0x0",
        "input": "0xcc29a7a5000000000000000000000000f97f4df75117a78c1a5a0dbb814af92458539fb4000000000000000000000000fa392dbefd2d5ec891ef5aeb87397a89843a82600000000000000000000000000000000000000000000000000000000000000bb800000000000000000000000000000000000000000000000000000000000000a000000000000000000000000000000000000000000000000000000000000001200000000000000000000000000000000000000000000000000000000000000042f97f4df75117a78c1a5a0dbb814af92458539fb4000bb882af49447d8a07e3bd95bd0d56f35241523fbab10001f4af88d065e77c8cc2239327c5edb3a432268e58310000000000000000000000000000000000000000000000000000000000000000000000000000000000000000000000000000000000000000000000000042af88d065e77c8cc2239327c5edb3a432268e58310001f482af49447d8a07e3bd95bd0d56f35241523fbab1000bb8f97f4df75117a78c1a5a0dbb814af92458539fb4000000000000000000000000000000000000000000000000000000000000",
        "nonce": "0x181",
        "chainId": "0xa4b1"
      },
      "additionalContracts": [],
      "isFixedGasLimit": false
    },
    {
      "hash": "0xae59ae6bb3e899d5a3cb4091d9ecdadaa4af7a300bf388b9f6bd2419072fc457",
      "transactionType": "CALL",
      "contractName": null,
      "contractAddress": "0x4e00da71559c9631032a041730fb752dD97E5484",
      "function": "addHypervisorData(address,address,uint24,bytes,bytes)",
      "arguments": [
        "0xfc5A1A6EB076a2C7aD06eD22C90d7E710E35ad0a",
        "0xF08BDBC590C59cb7B27A8D224E419ef058952b5f",
        "3000",
        "0xfc5a1a6eb076a2c7ad06ed22c90d7e710e35ad0a00271082af49447d8a07e3bd95bd0d56f35241523fbab10001f4af88d065e77c8cc2239327c5edb3a432268e5831",
        "0xaf88d065e77c8cc2239327c5edb3a432268e58310001f482af49447d8a07e3bd95bd0d56f35241523fbab1002710fc5a1a6eb076a2c7ad06ed22c90d7e710e35ad0a"
      ],
      "transaction": {
        "from": "0xF9d85965c6A40D0C029471d758850e4b4C0d5b17",
        "to": "0x4e00da71559c9631032a041730fb752dD97E5484",
        "gas": "0x24e9d",
        "value": "0x0",
        "input": "0xcc29a7a5000000000000000000000000fc5a1a6eb076a2c7ad06ed22c90d7e710e35ad0a000000000000000000000000f08bdbc590c59cb7b27a8d224e419ef058952b5f0000000000000000000000000000000000000000000000000000000000000bb800000000000000000000000000000000000000000000000000000000000000a000000000000000000000000000000000000000000000000000000000000001200000000000000000000000000000000000000000000000000000000000000042fc5a1a6eb076a2c7ad06ed22c90d7e710e35ad0a00271082af49447d8a07e3bd95bd0d56f35241523fbab10001f4af88d065e77c8cc2239327c5edb3a432268e58310000000000000000000000000000000000000000000000000000000000000000000000000000000000000000000000000000000000000000000000000042af88d065e77c8cc2239327c5edb3a432268e58310001f482af49447d8a07e3bd95bd0d56f35241523fbab1002710fc5a1a6eb076a2c7ad06ed22c90d7e710e35ad0a000000000000000000000000000000000000000000000000000000000000",
        "nonce": "0x182",
        "chainId": "0xa4b1"
      },
      "additionalContracts": [],
      "isFixedGasLimit": false
    },
    {
      "hash": "0x3780122d02a50a5f73565def2e638e3f627957c143c13d1b849e0b56b70edecf",
      "transactionType": "CALL",
      "contractName": null,
      "contractAddress": "0x4e00da71559c9631032a041730fb752dD97E5484",
      "function": "addHypervisorData(address,address,uint24,bytes,bytes)",
      "arguments": [
        "0x3082CC23568eA640225c2467653dB90e9250AaA0",
        "0x2BCBDD577616357464CFe307Bc67F9e820A66e80",
        "3000",
        "0x3082cc23568ea640225c2467653db90e9250aaa0000bb882af49447d8a07e3bd95bd0d56f35241523fbab10001f4af88d065e77c8cc2239327c5edb3a432268e5831",
        "0xaf88d065e77c8cc2239327c5edb3a432268e58310001f482af49447d8a07e3bd95bd0d56f35241523fbab1000bb83082cc23568ea640225c2467653db90e9250aaa0"
      ],
      "transaction": {
        "from": "0xF9d85965c6A40D0C029471d758850e4b4C0d5b17",
        "to": "0x4e00da71559c9631032a041730fb752dD97E5484",
        "gas": "0x24c16",
        "value": "0x0",
        "input": "0xcc29a7a50000000000000000000000003082cc23568ea640225c2467653db90e9250aaa00000000000000000000000002bcbdd577616357464cfe307bc67f9e820a66e800000000000000000000000000000000000000000000000000000000000000bb800000000000000000000000000000000000000000000000000000000000000a0000000000000000000000000000000000000000000000000000000000000012000000000000000000000000000000000000000000000000000000000000000423082cc23568ea640225c2467653db90e9250aaa0000bb882af49447d8a07e3bd95bd0d56f35241523fbab10001f4af88d065e77c8cc2239327c5edb3a432268e58310000000000000000000000000000000000000000000000000000000000000000000000000000000000000000000000000000000000000000000000000042af88d065e77c8cc2239327c5edb3a432268e58310001f482af49447d8a07e3bd95bd0d56f35241523fbab1000bb83082cc23568ea640225c2467653db90e9250aaa0000000000000000000000000000000000000000000000000000000000000",
        "nonce": "0x183",
        "chainId": "0xa4b1"
      },
      "additionalContracts": [],
      "isFixedGasLimit": false
    }
  ],
  "receipts": [
    {
      "status": "0x1",
      "cumulativeGasUsed": "0x38128e",
      "logs": [
        {
          "address": "0x4e00da71559c9631032a041730fb752dD97E5484",
          "topics": [
            "0x8be0079c531659141344cd1fd0a4f28419497f9722a3daafe3b4186f6b6457e0",
            "0x0000000000000000000000000000000000000000000000000000000000000000",
            "0x000000000000000000000000f9d85965c6a40d0c029471d758850e4b4c0d5b17"
          ],
          "data": "0x",
          "blockHash": "0x4912f44d5b50ec4475a61cdd35779aa92ef7b99a67c66d4f5ac711e18233ead9",
          "blockNumber": "0xfb89cdf",
          "transactionHash": "0x47435d5f24a0a480df13153c1e112da528cc38885aa72ffc33c522451fc15903",
          "transactionIndex": "0x2",
          "logIndex": "0x2",
          "removed": false
        }
      ],
      "logsBloom": "0x00000000000000000000000000000000000000008000000000800000000000000000000000000000200000000000000000000000000000000000000000000000000000000000010000000000000000000001000000000000000000000000000000000000020000000000000000000800000000000000100100000000000000400000000000000000000000000000000000000000000000000000000000000000000000000000000000000000000000000000000000000000000000000000000000000000000000000000000000000000000000000000000040000000000020000000000000000000000000000000000000000000000000000000000000000000",
      "type": "0x2",
      "transactionHash": "0x47435d5f24a0a480df13153c1e112da528cc38885aa72ffc33c522451fc15903",
      "transactionIndex": "0x2",
      "blockHash": "0x4912f44d5b50ec4475a61cdd35779aa92ef7b99a67c66d4f5ac711e18233ead9",
      "blockNumber": "0xfb89cdf",
      "gasUsed": "0x36bc26",
      "effectiveGasPrice": "0x4586958",
      "from": "0xF9d85965c6A40D0C029471d758850e4b4C0d5b17",
      "to": null,
      "contractAddress": "0x4e00da71559c9631032a041730fb752dD97E5484",
      "gasUsedForL1": "0xfe428",
      "l1BlockNumber": "0x13fe498"
    },
    {
      "status": "0x1",
      "cumulativeGasUsed": "0xf003",
      "logs": [],
      "logsBloom": "0x00000000000000000000000000000000000000000000000000000000000000000000000000000000000000000000000000000000000000000000000000000000000000000000000000000000000000000000000000000000000000000000000000000000000000000000000000000000000000000000000000000000000000000000000000000000000000000000000000000000000000000000000000000000000000000000000000000000000000000000000000000000000000000000000000000000000000000000000000000000000000000000000000000000000000000000000000000000000000000000000000000000000000000000000000000000",
      "type": "0x2",
      "transactionHash": "0x219ea88c7bf08e37d4cda774c590194fcc9ae71c3eee700cbe949a57c3f2e5d3",
      "transactionIndex": "0x1",
      "blockHash": "0x1b06b8f07e7ddf67a1d06c81d3cb5280ecfbbd4945ce6806264285516e75357c",
      "blockNumber": "0xfb89ce6",
      "gasUsed": "0xf003",
      "effectiveGasPrice": "0x45567d0",
      "from": "0xF9d85965c6A40D0C029471d758850e4b4C0d5b17",
      "to": "0x496aB4A155C8fE359Cd28d43650fAFA0A35322Fb",
      "contractAddress": null,
      "gasUsedForL1": "0x6ae0",
      "l1BlockNumber": "0x13fe498"
    },
    {
      "status": "0x1",
      "cumulativeGasUsed": "0x3b2d3",
      "logs": [],
      "logsBloom": "0x00000000000000000000000000000000000000000000000000000000000000000000000000000000000000000000000000000000000000000000000000000000000000000000000000000000000000000000000000000000000000000000000000000000000000000000000000000000000000000000000000000000000000000000000000000000000000000000000000000000000000000000000000000000000000000000000000000000000000000000000000000000000000000000000000000000000000000000000000000000000000000000000000000000000000000000000000000000000000000000000000000000000000000000000000000000",
      "type": "0x2",
      "transactionHash": "0xe82e120ec3ba65fb9fa521f4aaf13961ba9cf78b3bd2f8008d354a4728a4d4f9",
      "transactionIndex": "0x1",
      "blockHash": "0xf72e2c6d0115f66c8460dcd3a5e47bc95a4313ff4594c40e072eccb799b41a96",
      "blockNumber": "0xfb89ceb",
      "gasUsed": "0x3b2d3",
      "effectiveGasPrice": "0x45256a8",
      "from": "0xF9d85965c6A40D0C029471d758850e4b4C0d5b17",
      "to": "0x4e00da71559c9631032a041730fb752dD97E5484",
      "contractAddress": null,
      "gasUsedForL1": "0xe55a",
      "l1BlockNumber": "0x13fe499"
    },
    {
      "status": "0x1",
      "cumulativeGasUsed": "0x1c85ff",
      "logs": [],
      "logsBloom": "0x00000000000000000000000000000000000000000000000000000000000000000000000000000000000000000000000000000000000000000000000000000000000000000000000000000000000000000000000000000000000000000000000000000000000000000000000000000000000000000000000000000000000000000000000000000000000000000000000000000000000000000000000000000000000000000000000000000000000000000000000000000000000000000000000000000000000000000000000000000000000000000000000000000000000000000000000000000000000000000000000000000000000000000000000000000000",
      "type": "0x2",
      "transactionHash": "0xdd68a3362bd85cbcfbe8ce9a25b26cf3c02c6c6cffb63abae4e5647f0f174dac",
      "transactionIndex": "0x5",
      "blockHash": "0xaa672615ac8b007cc18d24ecda2db759467a4409082ad991aa0faf3bfcbda034",
      "blockNumber": "0xfb89cef",
      "gasUsed": "0x3b40e",
      "effectiveGasPrice": "0x44fddd8",
      "from": "0xF9d85965c6A40D0C029471d758850e4b4C0d5b17",
      "to": "0x4e00da71559c9631032a041730fb752dD97E5484",
      "contractAddress": null,
      "gasUsedForL1": "0xe695",
      "l1BlockNumber": "0x13fe499"
    },
    {
      "status": "0x1",
      "cumulativeGasUsed": "0xaa555",
      "logs": [],
      "logsBloom": "0x00000000000000000000000000000000000000000000000000000000000000000000000000000000000000000000000000000000000000000000000000000000000000000000000000000000000000000000000000000000000000000000000000000000000000000000000000000000000000000000000000000000000000000000000000000000000000000000000000000000000000000000000000000000000000000000000000000000000000000000000000000000000000000000000000000000000000000000000000000000000000000000000000000000000000000000000000000000000000000000000000000000000000000000000000000000",
      "type": "0x2",
      "transactionHash": "0x1c6ebb4ef7bbc60f82b65610e8459ee6cc64ddc9e552b5acac7938c26a3082fa",
      "transactionIndex": "0x3",
      "blockHash": "0x2731b14b65bf095430194770a021d8d004c86f15cc8fa7aa4dad0d561c517bea",
      "blockNumber": "0xfb89cf3",
      "gasUsed": "0x47c5d",
      "effectiveGasPrice": "0x4428f98",
      "from": "0xF9d85965c6A40D0C029471d758850e4b4C0d5b17",
      "to": "0x4e00da71559c9631032a041730fb752dD97E5484",
      "contractAddress": null,
      "gasUsedForL1": "0xfe6a",
      "l1BlockNumber": "0x13fe499"
    },
    {
      "status": "0x1",
      "cumulativeGasUsed": "0x4828d",
      "logs": [],
      "logsBloom": "0x00000000000000000000000000000000000000000000000000000000000000000000000000000000000000000000000000000000000000000000000000000000000000000000000000000000000000000000000000000000000000000000000000000000000000000000000000000000000000000000000000000000000000000000000000000000000000000000000000000000000000000000000000000000000000000000000000000000000000000000000000000000000000000000000000000000000000000000000000000000000000000000000000000000000000000000000000000000000000000000000000000000000000000000000000000000",
      "type": "0x2",
      "transactionHash": "0x581418f0c18c0646006fab5b952a12eeadad7e21b5b4e694d3ab776c279f5a23",
      "transactionIndex": "0x1",
      "blockHash": "0xec1f901e1a448b7c50e40e8c6e34399a13c8037cf329bddeac1d857b3b69d1b3",
      "blockNumber": "0xfb89cfa",
      "gasUsed": "0x4828d",
      "effectiveGasPrice": "0x443f6f8",
      "from": "0xF9d85965c6A40D0C029471d758850e4b4C0d5b17",
      "to": "0x4e00da71559c9631032a041730fb752dD97E5484",
      "contractAddress": null,
      "gasUsedForL1": "0x1049a",
      "l1BlockNumber": "0x13fe499"
    },
    {
      "status": "0x1",
      "cumulativeGasUsed": "0xfb3bf",
      "logs": [],
      "logsBloom": "0x00000000000000000000000000000000000000000000000000000000000000000000000000000000000000000000000000000000000000000000000000000000000000000000000000000000000000000000000000000000000000000000000000000000000000000000000000000000000000000000000000000000000000000000000000000000000000000000000000000000000000000000000000000000000000000000000000000000000000000000000000000000000000000000000000000000000000000000000000000000000000000000000000000000000000000000000000000000000000000000000000000000000000000000000000000000",
      "type": "0x2",
      "transactionHash": "0xae59ae6bb3e899d5a3cb4091d9ecdadaa4af7a300bf388b9f6bd2419072fc457",
      "transactionIndex": "0x5",
      "blockHash": "0x827bf08bbbfc0ac10ebf5c5a220156b5b8ebc7836090c5bd965eb0038085d775",
      "blockNumber": "0xfb89d00",
      "gasUsed": "0x48720",
      "effectiveGasPrice": "0x43a13b8",
      "from": "0xF9d85965c6A40D0C029471d758850e4b4C0d5b17",
      "to": "0x4e00da71559c9631032a041730fb752dD97E5484",
      "contractAddress": null,
      "gasUsedForL1": "0x1092d",
      "l1BlockNumber": "0x13fe499"
    },
    {
      "status": "0x1",
      "cumulativeGasUsed": "0x48108",
      "logs": [],
      "logsBloom": "0x00000000000000000000000000000000000000000000000000000000000000000000000000000000000000000000000000000000000000000000000000000000000000000000000000000000000000000000000000000000000000000000000000000000000000000000000000000000000000000000000000000000000000000000000000000000000000000000000000000000000000000000000000000000000000000000000000000000000000000000000000000000000000000000000000000000000000000000000000000000000000000000000000000000000000000000000000000000000000000000000000000000000000000000000000000000",
      "type": "0x2",
      "transactionHash": "0x3780122d02a50a5f73565def2e638e3f627957c143c13d1b849e0b56b70edecf",
      "transactionIndex": "0x1",
      "blockHash": "0xef7802a2e3b08c77dd8d96d295828404ad886eec73217bf9d3c8538aacd0b19c",
      "blockNumber": "0xfb89d05",
      "gasUsed": "0x48108",
      "effectiveGasPrice": "0x43502d8",
      "from": "0xF9d85965c6A40D0C029471d758850e4b4C0d5b17",
      "to": "0x4e00da71559c9631032a041730fb752dD97E5484",
      "contractAddress": null,
      "gasUsedForL1": "0x10315",
      "l1BlockNumber": "0x13fe499"
    }
  ],
  "libraries": [],
  "pending": [],
  "returns": {},
  "timestamp": 1728917422,
  "chain": 42161,
  "commit": "347eda7"
}