{
  "transactions": [
    {
      "hash": null,
      "transactionType": "CALL",
      "contractName": null,
      "contractAddress": "0xE7b538f6deB6314c55118e46b4014Ca496292709",
      "function": "withdrawYield(address,bytes32,uint256,uint256)",
      "arguments": [
        "0x547A116a2622876cE1C8d19d41c683C8f7BeC5c0",
        "0x4554480000000000000000000000000000000000000000000000000000000000",
        "90000",
        "1729144443"
      ],
      "transaction": {
        "from": "0xF9d85965c6A40D0C029471d758850e4b4C0d5b17",
        "to": "0xE7b538f6deB6314c55118e46b4014Ca496292709",
        "gas": "0x226633",
        "value": "0x0",
        "input": "0xdc5bd109000000000000000000000000547a116a2622876ce1c8d19d41c683c8f7bec5c045544800000000000000000000000000000000000000000000000000000000000000000000000000000000000000000000000000000000000000000000015f90000000000000000000000000000000000000000000000000000000006710a67b",
        "nonce": "0x18f",
        "chainId": "0xa4b1"
      },
      "additionalContracts": [],
      "isFixedGasLimit": false
    },
    {
      "hash": null,
      "transactionType": "CALL",
      "contractName": null,
      "contractAddress": "0xE7b538f6deB6314c55118e46b4014Ca496292709",
      "function": "withdrawYield(address,bytes32,uint256,uint256)",
      "arguments": [
        "0x52ee1FFBA696c5E9b0Bc177A9f8a3098420EA691",
        "0x5742544300000000000000000000000000000000000000000000000000000000",
        "90000",
        "1729144443"
      ],
      "transaction": {
        "from": "0xF9d85965c6A40D0C029471d758850e4b4C0d5b17",
        "to": "0xE7b538f6deB6314c55118e46b4014Ca496292709",
        "gas": "0x225c2f",
        "value": "0x0",
        "input": "0xdc5bd10900000000000000000000000052ee1ffba696c5e9b0bc177a9f8a3098420ea69157425443000000000000000000000000000000000000000000000000000000000000000000000000000000000000000000000000000000000000000000015f90000000000000000000000000000000000000000000000000000000006710a67b",
        "nonce": "0x190",
        "chainId": "0xa4b1"
      },
      "additionalContracts": [],
      "isFixedGasLimit": false
    }
  ],
  "receipts": [],
  "libraries": [],
  "pending": [],
  "returns": {},
  "timestamp": 1729065833,
  "chain": 42161,
  "commit": "347eda7"
}