{
  "transactions": [
    {
      "hash": null,
      "transactionType": "CALL",
      "contractName": null,
      "contractAddress": "0xE7b538f6deB6314c55118e46b4014Ca496292709",
      "function": "withdrawYield(address,bytes32,uint256,uint256)",
      "arguments": [
        "0xfA392dbefd2d5ec891eF5aEB87397A89843a8260",
        "0x4c494e4b00000000000000000000000000000000000000000000000000000000",
        "95000",
        "1729687609"
      ],
      "transaction": {
        "from": "0xF9d85965c6A40D0C029471d758850e4b4C0d5b17",
        "to": "0xE7b538f6deB6314c55118e46b4014Ca496292709",
        "gas": "0x28b2bb",
        "value": "0x0",
        "input": "0xdc5bd109000000000000000000000000fa392dbefd2d5ec891ef5aeb87397a89843a82604c494e4b000000000000000000000000000000000000000000000000000000000000000000000000000000000000000000000000000000000000000000017318000000000000000000000000000000000000000000000000000000006718f039",
        "nonce": "0x1ac",
        "chainId": "0xa4b1"
      },
      "additionalContracts": [],
      "isFixedGasLimit": false
    }
  ],
  "receipts": [],
  "libraries": [],
  "pending": [],
  "returns": {},
  "timestamp": 1729608905,
  "chain": 42161,
  "commit": "f96bb8e"
}